{
  "contractName": "Creat",
  "abi": [
    {
      "inputs": [
        {
          "internalType": "string",
          "name": "_uri",
          "type": "string"
        }
      ],
      "stateMutability": "nonpayable",
      "type": "constructor"
    },
    {
      "anonymous": false,
      "inputs": [
        {
          "indexed": false,
          "internalType": "address",
          "name": "user",
          "type": "address"
        },
        {
          "indexed": false,
          "internalType": "uint256",
          "name": "tokenId",
          "type": "uint256"
        }
      ],
      "name": "AddNewToken",
      "type": "event"
    },
    {
      "anonymous": false,
      "inputs": [
        {
          "indexed": true,
          "internalType": "address",
          "name": "account",
          "type": "address"
        },
        {
          "indexed": true,
          "internalType": "address",
          "name": "operator",
          "type": "address"
        },
        {
          "indexed": false,
          "internalType": "bool",
          "name": "approved",
          "type": "bool"
        }
      ],
      "name": "ApprovalForAll",
      "type": "event"
    },
    {
      "anonymous": false,
      "inputs": [
        {
          "indexed": false,
          "internalType": "address",
          "name": "user",
          "type": "address"
        },
        {
          "indexed": false,
          "internalType": "uint256",
          "name": "tokenId",
          "type": "uint256"
        },
        {
          "indexed": false,
          "internalType": "uint256",
          "name": "amount",
          "type": "uint256"
        }
      ],
      "name": "DeleteTokens",
      "type": "event"
    },
    {
      "anonymous": false,
      "inputs": [
        {
          "indexed": true,
          "internalType": "address",
          "name": "previousOwner",
          "type": "address"
        },
        {
          "indexed": true,
          "internalType": "address",
          "name": "newOwner",
          "type": "address"
        }
      ],
      "name": "OwnershipTransferred",
      "type": "event"
    },
    {
      "anonymous": false,
      "inputs": [
        {
          "indexed": false,
          "internalType": "string",
          "name": "uri",
          "type": "string"
        }
      ],
      "name": "SetURI",
      "type": "event"
    },
    {
      "anonymous": false,
      "inputs": [
        {
          "indexed": true,
          "internalType": "address",
          "name": "operator",
          "type": "address"
        },
        {
          "indexed": true,
          "internalType": "address",
          "name": "from",
          "type": "address"
        },
        {
          "indexed": true,
          "internalType": "address",
          "name": "to",
          "type": "address"
        },
        {
          "indexed": false,
          "internalType": "uint256[]",
          "name": "ids",
          "type": "uint256[]"
        },
        {
          "indexed": false,
          "internalType": "uint256[]",
          "name": "values",
          "type": "uint256[]"
        }
      ],
      "name": "TransferBatch",
      "type": "event"
    },
    {
      "anonymous": false,
      "inputs": [
        {
          "indexed": true,
          "internalType": "address",
          "name": "operator",
          "type": "address"
        },
        {
          "indexed": true,
          "internalType": "address",
          "name": "from",
          "type": "address"
        },
        {
          "indexed": true,
          "internalType": "address",
          "name": "to",
          "type": "address"
        },
        {
          "indexed": false,
          "internalType": "uint256",
          "name": "id",
          "type": "uint256"
        },
        {
          "indexed": false,
          "internalType": "uint256",
          "name": "value",
          "type": "uint256"
        }
      ],
      "name": "TransferSingle",
      "type": "event"
    },
    {
      "anonymous": false,
      "inputs": [
        {
          "indexed": false,
          "internalType": "string",
          "name": "value",
          "type": "string"
        },
        {
          "indexed": true,
          "internalType": "uint256",
          "name": "id",
          "type": "uint256"
        }
      ],
      "name": "URI",
      "type": "event"
    },
    {
      "inputs": [
        {
          "internalType": "address",
          "name": "account",
          "type": "address"
        },
        {
          "internalType": "uint256",
          "name": "id",
          "type": "uint256"
        }
      ],
      "name": "balanceOf",
      "outputs": [
        {
          "internalType": "uint256",
          "name": "",
          "type": "uint256"
        }
      ],
      "stateMutability": "view",
      "type": "function"
    },
    {
      "inputs": [
        {
          "internalType": "address[]",
          "name": "accounts",
          "type": "address[]"
        },
        {
          "internalType": "uint256[]",
          "name": "ids",
          "type": "uint256[]"
        }
      ],
      "name": "balanceOfBatch",
      "outputs": [
        {
          "internalType": "uint256[]",
          "name": "",
          "type": "uint256[]"
        }
      ],
      "stateMutability": "view",
      "type": "function"
    },
    {
      "inputs": [
        {
          "internalType": "address",
          "name": "account",
          "type": "address"
        },
        {
          "internalType": "address",
          "name": "operator",
          "type": "address"
        }
      ],
      "name": "isApprovedForAll",
      "outputs": [
        {
          "internalType": "bool",
          "name": "",
          "type": "bool"
        }
      ],
      "stateMutability": "view",
      "type": "function"
    },
    {
      "inputs": [],
      "name": "maxId",
      "outputs": [
        {
          "internalType": "uint256",
          "name": "",
          "type": "uint256"
        }
      ],
      "stateMutability": "view",
      "type": "function"
    },
    {
      "inputs": [],
      "name": "owner",
      "outputs": [
        {
          "internalType": "address",
          "name": "",
          "type": "address"
        }
      ],
      "stateMutability": "view",
      "type": "function"
    },
    {
      "inputs": [],
      "name": "renounceOwnership",
      "outputs": [],
      "stateMutability": "nonpayable",
      "type": "function"
    },
    {
      "inputs": [
        {
          "internalType": "address",
          "name": "from",
          "type": "address"
        },
        {
          "internalType": "address",
          "name": "to",
          "type": "address"
        },
        {
          "internalType": "uint256[]",
          "name": "ids",
          "type": "uint256[]"
        },
        {
          "internalType": "uint256[]",
          "name": "amounts",
          "type": "uint256[]"
        },
        {
          "internalType": "bytes",
          "name": "data",
          "type": "bytes"
        }
      ],
      "name": "safeBatchTransferFrom",
      "outputs": [],
      "stateMutability": "nonpayable",
      "type": "function"
    },
    {
      "inputs": [
        {
          "internalType": "address",
          "name": "operator",
          "type": "address"
        },
        {
          "internalType": "bool",
          "name": "approved",
          "type": "bool"
        }
      ],
      "name": "setApprovalForAll",
      "outputs": [],
      "stateMutability": "nonpayable",
      "type": "function"
    },
    {
      "inputs": [
        {
          "internalType": "bytes4",
          "name": "interfaceId",
          "type": "bytes4"
        }
      ],
      "name": "supportsInterface",
      "outputs": [
        {
          "internalType": "bool",
          "name": "",
          "type": "bool"
        }
      ],
      "stateMutability": "view",
      "type": "function"
    },
    {
      "inputs": [
        {
          "internalType": "uint256",
          "name": "",
          "type": "uint256"
        }
      ],
      "name": "tokenIds",
      "outputs": [
        {
          "internalType": "uint256",
          "name": "",
          "type": "uint256"
        }
      ],
      "stateMutability": "view",
      "type": "function"
    },
    {
      "inputs": [
        {
          "internalType": "uint256",
          "name": "",
          "type": "uint256"
        }
      ],
      "name": "tokenIdsAvailable",
      "outputs": [
        {
          "internalType": "bool",
          "name": "",
          "type": "bool"
        }
      ],
      "stateMutability": "view",
      "type": "function"
    },
    {
      "inputs": [
        {
          "internalType": "uint256",
          "name": "",
          "type": "uint256"
        }
      ],
      "name": "tokenInfo",
      "outputs": [
        {
          "internalType": "uint256",
          "name": "tokenId",
          "type": "uint256"
        },
        {
          "internalType": "address",
          "name": "creator",
          "type": "address"
        },
        {
          "internalType": "uint256",
          "name": "tokenAmount",
          "type": "uint256"
        },
        {
          "internalType": "uint8",
          "name": "serviceFee",
          "type": "uint8"
        },
        {
          "internalType": "uint256",
          "name": "creationTime",
          "type": "uint256"
        }
      ],
      "stateMutability": "view",
      "type": "function"
    },
    {
      "inputs": [
        {
          "internalType": "uint256",
          "name": "",
          "type": "uint256"
        },
        {
          "internalType": "address",
          "name": "",
          "type": "address"
        }
      ],
      "name": "tokenOwnerInfo",
      "outputs": [
        {
          "internalType": "bool",
          "name": "isForSale",
          "type": "bool"
        },
        {
          "internalType": "uint8",
          "name": "priceType",
          "type": "uint8"
        }
      ],
      "stateMutability": "view",
      "type": "function"
    },
    {
      "inputs": [
        {
          "internalType": "address",
          "name": "newOwner",
          "type": "address"
        }
      ],
      "name": "transferOwnership",
      "outputs": [],
      "stateMutability": "nonpayable",
      "type": "function"
    },
    {
      "inputs": [
        {
          "internalType": "uint256",
          "name": "",
          "type": "uint256"
        }
      ],
      "name": "uri",
      "outputs": [
        {
          "internalType": "string",
          "name": "",
          "type": "string"
        }
      ],
      "stateMutability": "view",
      "type": "function"
    },
    {
      "inputs": [
        {
          "internalType": "uint256",
          "name": "_tokenId",
          "type": "uint256"
        }
      ],
      "name": "creatorOfToken",
      "outputs": [
        {
          "internalType": "address payable",
          "name": "",
          "type": "address"
        }
      ],
      "stateMutability": "view",
      "type": "function"
    },
    {
      "inputs": [
        {
          "internalType": "uint256",
          "name": "_tokenId",
          "type": "uint256"
        }
      ],
      "name": "getServiceFee",
      "outputs": [
        {
          "internalType": "uint8",
          "name": "",
          "type": "uint8"
        }
      ],
      "stateMutability": "view",
      "type": "function"
    },
    {
      "inputs": [
        {
          "internalType": "uint256",
          "name": "_tokenId",
          "type": "uint256"
        },
        {
          "internalType": "address",
          "name": "_owner",
          "type": "address"
        }
      ],
      "name": "getPriceType",
      "outputs": [
        {
          "internalType": "uint8",
          "name": "",
          "type": "uint8"
        }
      ],
      "stateMutability": "view",
      "type": "function"
    },
    {
      "inputs": [
        {
          "internalType": "uint256",
          "name": "_tokenId",
          "type": "uint256"
        }
      ],
      "name": "getTokenAmount",
      "outputs": [
        {
          "internalType": "uint256",
          "name": "",
          "type": "uint256"
        }
      ],
      "stateMutability": "view",
      "type": "function"
    },
    {
      "inputs": [
        {
          "internalType": "uint256",
          "name": "_tokenId",
          "type": "uint256"
        },
        {
          "internalType": "address",
          "name": "_owner",
          "type": "address"
        }
      ],
      "name": "getIsForSale",
      "outputs": [
        {
          "internalType": "bool",
          "name": "",
          "type": "bool"
        }
      ],
      "stateMutability": "view",
      "type": "function"
    },
    {
      "inputs": [
        {
          "internalType": "uint256",
          "name": "_tokenId",
          "type": "uint256"
        }
      ],
      "name": "getOwners",
      "outputs": [
        {
          "internalType": "address[]",
          "name": "owners",
          "type": "address[]"
        }
      ],
      "stateMutability": "view",
      "type": "function"
    },
    {
      "inputs": [
        {
          "internalType": "uint256",
          "name": "_tokenId",
          "type": "uint256"
        },
        {
          "internalType": "address",
          "name": "_owner",
          "type": "address"
        }
      ],
      "name": "getPrices",
      "outputs": [
        {
          "internalType": "uint256[]",
          "name": "prices",
          "type": "uint256[]"
        }
      ],
      "stateMutability": "view",
      "type": "function"
    },
    {
      "inputs": [
        {
          "internalType": "uint256",
          "name": "_tokenId",
          "type": "uint256"
        },
        {
          "internalType": "address",
          "name": "_owner",
          "type": "address"
        }
      ],
      "name": "getBids",
      "outputs": [
        {
          "internalType": "uint256[]",
          "name": "bids",
          "type": "uint256[]"
        }
      ],
      "stateMutability": "view",
      "type": "function"
    },
    {
      "inputs": [
        {
          "internalType": "uint256",
          "name": "_tokenId",
          "type": "uint256"
        },
        {
          "internalType": "address",
          "name": "_owner",
          "type": "address"
        }
      ],
      "name": "getBidders",
      "outputs": [
        {
          "internalType": "address[]",
          "name": "bidders",
          "type": "address[]"
        }
      ],
      "stateMutability": "view",
      "type": "function"
    },
    {
      "inputs": [
        {
          "internalType": "uint256",
          "name": "_tokenId",
          "type": "uint256"
        }
      ],
      "name": "getCreationTime",
      "outputs": [
        {
          "internalType": "uint256",
          "name": "",
          "type": "uint256"
        }
      ],
      "stateMutability": "view",
      "type": "function"
    },
    {
      "inputs": [],
      "name": "getTokenIdsLength",
      "outputs": [
        {
          "internalType": "uint256",
          "name": "",
          "type": "uint256"
        }
      ],
      "stateMutability": "view",
      "type": "function"
    },
    {
      "inputs": [
        {
          "internalType": "uint256",
          "name": "_index",
          "type": "uint256"
        }
      ],
      "name": "getTokenId",
      "outputs": [
        {
          "internalType": "uint256",
          "name": "",
          "type": "uint256"
        }
      ],
      "stateMutability": "view",
      "type": "function"
    },
    {
      "inputs": [
        {
          "internalType": "address",
          "name": "_owner",
          "type": "address"
        }
      ],
      "name": "getOwnerTokens",
      "outputs": [
        {
          "components": [
            {
              "internalType": "uint256",
              "name": "tokenId",
              "type": "uint256"
            },
            {
              "internalType": "address",
              "name": "creator",
              "type": "address"
            },
            {
              "internalType": "uint256",
              "name": "tokenAmount",
              "type": "uint256"
            },
            {
              "internalType": "address[]",
              "name": "owners",
              "type": "address[]"
            },
            {
              "internalType": "uint8",
              "name": "serviceFee",
              "type": "uint8"
            },
            {
              "internalType": "uint256",
              "name": "creationTime",
              "type": "uint256"
            }
          ],
          "internalType": "struct Creat.TokenInfo[]",
          "name": "tokens",
          "type": "tuple[]"
        },
        {
          "components": [
            {
              "internalType": "bool",
              "name": "isForSale",
              "type": "bool"
            },
            {
              "internalType": "uint8",
              "name": "priceType",
              "type": "uint8"
            },
            {
              "internalType": "uint256[]",
              "name": "prices",
              "type": "uint256[]"
            },
            {
              "internalType": "uint256[]",
              "name": "bids",
              "type": "uint256[]"
            },
            {
              "internalType": "address[]",
              "name": "bidders",
              "type": "address[]"
            }
          ],
          "internalType": "struct Creat.TokenOwnerInfo[]",
          "name": "ownerInfo",
          "type": "tuple[]"
        }
      ],
      "stateMutability": "view",
      "type": "function"
    },
    {
      "inputs": [
        {
          "internalType": "uint256",
          "name": "_offset",
          "type": "uint256"
        },
        {
          "internalType": "uint256",
          "name": "_limit",
          "type": "uint256"
        }
      ],
      "name": "getTokensPaging",
      "outputs": [
        {
          "components": [
            {
              "internalType": "uint256",
              "name": "tokenId",
              "type": "uint256"
            },
            {
              "internalType": "address",
              "name": "creator",
              "type": "address"
            },
            {
              "internalType": "uint256",
              "name": "tokenAmount",
              "type": "uint256"
            },
            {
              "internalType": "address[]",
              "name": "owners",
              "type": "address[]"
            },
            {
              "internalType": "uint8",
              "name": "serviceFee",
              "type": "uint8"
            },
            {
              "internalType": "uint256",
              "name": "creationTime",
              "type": "uint256"
            }
          ],
          "internalType": "struct Creat.TokenInfo[]",
          "name": "tokens",
          "type": "tuple[]"
        },
        {
          "internalType": "uint256",
          "name": "nextOffset",
          "type": "uint256"
        },
        {
          "internalType": "uint256",
          "name": "total",
          "type": "uint256"
        }
      ],
      "stateMutability": "view",
      "type": "function"
    },
    {
      "inputs": [
        {
          "internalType": "address",
          "name": "_oldAddress",
          "type": "address"
        },
        {
          "internalType": "uint256",
          "name": "_startIndex",
          "type": "uint256"
        },
        {
          "internalType": "uint256",
          "name": "_endIndex",
          "type": "uint256"
        }
      ],
      "name": "restore",
      "outputs": [],
      "stateMutability": "nonpayable",
      "type": "function"
    },
    {
      "inputs": [
        {
          "internalType": "uint256",
          "name": "_tokenAmount",
          "type": "uint256"
        },
        {
          "internalType": "uint256",
          "name": "_tokenId",
          "type": "uint256"
        }
      ],
      "name": "setTokenAmount",
      "outputs": [],
      "stateMutability": "nonpayable",
      "type": "function"
    },
    {
      "inputs": [
        {
          "internalType": "bool",
          "name": "_isForSale",
          "type": "bool"
        },
        {
          "internalType": "uint256",
          "name": "_tokenId",
          "type": "uint256"
        }
      ],
      "name": "setIsForSale",
      "outputs": [],
      "stateMutability": "nonpayable",
      "type": "function"
    },
    {
      "inputs": [
        {
          "internalType": "uint8",
          "name": "_priceType",
          "type": "uint8"
        },
        {
          "internalType": "uint256",
          "name": "_price",
          "type": "uint256"
        },
        {
          "internalType": "uint256",
          "name": "_startTime",
          "type": "uint256"
        },
        {
          "internalType": "uint256",
          "name": "_endTime",
          "type": "uint256"
        },
        {
          "internalType": "uint256",
          "name": "_tokenId",
          "type": "uint256"
        },
        {
          "internalType": "address",
          "name": "_owner",
          "type": "address"
        }
      ],
      "name": "putOnSale",
      "outputs": [],
      "stateMutability": "nonpayable",
      "type": "function"
    },
    {
      "inputs": [
        {
          "internalType": "uint256",
          "name": "_tokenId",
          "type": "uint256"
        },
        {
          "internalType": "address",
          "name": "_owner",
          "type": "address"
        }
      ],
      "name": "removeFromSale",
      "outputs": [],
      "stateMutability": "nonpayable",
      "type": "function"
    },
    {
      "inputs": [
        {
          "internalType": "uint8",
          "name": "_priceType",
          "type": "uint8"
        },
        {
          "internalType": "uint256",
          "name": "_tokenId",
          "type": "uint256"
        }
      ],
      "name": "setPriceType",
      "outputs": [],
      "stateMutability": "nonpayable",
      "type": "function"
    },
    {
      "inputs": [
        {
          "internalType": "address",
          "name": "_marketAuction",
          "type": "address"
        },
        {
          "internalType": "address",
          "name": "_marketplaceSettings",
          "type": "address"
        },
        {
          "internalType": "address",
          "name": "_tokenCreatorRigistry",
          "type": "address"
        },
        {
          "internalType": "address",
          "name": "_royaltyRegistry",
          "type": "address"
        }
      ],
      "name": "setMarketAddresses",
      "outputs": [],
      "stateMutability": "nonpayable",
      "type": "function"
    },
    {
      "inputs": [
        {
          "internalType": "uint256",
          "name": "_price",
          "type": "uint256"
        },
        {
          "internalType": "uint256",
          "name": "_tokenId",
          "type": "uint256"
        },
        {
          "internalType": "address",
          "name": "_owner",
          "type": "address"
        }
      ],
      "name": "setPrice",
      "outputs": [],
      "stateMutability": "nonpayable",
      "type": "function"
    },
    {
      "inputs": [
        {
          "internalType": "uint256",
          "name": "_bid",
          "type": "uint256"
        },
        {
          "internalType": "address",
          "name": "_bidder",
          "type": "address"
        },
        {
          "internalType": "uint256",
          "name": "_tokenId",
          "type": "uint256"
        },
        {
          "internalType": "address",
          "name": "_owner",
          "type": "address"
        }
      ],
      "name": "setBid",
      "outputs": [],
      "stateMutability": "nonpayable",
      "type": "function"
    },
    {
      "inputs": [
        {
          "internalType": "uint256",
          "name": "_tokenAmount",
          "type": "uint256"
        },
        {
          "internalType": "bool",
          "name": "_isForSale",
          "type": "bool"
        },
        {
          "internalType": "uint8",
          "name": "_priceType",
          "type": "uint8"
        },
        {
          "internalType": "uint8",
          "name": "_royaltyPercentage",
          "type": "uint8"
        }
      ],
      "name": "addNewToken",
      "outputs": [],
      "stateMutability": "nonpayable",
      "type": "function"
    },
    {
      "inputs": [
        {
          "internalType": "uint256",
          "name": "_tokenAmount",
          "type": "uint256"
        },
        {
          "internalType": "bool",
          "name": "_isForSale",
          "type": "bool"
        },
        {
          "internalType": "uint8",
          "name": "_priceType",
          "type": "uint8"
        },
        {
          "internalType": "uint8",
          "name": "_royaltyPercentage",
          "type": "uint8"
        },
        {
          "internalType": "uint256",
          "name": "_tokenId",
          "type": "uint256"
        }
      ],
      "name": "addNewTokenWithId",
      "outputs": [],
      "stateMutability": "nonpayable",
      "type": "function"
    },
    {
      "inputs": [
        {
          "internalType": "uint256",
          "name": "_tokenAmount",
          "type": "uint256"
        },
        {
          "internalType": "bool",
          "name": "_isForSale",
          "type": "bool"
        },
        {
          "internalType": "uint256",
          "name": "_price",
          "type": "uint256"
        },
        {
          "internalType": "uint8",
          "name": "_priceType",
          "type": "uint8"
        },
        {
          "internalType": "uint8",
          "name": "_royaltyPercentage",
          "type": "uint8"
        },
        {
          "internalType": "uint256",
          "name": "_startTime",
          "type": "uint256"
        },
        {
          "internalType": "uint256",
          "name": "_endTime",
          "type": "uint256"
        }
      ],
      "name": "addNewTokenAndSetThePrice",
      "outputs": [],
      "stateMutability": "nonpayable",
      "type": "function"
    },
    {
      "inputs": [
        {
          "internalType": "uint256",
          "name": "_tokenAmount",
          "type": "uint256"
        },
        {
          "internalType": "bool",
          "name": "_isForSale",
          "type": "bool"
        },
        {
          "internalType": "uint256",
          "name": "_price",
          "type": "uint256"
        },
        {
          "internalType": "uint8",
          "name": "_priceType",
          "type": "uint8"
        },
        {
          "internalType": "uint8",
          "name": "_royaltyPercentage",
          "type": "uint8"
        },
        {
          "internalType": "uint256",
          "name": "_startTime",
          "type": "uint256"
        },
        {
          "internalType": "uint256",
          "name": "_endTime",
          "type": "uint256"
        },
        {
          "internalType": "uint256",
          "name": "_tokenId",
          "type": "uint256"
        }
      ],
      "name": "addNewTokenAndSetThePriceWithId",
      "outputs": [],
      "stateMutability": "nonpayable",
      "type": "function"
    },
    {
      "inputs": [
        {
          "internalType": "uint256",
          "name": "_tokenId",
          "type": "uint256"
        },
        {
          "internalType": "uint256",
          "name": "_amount",
          "type": "uint256"
        }
      ],
      "name": "deleteToken",
      "outputs": [],
      "stateMutability": "nonpayable",
      "type": "function"
    },
    {
      "inputs": [
        {
          "internalType": "string",
          "name": "_uri",
          "type": "string"
        }
      ],
      "name": "setURI",
      "outputs": [],
      "stateMutability": "nonpayable",
      "type": "function"
    },
    {
      "inputs": [
        {
          "internalType": "address",
          "name": "from",
          "type": "address"
        },
        {
          "internalType": "address",
          "name": "to",
          "type": "address"
        },
        {
          "internalType": "uint256",
          "name": "id",
          "type": "uint256"
        },
        {
          "internalType": "uint256",
          "name": "amount",
          "type": "uint256"
        },
        {
          "internalType": "bytes",
          "name": "data",
          "type": "bytes"
        }
      ],
      "name": "safeTransferFrom",
      "outputs": [],
      "stateMutability": "nonpayable",
      "type": "function"
    },
    {
      "inputs": [],
      "name": "getLastTokenId",
      "outputs": [
        {
          "internalType": "uint256",
          "name": "",
          "type": "uint256"
        }
      ],
      "stateMutability": "view",
      "type": "function"
    },
    {
      "inputs": [],
      "name": "getTokenIdAvailable",
      "outputs": [
        {
          "internalType": "uint256",
          "name": "",
          "type": "uint256"
        }
      ],
      "stateMutability": "view",
      "type": "function"
    }
  ],
  "bytecode": "0x60806040523480156200001157600080fd5b506040516200534a3803806200534a8339810160408190526200003491620002ae565b80620000697f01ffc9a70000000000000000000000000000000000000000000000000000000064010000000062000150810204565b6200007d81640100000000620001f5810204565b620000b17fd9b67a260000000000000000000000000000000000000000000000000000000064010000000062000150810204565b620000e57f0e89341c0000000000000000000000000000000000000000000000000000000064010000000062000150810204565b506000620000fb6401000000006200020e810204565b60048054600160a060020a031916600160a060020a038316908117909155604051919250906000907f8be0079c531659141344cd1fd0a4f28419497f9722a3daafe3b4186f6b6457e0908290a35050620003bb565b7fffffffff000000000000000000000000000000000000000000000000000000008082161415620001b8576040517f08c379a0000000000000000000000000000000000000000000000000000000008152600401620001af9062000351565b60405180910390fd5b7fffffffff00000000000000000000000000000000000000000000000000000000166000908152602081905260409020805460ff19166001179055565b80516200020a90600390602084019062000212565b5050565b3390565b828054600181600116156101000203166002900490600052602060002090601f016020900481019282601f106200025557805160ff191683800117855562000285565b8280016001018555821562000285579182015b828111156200028557825182559160200191906001019062000268565b506200029392915062000297565b5090565b5b8082111562000293576000815560010162000298565b600060208284031215620002c0578081fd5b815167ffffffffffffffff80821115620002d8578283fd5b818401915084601f830112620002ec578283fd5b815181811115620002fb578384fd5b604051601f8201601f1916810160200183811182821017156200031c578586fd5b60405281815283820160200187101562000334578485fd5b6200034782602083016020870162000388565b9695505050505050565b6020808252601c908201527f4552433136353a20696e76616c696420696e7465726661636520696400000000604082015260600190565b60005b83811015620003a55781810151838201526020016200038b565b83811115620003b5576000848401525b50505050565b614f7f80620003cb6000396000f3fe608060405234801561001057600080fd5b50600436106102985760003560e060020a900480639b2b0a3d1161016b578063cd89c0e2116100d2578063ee4525d51161008b578063ee4525d514610608578063f242432a1461061b578063f2fde38b1461062e578063f30824f314610641578063f60e597114610654578063f83fcdea1461066757610298565b8063cd89c0e214610588578063d58778d61461059b578063d5da8d44146105ae578063d63d4af0146105c1578063d6e1f4b2146105e2578063e985e9c5146105f557610298565b8063b357ae5111610124578063b357ae511461051b578063b8ae4e271461052e578063c2507ac114610541578063c5ea3c6514610554578063cc33c8751461055c578063cc8c3c451461058057610298565b80639b2b0a3d146104995780639fc968de146104ba578063a12c907e146104da578063a22cb465146104ed578063adb4f2c014610500578063ae2f9ead1461051357610298565b80632eb2c2d61161020f57806384ec6db6116101c857806384ec6db61461041657806387430bf1146104295780638da5cb5b1461044b57806396457ba914610460578063974e8d381461047357806397ec23cb1461048657610298565b80632eb2c2d6146103ba5780633e8171d9146103cd5780634e1273f4146103e0578063715018a6146103f35780637cefb7e4146103fb57806383c4c00d1461040e57610298565b80631857aca0116102615780631857aca01461032e5780631b65e4e21461034e5780631d4ce5001461036157806320918bb1146103815780632175394d146103945780632223146d146103a757610298565b8062fdd58e1461029d57806301ffc9a7146102c657806302fe5305146102e65780630e89341c146102fb57806314ff5ea31461031b575b600080fd5b6102b06102ab366004613c06565b61067a565b6040516102bd9190614cf3565b60405180910390f35b6102d96102d4366004613e7e565b6106d6565b6040516102bd919061459b565b6102f96102f4366004613eb6565b6106f5565b005b61030e610309366004613ef1565b610770565b6040516102bd91906145b9565b6102b0610329366004613ef1565b610808565b61034161033c366004613f21565b610829565b6040516102bd919061455a565b6102f961035c366004613f21565b6108a0565b61037461036f366004613ef1565b610914565b6040516102bd9190614dac565b6102f961038f3660046140b1565b61092c565b6102f96103a236600461410b565b610981565b6102f96103b5366004614180565b6109f9565b6102f96103c8366004613ac8565b610a60565b6102f96103db366004613e61565b610c83565b6103416103ee366004613cfe565b610ce1565b6102f9610e27565b6102f9610409366004613ff3565b610ea9565b6102b0610f0e565b6102f9610424366004613f83565b610f35565b61043c61043736600461410b565b610f5b565b6040516102bd93929190614535565b6104536110df565b6040516102bd9190614375565b6102d961046e366004613f21565b6110ee565b6102f961048136600461410b565b611119565b6102b0610494366004613ef1565b61126c565b6104ac6104a7366004613f21565b611281565b6040516102bd9291906145a6565b6104cd6104c8366004613f21565b6112aa565b6040516102bd9190614458565b6102f96104e8366004613a6d565b61132a565b6102f96104fb366004613bd9565b6113b2565b6102f961050e36600461406a565b611483565b6102b06114d6565b6102d9610529366004613ef1565b611511565b6102f961053c366004613c31565b611526565b6102b061054f366004613ef1565b611f8d565b6102b0611fa2565b61056f61056a366004613ef1565b611fa8565b6040516102bd959493929190614d13565b6102b0611fe4565b6102f9610596366004613f45565b611fea565b6102b06105a9366004613ef1565b612078565b6104536105bc366004613ef1565b612096565b6105d46105cf3660046139fd565b6120b4565b6040516102bd92919061446b565b6103746105f0366004613f21565b612548565b6102d9610603366004613a35565b612578565b6104cd610616366004613ef1565b6125a6565b6102f9610629366004613b72565b612614565b6102f961063c3660046139fd565b61272a565b6102f961064f36600461419d565b6127e7565b610341610662366004613f21565b61298e565b6102f961067536600461412c565b612a03565b6000600160a060020a0383166106ae5760405160e560020a62461bcd0281526004016106a590614686565b60405180910390fd5b506000908152600160209081526040808320600160a060020a03949094168352929052205490565b600160e060020a03191660009081526020819052604090205460ff1690565b6106fd612a68565b600454600160a060020a0390811691161461072d5760405160e560020a62461bcd0281526004016106a590614a24565b61073681612a6c565b7f562bf0237fa5139edc73ec903039c3a552e19ae62cc8292da62afeea43024b0a8160405161076591906145b9565b60405180910390a150565b60038054604080516020601f60026000196101006001881615020190951694909404938401819004810282018101909252828152606093909290918301828280156107fc5780601f106107d1576101008083540402835291602001916107fc565b820191906000526020600020905b8154815290600101906020018083116107df57829003601f168201915b50505050509050919050565b6000600c828154811061081757fe5b90600052602060002001549050919050565b6000828152600a60209081526040808320600160a060020a038516845282529182902060010180548351818402810184019094528084526060939283018282801561089357602002820191906000526020600020905b81548152602001906001019080831161087f575b5050505050905092915050565b60006108ac338461067a565b905060008111806108c75750600554600160a060020a031633145b6108e65760405160e560020a62461bcd0281526004016106a590614a59565b506000918252600a60209081526040808420600160a060020a0390931684529190529020805460ff19169055565b60009081526009602052604090206004015460ff1690565b600061093e3387876000888888612a83565b90507ffd699276e7e1c4880488b6dd7700bff6486187ff3990c14c27c658ed87d3a9dd3382604051610971929190614389565b60405180910390a1505050505050565b6000818152600960205260409020600101548190600160a060020a03163381146109c05760405160e560020a62461bcd0281526004016106a590614ab6565b6000838152600960209081526040808320600201805488019055805191820190529081526109f390339085908790612fd0565b50505050565b806000610a06338361067a565b905060008111610a2b5760405160e560020a62461bcd0281526004016106a5906147d4565b50506000908152600a602090815260408083203384529091529020805460ff9092166101000261ff0019909216919091179055565b8151835114610a845760405160e560020a62461bcd0281526004016106a590614c39565b600160a060020a038416610aad5760405160e560020a62461bcd0281526004016106a59061490d565b610ab5612a68565b600160a060020a031685600160a060020a03161480610adb5750610adb85610603612a68565b610afa5760405160e560020a62461bcd0281526004016106a59061496a565b6000610b04612a68565b9050610b14818787878787610c7b565b60005b8451811015610c15576000858281518110610b2e57fe5b602002602001015190506000858381518110610b4657fe5b60200260200101519050610bb3816040518060600160405280602a8152602001614f20602a91396001600086815260200190815260200160002060008d600160a060020a0316600160a060020a03168152602001908152602001600020546130c69092919063ffffffff16565b6000838152600160209081526040808320600160a060020a038e811685529252808320939093558a1681522054610bea90826130f5565b6000928352600160208181526040808620600160a060020a038d168752909152909320555001610b17565b5084600160a060020a031686600160a060020a031682600160a060020a03167f4a39dc06d4c0dbc64b70af90fd698a233a518aa5d07e595d983b8c0526c8f7fb8787604051610c6592919061456d565b60405180910390a4610c7b818787878787613124565b505050505050565b806000610c90338361067a565b905060008111610cb55760405160e560020a62461bcd0281526004016106a5906147d4565b50506000908152600a602090815260408083203384529091529020805460ff1916911515919091179055565b60608151835114610d075760405160e560020a62461bcd0281526004016106a590614bdc565b6060835167ffffffffffffffff81118015610d2157600080fd5b50604051908082528060200260200182016040528015610d4b578160200160208202803683370190505b50905060005b8451811015610e1f576000600160a060020a0316858281518110610d7157fe5b6020026020010151600160a060020a03161415610da35760405160e560020a62461bcd0281526004016106a5906146e3565b60016000858381518110610db357fe5b602002602001015181526020019081526020016000206000868381518110610dd757fe5b6020026020010151600160a060020a0316600160a060020a0316815260200190815260200160002054828281518110610e0c57fe5b6020908102919091010152600101610d51565b509392505050565b610e2f612a68565b600454600160a060020a03908116911614610e5f5760405160e560020a62461bcd0281526004016106a590614a24565b600454604051600091600160a060020a0316907f8be0079c531659141344cd1fd0a4f28419497f9722a3daafe3b4186f6b6457e0908390a360048054600160a060020a0319169055565b6000610eba338a8a8a8a8a88612a83565b9050610eca8688868685336127e7565b7ffd699276e7e1c4880488b6dd7700bff6486187ff3990c14c27c658ed87d3a9dd3382604051610efb929190614389565b60405180910390a1505050505050505050565b600c8054600091906000198101908110610f2457fe5b906000526020600020015490505b90565b6000610f3f6114d6565b9050610f518888888888888888610ea9565b5050505050505050565b600c54606090600090819084610f7057600194505b858103851115610f805785810394505b60608567ffffffffffffffff81118015610f9957600080fd5b50604051908082528060200260200182016040528015610fd357816020015b610fc0613763565b815260200190600190039081610fb85790505b50905060005b868110156110d2576000600c828a0181548110610ff257fe5b600091825260208083209091015480835260098252604092839020835160c081018552815481526001820154600160a060020a0316818501526002820154818601526003820180548651818702810187019097528087529396509094919360608601939083018282801561108f57602002820191906000526020600020905b8154600160a060020a03168152600190910190602001808311611071575b5050509183525050600482015460ff16602082015260059091015460409091015283518490849081106110be57fe5b602090810291909101015250600101610fd9565b5096959094019492505050565b600454600160a060020a031690565b6000918252600a60209081526040808420600160a060020a0393909316845291905290205460ff1690565b816000611126338361067a565b90506000811161114b5760405160e560020a62461bcd0281526004016106a5906147d4565b6005546040517f4637c4ed000000000000000000000000000000000000000000000000000000008152600091600160a060020a031690634637c4ed906111979088903390600401614cfc565b60206040518083038186803b1580156111af57600080fd5b505afa1580156111c3573d6000803e3d6000fd5b505050506040513d601f19601f820116820180604052508101906111e79190613e45565b905060006111f5338761067a565b90506001821515141561122e57600061120e8287613276565b1161122e5760405160e560020a62461bcd0281526004016106a5906148d6565b6112393387876132b8565b7f3c4b1dbc0ea6d3fb1181d2239a7ff737415541752716c27bdfb3c402b607b209338787604051610971939291906143a2565b60009081526009602052604090206005015490565b600a60209081526000928352604080842090915290825290205460ff8082169161010090041682565b6000828152600a60209081526040808320600160a060020a038516845282529182902060030180548351818402810184019094528084526060939283018282801561089357602002820191906000526020600020905b8154600160a060020a03168152600190910190602001808311611300575050505050905092915050565b611332612a68565b600454600160a060020a039081169116146113625760405160e560020a62461bcd0281526004016106a590614a24565b60058054600160a060020a03958616600160a060020a0319918216179091556006805494861694821694909417909355600880549285169284169290921790915560078054919093169116179055565b81600160a060020a03166113c4612a68565b600160a060020a031614156113ee5760405160e560020a62461bcd0281526004016106a590614b7f565b80600260006113fb612a68565b600160a060020a03908116825260208083019390935260409182016000908120918716808252919093529120805460ff19169215159290921790915561143f612a68565b600160a060020a03167f17307eab39ab6107e8899845ad3d59bd9653f200f220920489ca2b5937696c3183604051611477919061459b565b60405180910390a35050565b6000611494338686600087876133d1565b90507ffd699276e7e1c4880488b6dd7700bff6486187ff3990c14c27c658ed87d3a9dd33826040516114c7929190614389565b60405180910390a15050505050565b6000805b600d54811015611509576000818152600b602052604090205460ff16611501579050610f32565b6001016114da565b5050600c5490565b600b6020526000908152604090205460ff1681565b61152e612a68565b600454600160a060020a0390811691161461155e5760405160e560020a62461bcd0281526004016106a590614a24565b6000839050600081600160a060020a031663cc8c3c456040518163ffffffff1660e060020a02815260040160206040518083038186803b1580156115a157600080fd5b505afa1580156115b5573d6000803e3d6000fd5b505050506040513d601f19601f820116820180604052508101906115d99190613f09565b90508084106115fd5760405160e560020a62461bcd0281526004016106a59061489f565b808311156116205760405160e560020a62461bcd0281526004016106a590614868565b835b83811015611f0e576040517f14ff5ea3000000000000000000000000000000000000000000000000000000008152600090600160a060020a038516906314ff5ea390611672908590600401614cf3565b60206040518083038186803b15801561168a57600080fd5b505afa15801561169e573d6000803e3d6000fd5b505050506040513d601f19601f820116820180604052508101906116c29190613f09565b600c80546001810182556000919091527fdf6966c971051c3d54ec59162606531493a51404a002842f56009d7e5cf4a8c7018190556040805160c08101825282815290517fd5da8d44000000000000000000000000000000000000000000000000000000008152919250906020820190600160a060020a0387169063d5da8d4490611751908690600401614cf3565b60206040518083038186803b15801561176957600080fd5b505afa15801561177d573d6000803e3d6000fd5b505050506040513d601f19601f820116820180604052508101906117a19190613a19565b600160a060020a0316815260200185600160a060020a031663c2507ac1846040518263ffffffff1660e060020a0281526004016117de9190614cf3565b60206040518083038186803b1580156117f657600080fd5b505afa15801561180a573d6000803e3d6000fd5b505050506040513d601f19601f8201168201806040525081019061182e9190613f09565b815260200185600160a060020a031663ee4525d5846040518263ffffffff1660e060020a0281526004016118629190614cf3565b60006040518083038186803b15801561187a57600080fd5b505afa15801561188e573d6000803e3d6000fd5b505050506040513d6000823e601f3d908101601f191682016040526118b69190810190613c65565b815260200185600160a060020a0316631d4ce500846040518263ffffffff1660e060020a0281526004016118ea9190614cf3565b60206040518083038186803b15801561190257600080fd5b505afa158015611916573d6000803e3d6000fd5b505050506040513d601f19601f8201168201806040525081019061193a9190614164565b60ff16815260200185600160a060020a03166397ec23cb846040518263ffffffff1660e060020a0281526004016119719190614cf3565b60206040518083038186803b15801561198957600080fd5b505afa15801561199d573d6000803e3d6000fd5b505050506040513d601f19601f820116820180604052508101906119c19190613f09565b90526000828152600960209081526040918290208351815583820151600182018054600160a060020a031916600160a060020a0390921691909117905591830151600283015560608301518051611a1e92600385019201906137a5565b50608082015160048201805460ff191660ff90921691909117905560a090910151600590910155600081815260096020908152604091829020600301805483518184028101840190945280845260609392830182828015611aa857602002820191906000526020600020905b8154600160a060020a03168152600190910190602001808311611a8a575b5050505050905060005b8151811015611eea576000828281518110611ac957fe5b602002602001015190506040518060a0016040528088600160a060020a03166396457ba987856040518363ffffffff1660e060020a028152600401611b0f929190614cfc565b60206040518083038186803b158015611b2757600080fd5b505afa158015611b3b573d6000803e3d6000fd5b505050506040513d601f19601f82011682018060405250810190611b5f9190613e45565b1515815260200188600160a060020a031663d6e1f4b287856040518363ffffffff1660e060020a028152600401611b97929190614cfc565b60206040518083038186803b158015611baf57600080fd5b505afa158015611bc3573d6000803e3d6000fd5b505050506040513d601f19601f82011682018060405250810190611be79190614164565b60ff16815260200188600160a060020a0316631857aca087856040518363ffffffff1660e060020a028152600401611c20929190614cfc565b60006040518083038186803b158015611c3857600080fd5b505afa158015611c4c573d6000803e3d6000fd5b505050506040513d6000823e601f3d908101601f19168201604052611c749190810190613dc1565b815260200188600160a060020a031663f60e597187856040518363ffffffff1660e060020a028152600401611caa929190614cfc565b60006040518083038186803b158015611cc257600080fd5b505afa158015611cd6573d6000803e3d6000fd5b505050506040513d6000823e601f3d908101601f19168201604052611cfe9190810190613dc1565b815260200188600160a060020a0316639fc968de87856040518363ffffffff1660e060020a028152600401611d34929190614cfc565b60006040518083038186803b158015611d4c57600080fd5b505afa158015611d60573d6000803e3d6000fd5b505050506040513d6000823e601f3d908101601f19168201604052611d889190810190613c65565b90526000858152600a60209081526040808320600160a060020a0386168452825291829020835181548584015160ff166101000261ff001992151560ff199092169190911791909116178155918301518051611dea926001850192019061380a565b5060608201518051611e0691600284019160209091019061380a565b5060808201518051611e229160038401916020909101906137a5565b50506040517efdd58e00000000000000000000000000000000000000000000000000000000815260009150600160a060020a0389169062fdd58e90611e6d9085908990600401614389565b60206040518083038186803b158015611e8557600080fd5b505afa158015611e99573d6000803e3d6000fd5b505050506040513d601f19601f82011682018060405250810190611ebd9190613f09565b90508015611ee057611ee082868360405180602001604052806000815250612fd0565b5050600101611ab2565b50506000908152600b60205260409020805460ff1916600190811790915501611622565b5081600160a060020a031663c5ea3c656040518163ffffffff1660e060020a02815260040160206040518083038186803b158015611f4b57600080fd5b505afa158015611f5f573d6000803e3d6000fd5b505050506040513d601f19601f82011682018060405250810190611f839190613f09565b600d555050505050565b60009081526009602052604090206002015490565b600d5481565b600960205260009081526040902080546001820154600283015460048401546005909401549293600160a060020a0390921692909160ff169085565b600c5490565b600554600160a060020a031633146120175760405160e560020a62461bcd0281526004016106a590614aeb565b6000918252600a60209081526040808420600160a060020a039384168552825283206002810180546001808201835591865283862001969096556003018054958601815583529091209092018054600160a060020a03191691909216179055565b600c818154811061208557fe5b600091825260209091200154905081565b600090815260096020526040902060010154600160a060020a031690565b6060806000805b600c548110156121e8576120cd613763565b60096000600c84815481106120de57fe5b600091825260208083209091015483528281019390935260409182019020815160c081018352815481526001820154600160a060020a03168185015260028201548184015260038201805484518187028101870190955280855291949293606086019390929083018282801561217d57602002820191906000526020600020905b8154600160a060020a0316815260019091019060200180831161215f575b5050509183525050600482015460ff16602082015260059091015460409091015260608101518051919250600160a060020a0388169160001981019081106121c157fe5b6020026020010151600160a060020a031614156121df576001909201915b506001016120bb565b5060608167ffffffffffffffff8111801561220257600080fd5b5060405190808252806020026020018201604052801561223c57816020015b612229613763565b8152602001906001900390816122215790505b50905060608267ffffffffffffffff8111801561225857600080fd5b5060405190808252806020026020018201604052801561229257816020015b61227f613851565b8152602001906001900390816122775790505b50905060005b600c5481101561253c576000600c82815481106122b157fe5b906000526020600020015490506122c6613763565b600082815260096020908152604091829020825160c081018452815481526001820154600160a060020a031681840152600282015481850152600382018054855181860281018601909652808652919492936060860193929083018282801561235857602002820191906000526020600020905b8154600160a060020a0316815260019091019060200180831161233a575b5050509183525050600482015460ff16602082015260059091015460409091015260608101518051919250600160a060020a038b1691600019810190811061239c57fe5b6020026020010151600160a060020a0316141561253257808584815181106123c057fe5b6020908102919091018101919091526000838152600a82526040808220600160a060020a038d168352835290819020815160a081018352815460ff80821615158352610100909104168185015260018201805484518187028101870186528181529295939486019383018282801561245757602002820191906000526020600020905b815481526020019060010190808311612443575b50505050508152602001600282018054806020026020016040519081016040528092919081815260200182805480156124af57602002820191906000526020600020905b81548152602001906001019080831161249b575b505050505081526020016003820180548060200260200160405190810160405280929190818152602001828054801561251157602002820191906000526020600020905b8154600160a060020a031681526001909101906020018083116124f3575b50505050508152505084848151811061252657fe5b60200260200101819052505b5050600101612298565b50909350915050915091565b6000918252600a60209081526040808420600160a060020a03939093168452919052902054610100900460ff1690565b600160a060020a03918216600090815260026020908152604080832093909416825291909152205460ff1690565b6000818152600960209081526040918290206003018054835181840281018401909452808452606093928301828280156107fc57602002820191906000526020600020905b8154600160a060020a031681526001909101906020018083116125eb5750505050509050919050565b600554600160a060020a0316331461270c576005546040517f4637c4ed000000000000000000000000000000000000000000000000000000008152600091600160a060020a031690634637c4ed906126729087908a90600401614cfc565b60206040518083038186803b15801561268a57600080fd5b505afa15801561269e573d6000803e3d6000fd5b505050506040513d601f19601f820116820180604052508101906126c29190613e45565b905060006126d0878661067a565b9050600182151514156127095760006126e98286613276565b116127095760405160e560020a62461bcd0281526004016106a5906148d6565b50505b61271985858585856133f9565b6127238385613584565b5050505050565b612732612a68565b600454600160a060020a039081169116146127625760405160e560020a62461bcd0281526004016106a590614a24565b600160a060020a03811661278b5760405160e560020a62461bcd0281526004016106a590614740565b600454604051600160a060020a038084169216907f8be0079c531659141344cd1fd0a4f28419497f9722a3daafe3b4186f6b6457e090600090a360048054600160a060020a031916600160a060020a0392909216919091179055565b8160006127f4338361067a565b9050600081116128195760405160e560020a62461bcd0281526004016106a5906147d4565b60ff88166128a1576005546040517ff14a5cc3000000000000000000000000000000000000000000000000000000008152600160a060020a039091169063f14a5cc39061286e9087908b908890600401614d50565b600060405180830381600087803b15801561288857600080fd5b505af115801561289c573d6000803e3d6000fd5b505050505b8760ff16600114806128b657508760ff166002145b1561293f576005546040517f67404cde000000000000000000000000000000000000000000000000000000008152600160a060020a03909116906367404cde9061290c908a908a908a9089908b90600401614d6f565b600060405180830381600087803b15801561292657600080fd5b505af115801561293a573d6000803e3d6000fd5b505050505b50506000918252600a60209081526040808420600160a060020a0393909316845291905290208054600160ff199091161761ff00191661010060ff969096169590950294909417909355505050565b6000828152600a60209081526040808320600160a060020a0385168452825291829020600201805483518184028101840190945280845260609392830182828015610893576020028201919060005260206000209081548152602001906001019080831161087f575050505050905092915050565b600554600160a060020a03163314612a305760405160e560020a62461bcd0281526004016106a590614aeb565b6000918252600a60209081526040808420600160a060020a039093168452918152908220600190810180549182018155835291200155565b3390565b8051612a7f906003906020840190613885565b5050565b6000818152600b602052604081205460ff1615612ab55760405160e560020a62461bcd0281526004016106a590614b48565b6000828152600b60205260408120805460ff19166001908117909155600c805491820181559091527fdf6966c971051c3d54ec59162606531493a51404a002842f56009d7e5cf4a8c701829055600d548210612b115781612b15565b600d545b600d81905550612b3688838960405180602001604052806000815250612fd0565b600654604080517f834759210000000000000000000000000000000000000000000000000000000081529051600092600160a060020a0316916383475921916004808301926020929190829003018186803b158015612b9457600080fd5b505afa158015612ba8573d6000803e3d6000fd5b505050506040513d601f19601f82011682018060405250810190612bcc9190614164565b6040805160c081018252858152600160a060020a038c1660208201529081018a9052909150606081016000604051908082528060200260200182016040528015612c20578160200160208202803683370190505b50815260ff8316602080830191909152426040928301526000868152600982528290208351815583820151600182018054600160a060020a031916600160a060020a0390921691909117905591830151600283015560608301518051612c8c92600385019201906137a5565b5060808201518160040160006101000a81548160ff021916908360ff16021790555060a0820151816005015590505060096000848152602001908152602001600020600301899080600181540180825580915050600190039060005260206000200160009091909190916101000a815481600160a060020a030219169083600160a060020a031602179055506040518060a0016040528088151581526020018660ff168152602001600067ffffffffffffffff81118015612d4c57600080fd5b50604051908082528060200260200182016040528015612d76578160200160208202803683370190505b5081526020016000604051908082528060200260200182016040528015612da7578160200160208202803683370190505b5081526020016000604051908082528060200260200182016040528015612dd8578160200160208202803683370190505b5090526000848152600a60209081526040808320600160a060020a038e168452825291829020835181548584015160ff166101000261ff001992151560ff199092169190911791909116178155918301518051612e3b926001850192019061380a565b5060608201518051612e5791600284019160209091019061380a565b5060808201518051612e739160038401916020909101906137a5565b5050506000838152600a60209081526040808320600160a060020a03808e16855290835281842060019081018054918201815585529290932090910188905560075490517f318856f200000000000000000000000000000000000000000000000000000000815291169063318856f290612ef39086908890600401614d9b565b602060405180830381600087803b158015612f0d57600080fd5b505af1158015612f21573d6000803e3d6000fd5b505050506040513d601f19601f82011682018060405250810190612f459190614164565b506008546040517ff0b614ae000000000000000000000000000000000000000000000000000000008152600160a060020a039091169063f0b614ae90612f919086903390600401614cfc565b600060405180830381600087803b158015612fab57600080fd5b505af1158015612fbf573d6000803e3d6000fd5b50949b9a5050505050505050505050565b600160a060020a038416612ff95760405160e560020a62461bcd0281526004016106a590614c96565b6000613003612a68565b90506130248160008761301588613613565b61301e88613613565b87610c7b565b6000848152600160209081526040808320600160a060020a038916845290915290205461305190846130f5565b6000858152600160209081526040808320600160a060020a03808b16808652919093528184209490945551908416907fc3d58168c5ae7397731d063d5bbf3d657854427343f4c083240f7aacaa2d0f62906130af9089908990614d42565b60405180910390a461272381600087878787613657565b600081848411156130ed5760405160e560020a62461bcd0281526004016106a591906145b9565b505050900390565b60008282018381101561311d5760405160e560020a62461bcd0281526004016106a59061479d565b9392505050565b61313684600160a060020a031661375d565b15610c7b576040517fbc197c81000000000000000000000000000000000000000000000000000000008152600160a060020a0385169063bc197c819061318890899089908890889088906004016143c3565b602060405180830381600087803b1580156131a257600080fd5b505af19250505080156131d2575060408051601f3d908101601f191682019092526131cf91810190613e9a565b60015b613221576131de614e0b565b806131e95750613206565b8060405160e560020a62461bcd0281526004016106a591906145b9565b60405160e560020a62461bcd0281526004016106a5906145cc565b600160e060020a031981167fbc197c81000000000000000000000000000000000000000000000000000000001461326d5760405160e560020a62461bcd0281526004016106a590614629565b50505050505050565b600061311d83836040518060400160405280601e81526020017f536166654d6174683a207375627472616374696f6e206f766572666c6f7700008152506130c6565b600160a060020a0383166132e15760405160e560020a62461bcd0281526004016106a5906149c7565b60006132eb612a68565b905061331b818560006132fd87613613565b61330687613613565b60405180602001604052806000815250610c7b565b61336282604051806060016040528060248152602001614efc602491396000868152600160209081526040808320600160a060020a038b16845290915290205491906130c6565b6000848152600160209081526040808320600160a060020a03808a16808652919093528184209490945551919291908416907fc3d58168c5ae7397731d063d5bbf3d657854427343f4c083240f7aacaa2d0f62906133c39088908890614d42565b60405180910390a450505050565b6000806133dc6114d6565b90506133ed88888888888887612a83565b98975050505050505050565b600160a060020a0384166134225760405160e560020a62461bcd0281526004016106a59061490d565b61342a612a68565b600160a060020a031685600160a060020a03161480613450575061345085610603612a68565b61346f5760405160e560020a62461bcd0281526004016106a59061480b565b6000613479612a68565b905061348a81878761301588613613565b6134d1836040518060600160405280602a8152602001614f20602a91396000878152600160209081526040808320600160a060020a038d16845290915290205491906130c6565b6000858152600160209081526040808320600160a060020a038b8116855292528083209390935587168152205461350890846130f5565b6000858152600160209081526040808320600160a060020a03808b168086529190935292819020939093559151909188811691908416907fc3d58168c5ae7397731d063d5bbf3d657854427343f4c083240f7aacaa2d0f629061356e9089908990614d42565b60405180910390a4610c7b818787878787613657565b6000828152600960205260408120600301905b81548110156135e05782600160a060020a03168282815481106135b657fe5b600091825260209091200154600160a060020a031614156135d8575050612a7f565b600101613597565b50805460018101825560009182526020909120018054600160a060020a038316600160a060020a03199091161790555050565b60408051600180825281830190925260609182919060208083019080368337019050509050828160008151811061364657fe5b602090810291909101015292915050565b61366984600160a060020a031661375d565b15610c7b576040517ff23a6e61000000000000000000000000000000000000000000000000000000008152600160a060020a0385169063f23a6e61906136bb9089908990889088908890600401614415565b602060405180830381600087803b1580156136d557600080fd5b505af1925050508015613705575060408051601f3d908101601f1916820190925261370291810190613e9a565b60015b613711576131de614e0b565b600160e060020a031981167ff23a6e61000000000000000000000000000000000000000000000000000000001461326d5760405160e560020a62461bcd0281526004016106a590614629565b3b151590565b6040518060c00160405280600081526020016000600160a060020a031681526020016000815260200160608152602001600060ff168152602001600081525090565b8280548282559060005260206000209081019282156137fa579160200282015b828111156137fa5782518254600160a060020a031916600160a060020a039091161782556020909201916001909101906137c5565b506138069291506138f2565b5090565b828054828255906000526020600020908101928215613845579160200282015b8281111561384557825182559160200191906001019061382a565b50613806929150613911565b6040518060a00160405280600015158152602001600060ff1681526020016060815260200160608152602001606081525090565b828054600181600116156101000203166002900490600052602060002090601f016020900481019282601f106138c657805160ff1916838001178555613845565b82800160010185558215613845579182018281111561384557825182559160200191906001019061382a565b5b80821115613806578054600160a060020a03191681556001016138f3565b5b808211156138065760008155600101613912565b600082601f830112613936578081fd5b813561394961394482614de1565b614dba565b81815291506020808301908481018184028601820187101561396a57600080fd5b60005b848110156139895781358452928201929082019060010161396d565b505050505092915050565b600082601f8301126139a4578081fd5b813567ffffffffffffffff8111156139ba578182fd5b6139cd601f8201601f1916602001614dba565b91508082528360208285010111156139e457600080fd5b8060208401602084013760009082016020015292915050565b600060208284031215613a0e578081fd5b813561311d81614eb0565b600060208284031215613a2a578081fd5b815161311d81614eb0565b60008060408385031215613a47578081fd5b8235613a5281614eb0565b91506020830135613a6281614eb0565b809150509250929050565b60008060008060808587031215613a82578182fd5b8435613a8d81614eb0565b93506020850135613a9d81614eb0565b92506040850135613aad81614eb0565b91506060850135613abd81614eb0565b939692955090935050565b600080600080600060a08688031215613adf578081fd5b8535613aea81614eb0565b94506020860135613afa81614eb0565b9350604086013567ffffffffffffffff80821115613b16578283fd5b613b2289838a01613926565b94506060880135915080821115613b37578283fd5b613b4389838a01613926565b93506080880135915080821115613b58578283fd5b50613b6588828901613994565b9150509295509295909350565b600080600080600060a08688031215613b89578283fd5b8535613b9481614eb0565b94506020860135613ba481614eb0565b93506040860135925060608601359150608086013567ffffffffffffffff811115613bcd578182fd5b613b6588828901613994565b60008060408385031215613beb578182fd5b8235613bf681614eb0565b91506020830135613a6281614ec8565b60008060408385031215613c18578182fd5b8235613c2381614eb0565b946020939093013593505050565b600080600060608486031215613c45578081fd5b8335613c5081614eb0565b95602085013595506040909401359392505050565b60006020808385031215613c77578182fd5b825167ffffffffffffffff811115613c8d578283fd5b8301601f81018513613c9d578283fd5b8051613cab61394482614de1565b8181528381019083850185840285018601891015613cc7578687fd5b8694505b83851015613cf2578051613cde81614eb0565b835260019490940193918501918501613ccb565b50979650505050505050565b60008060408385031215613d10578182fd5b823567ffffffffffffffff80821115613d27578384fd5b818501915085601f830112613d3a578384fd5b8135613d4861394482614de1565b80828252602080830192508086018a828387028901011115613d68578889fd5b8896505b84871015613d93578035613d7f81614eb0565b845260019690960195928101928101613d6c565b509096508701359350505080821115613daa578283fd5b50613db785828601613926565b9150509250929050565b60006020808385031215613dd3578182fd5b825167ffffffffffffffff811115613de9578283fd5b8301601f81018513613df9578283fd5b8051613e0761394482614de1565b8181528381019083850185840285018601891015613e23578687fd5b8694505b83851015613cf2578051835260019490940193918501918501613e27565b600060208284031215613e56578081fd5b815161311d81614ec8565b60008060408385031215613e73578182fd5b8235613c2381614ec8565b600060208284031215613e8f578081fd5b813561311d81614ed6565b600060208284031215613eab578081fd5b815161311d81614ed6565b600060208284031215613ec7578081fd5b813567ffffffffffffffff811115613edd578182fd5b613ee984828501613994565b949350505050565b600060208284031215613f02578081fd5b5035919050565b600060208284031215613f1a578081fd5b5051919050565b60008060408385031215613f33578182fd5b823591506020830135613a6281614eb0565b60008060008060808587031215613f5a578182fd5b843593506020850135613f6c81614eb0565b9250604085013591506060850135613abd81614eb0565b600080600080600080600060e0888a031215613f9d578485fd5b873596506020880135613faf81614ec8565b9550604088013594506060880135613fc681614eec565b93506080880135613fd681614eec565b9699959850939692959460a0840135945060c09093013592915050565b600080600080600080600080610100898b03121561400f578182fd5b88359750602089013561402181614ec8565b965060408901359550606089013561403881614eec565b9450608089013561404881614eec565b979a969950949793969560a0850135955060c08501359460e001359350915050565b6000806000806080858703121561407f578182fd5b84359350602085013561409181614ec8565b925060408501356140a181614eec565b91506060850135613abd81614eec565b600080600080600060a086880312156140c8578283fd5b8535945060208601356140da81614ec8565b935060408601356140ea81614eec565b925060608601356140fa81614eec565b949793965091946080013592915050565b6000806040838503121561411d578182fd5b50508035926020909101359150565b600080600060608486031215614140578081fd5b8335925060208401359150604084013561415981614eb0565b809150509250925092565b600060208284031215614175578081fd5b815161311d81614eec565b60008060408385031215614192578182fd5b8235613c2381614eec565b60008060008060008060c087890312156141b5578384fd5b86356141c081614eec565b95506020870135945060408701359350606087013592506080870135915060a08701356141ec81614eb0565b809150509295509295509295565b600160a060020a03169052565b6000815180845260208085019450808401835b8381101561423f578151600160a060020a03168752958201959082019060010161421a565b509495945050505050565b60008282518085526020808601955080818302840101818601855b848110156142e757601f19868403018952815160c0815185528582015161428e878701826141fa565b50604080830151818701525060608083015182828801526142b183880182614207565b925050506080808301516142c78288018261436e565b505060a09182015194909101939093529783019790830190600101614265565b5090979650505050505050565b6000815180845260208085019450808401835b8381101561423f57815187529582019590820190600101614307565b60008151808452815b818110156143485760208185018101518683018201520161432c565b818111156143595782602083870101525b50601f01601f19169290920160200192915050565b60ff169052565b600160a060020a0391909116815260200190565b600160a060020a03929092168252602082015260400190565b600160a060020a039390931683526020830191909152604082015260600190565b6000600160a060020a03808816835280871660208401525060a060408301526143ef60a08301866142f4565b828103606084015261440181866142f4565b905082810360808401526133ed8185614323565b6000600160a060020a03808816835280871660208401525084604083015283606083015260a0608083015261444d60a0830184614323565b979650505050505050565b60006020825261311d6020830184614207565b6000604080835261447e8184018661424a565b602084820381860152818651808452828401915082838202850101838901875b8381101561452557601f19878403018552815160a081511515855260ff88830151168886015289820151818b8701526144d9828701826142f4565b915050606080830151868303828801526144f383826142f4565b92505050608080830151925085820381870152506145118183614207565b96880196945050509085019060010161449e565b50909a9950505050505050505050565b600060608252614548606083018661424a565b60208301949094525060400152919050565b60006020825261311d60208301846142f4565b60006040825261458060408301856142f4565b828103602084015261459281856142f4565b95945050505050565b901515815260200190565b911515825260ff16602082015260400190565b60006020825261311d6020830184614323565b60208082526034908201527f455243313135353a207472616e7366657220746f206e6f6e204552433131353560408201527f526563656976657220696d706c656d656e746572000000000000000000000000606082015260800190565b60208082526028908201527f455243313135353a204552433131353552656365697665722072656a6563746560408201527f6420746f6b656e73000000000000000000000000000000000000000000000000606082015260800190565b6020808252602b908201527f455243313135353a2062616c616e636520717565727920666f7220746865207a60408201527f65726f2061646472657373000000000000000000000000000000000000000000606082015260800190565b60208082526031908201527f455243313135353a2062617463682062616c616e636520717565727920666f7260408201527f20746865207a65726f2061646472657373000000000000000000000000000000606082015260800190565b60208082526026908201527f4f776e61626c653a206e6577206f776e657220697320746865207a65726f206160408201527f6464726573730000000000000000000000000000000000000000000000000000606082015260800190565b6020808252601b908201527f536166654d6174683a206164646974696f6e206f766572666c6f770000000000604082015260600190565b6020808252601e908201527f6d75737420626520746865206f776e6572206f662074686520746f6b656e0000604082015260600190565b60208082526029908201527f455243313135353a2063616c6c6572206973206e6f74206f776e6572206e6f7260408201527f20617070726f7665640000000000000000000000000000000000000000000000606082015260800190565b6020808252600f908201527f77726f6e6720656e6420696e6465780000000000000000000000000000000000604082015260600190565b60208082526011908201527f77726f6e6720737461727420696e646578000000000000000000000000000000604082015260600190565b60208082526017908201527f796f752068617665207468652061637469766520626964000000000000000000604082015260600190565b60208082526025908201527f455243313135353a207472616e7366657220746f20746865207a65726f20616460408201527f6472657373000000000000000000000000000000000000000000000000000000606082015260800190565b60208082526032908201527f455243313135353a207472616e736665722063616c6c6572206973206e6f742060408201527f6f776e6572206e6f7220617070726f7665640000000000000000000000000000606082015260800190565b60208082526023908201527f455243313135353a206275726e2066726f6d20746865207a65726f206164647260408201527f6573730000000000000000000000000000000000000000000000000000000000606082015260800190565b6020808252818101527f4f776e61626c653a2063616c6c6572206973206e6f7420746865206f776e6572604082015260600190565b6020808252603a908201527f6d75737420626520746865206f776e6572206f662074686520746f6b656e206f60408201527f722073656e646572206973206d61726b65742061756374696f6e000000000000606082015260800190565b6020808252818101527f6d757374206265207468652063726561746f72206f662074686520746f6b656e604082015260600190565b60208082526025908201527f6f6e6c79206d61726b65742061756374696f6e2063616e20736574207468652060408201527f7072696365000000000000000000000000000000000000000000000000000000606082015260800190565b60208082526019908201527f746f6b656e20696420697320616c726561647920657869737400000000000000604082015260600190565b60208082526029908201527f455243313135353a2073657474696e6720617070726f76616c2073746174757360408201527f20666f722073656c660000000000000000000000000000000000000000000000606082015260800190565b60208082526029908201527f455243313135353a206163636f756e747320616e6420696473206c656e67746860408201527f206d69736d617463680000000000000000000000000000000000000000000000606082015260800190565b60208082526028908201527f455243313135353a2069647320616e6420616d6f756e7473206c656e6774682060408201527f6d69736d61746368000000000000000000000000000000000000000000000000606082015260800190565b60208082526021908201527f455243313135353a206d696e7420746f20746865207a65726f2061646472657360408201527f7300000000000000000000000000000000000000000000000000000000000000606082015260800190565b90815260200190565b918252600160a060020a0316602082015260400190565b948552600160a060020a03939093166020850152604084019190915260ff166060830152608082015260a00190565b918252602082015260400190565b9283526020830191909152600160a060020a0316604082015260600190565b94855260208501939093526040840191909152600160a060020a03166060830152608082015260a00190565b91825260ff16602082015260400190565b60ff91909116815260200190565b60405181810167ffffffffffffffff81118282101715614dd957600080fd5b604052919050565b600067ffffffffffffffff821115614df7578081fd5b5060209081020190565b60e060020a900490565b600060443d1015614e1b57610f32565b600481823e6308c379a0614e2f8251614e01565b14614e3957610f32565b6040513d600319016004823e80513d67ffffffffffffffff8160248401118184111715614e695750505050610f32565b82840192508251915080821115614e835750505050610f32565b503d83016020828401011115614e9b57505050610f32565b601f01601f1916810160200160405291505090565b600160a060020a0381168114614ec557600080fd5b50565b8015158114614ec557600080fd5b600160e060020a031981168114614ec557600080fd5b60ff81168114614ec557600080fdfe455243313135353a206275726e20616d6f756e7420657863656564732062616c616e6365455243313135353a20696e73756666696369656e742062616c616e636520666f72207472616e73666572a2646970667358221220a3d974225ae6f85884a7a474a2d157732f5c162beaa10d4d109cac72b7365f6264736f6c634300060c0033",
  "immutableReferences": {},
  "source": "// SPDX-License-Identifier: MIT\npragma solidity 0.6.12;\n\npragma experimental ABIEncoderV2;\n\nimport \"@openzeppelin/contracts/access/Ownable.sol\";\nimport \"@openzeppelin/contracts/token/ERC1155/ERC1155.sol\";\nimport \"@openzeppelin/contracts/math/SafeMath.sol\";\nimport \"./ICreat.sol\";\nimport \"./ICreatMarketAuction.sol\";\nimport \"./IMarketplaceSettings.sol\";\nimport \"./ICreatRoyaltyRegistry.sol\";\nimport \"./ICreatTokenCreatorRegistry.sol\";\n/**\n * Creat core contract.\n*/\n\ncontract Creat is ERC1155, Ownable, ICreat {\n    // Library to overcome overflow\n    using SafeMath for uint256;\n    struct TokenInfo {\n        uint256 tokenId;\n        address creator;\n        uint256 tokenAmount;\n        address[] owners;\n        uint8 serviceFee;\n        uint256 creationTime;\n    }\n\n    struct TokenOwnerInfo {\n        bool isForSale;\n        uint8 priceType; // 0 for fixed, 1 for Auction dates range, 2 for Auction Infinity\n        uint256[] prices;\n        uint256[] bids;\n        address[] bidders;\n    }\n\n    // market auction to set the price\n    ICreatMarketAuction marketAuction;\n    IMarketplaceSettings marketplaceSettings;\n    ICreatRoyaltyRegistry royaltyRegistry;\n    ICreatTokenCreatorRegistry tokenCreatorRigistry;\n\n    // mapping of token info\n    mapping(uint256 => TokenInfo) public tokenInfo;\n    mapping(uint256 => mapping(address => TokenOwnerInfo)) public tokenOwnerInfo;\n\n    mapping(uint256 => bool) public tokenIdsAvailable;\n\n    uint256[] public tokenIds;\n    uint256 public maxId;\n\n    // Event indicating metadata was updated.\n    event AddNewToken(address user, uint256 tokenId);\n    event DeleteTokens(address user, uint256 tokenId, uint256 amount);\n    event SetURI(string uri);\n\n    constructor(\n        string memory _uri\n    ) public\n    ERC1155(_uri)\n    {\n\n    }\n\n    /**\n     * @dev Gets the creator of the token\n     * @param _tokenId uint256 ID of the token\n     * @return address of the creator\n     */\n    function creatorOfToken(uint256 _tokenId)\n    external\n    view override\n    returns (address payable) {\n        return payable(tokenInfo[_tokenId].creator);\n    }\n\n    /**\n     * @dev Gets the Service Fee\n     * @param _tokenId uint256 ID of the token\n     * @return get the service fee\n     */\n    function getServiceFee(uint256 _tokenId)\n    external\n    view override\n    returns (uint8){\n        return tokenInfo[_tokenId].serviceFee;\n    }\n\n    /**\n     * @dev Gets the price type\n     * @param _tokenId uint256 ID of the token\n     * @param _owner address of the token owner\n     * @return get the price type\n     */\n    function getPriceType(uint256 _tokenId, address _owner)\n    external\n    view override\n    returns (uint8){\n        return tokenOwnerInfo[_tokenId][_owner].priceType;\n    }\n\n    /**\n     * @dev Gets the token amount\n     * @param _tokenId uint256 ID of the token\n     */\n    function getTokenAmount(uint256 _tokenId)\n    external\n    view\n    returns (uint256){\n        return tokenInfo[_tokenId].tokenAmount;\n    }\n\n    /**\n     * @dev Gets the is for sale\n     * @param _tokenId uint256 ID of the token\n     * @param _owner address of the token owner\n     */\n    function getIsForSale(uint256 _tokenId, address _owner)\n    external\n    override\n    view\n    returns (bool){\n        return tokenOwnerInfo[_tokenId][_owner].isForSale;\n    }\n\n    /**\n     * @dev Gets the owners\n     * @param _tokenId uint256 ID of the token\n     */\n    function getOwners(uint256 _tokenId)\n    external\n    override\n    view\n    returns (address[] memory owners){\n        return tokenInfo[_tokenId].owners;\n    }\n\n    /**\n     * @dev Gets the prices\n     * @param _tokenId uint256 ID of the token\n     * @param _owner address of the token owner\n     */\n    function getPrices(uint256 _tokenId, address _owner)\n    external\n    view\n    returns (uint256[] memory prices){\n        return tokenOwnerInfo[_tokenId][_owner].prices;\n    }\n\n    /**\n     * @dev Gets the bids\n     * @param _tokenId uint256 ID of the token\n     * @param _owner address of the token owner\n     */\n    function getBids(uint256 _tokenId, address _owner)\n    external\n    view\n    returns (uint256[] memory bids){\n        return tokenOwnerInfo[_tokenId][_owner].bids;\n    }\n\n    /**\n     * @dev Gets the bidders\n     * @param _tokenId uint256 ID of the token\n     * @param _owner address of the token owner\n     */\n    function getBidders(uint256 _tokenId, address _owner)\n    external\n    view\n    returns (address[] memory bidders){\n        return tokenOwnerInfo[_tokenId][_owner].bidders;\n    }\n\n    /**\n     * @dev Gets the creation time\n     * @param _tokenId uint256 ID of the token\n     */\n    function getCreationTime(uint256 _tokenId)\n    external\n    view\n    returns (uint256){\n        return tokenInfo[_tokenId].creationTime;\n    }\n\n    /**\n     * @dev get tokenIds length\n     */\n    function getTokenIdsLength() external override view returns (uint256){\n        return tokenIds.length;\n    }\n\n    /**\n     * @dev get token Id\n     * @param _index uint256 index\n     */\n\n    function getTokenId(uint256 _index) external override view returns (uint256){\n        return tokenIds[_index];\n    }\n    /**\n     * @dev get owner tokens\n     * @param _owner address of owner.\n     */\n\n    function getOwnerTokens(address _owner) public view returns (TokenInfo[] memory tokens, TokenOwnerInfo[] memory ownerInfo) {\n\n        uint totalValues;\n        //calculate totalValues\n        for (uint i = 0; i < tokenIds.length; i++) {\n            TokenInfo memory info = tokenInfo[tokenIds[i]];\n            if (info.owners[info.owners.length - 1] == _owner) {\n                totalValues++;\n            }\n        }\n\n        TokenInfo[] memory values = new TokenInfo[](totalValues);\n        TokenOwnerInfo[] memory valuesOwner = new TokenOwnerInfo[](totalValues);\n        for (uint i = 0; i < tokenIds.length; i++) {\n            uint256 tokenId = tokenIds[i];\n            TokenInfo memory info = tokenInfo[tokenId];\n            if (info.owners[info.owners.length - 1] == _owner) {\n                values[i] = info;\n                valuesOwner[i] = tokenOwnerInfo[tokenId][_owner];\n            }\n        }\n\n        return (values, valuesOwner);\n    }\n\n    /**\n     * @dev get token paging\n     * @param _offset offset of the records.\n     * @param _limit limits of the records.\n     */\n    function getTokensPaging(uint _offset, uint _limit) public view returns (TokenInfo[] memory tokens, uint nextOffset, uint total) {\n        uint256 tokenInfoLength = tokenIds.length;\n        if (_limit == 0) {\n            _limit = 1;\n        }\n\n        if (_limit > tokenInfoLength - _offset) {\n            _limit = tokenInfoLength - _offset;\n        }\n\n        TokenInfo[] memory values = new TokenInfo[] (_limit);\n        for (uint i = 0; i < _limit; i++) {\n            uint256 tokenId = tokenIds[_offset + i];\n            values[i] = tokenInfo[tokenId];\n        }\n\n        return (values, _offset + _limit, tokenInfoLength);\n    }\n\n    /**\n     * @dev Checks that the token was owned by the sender.\n     * @param _tokenId uint256 ID of the token.\n     */\n    modifier onlyTokenOwner(uint256 _tokenId) {\n        uint256 balance = balanceOf(msg.sender, _tokenId);\n        require(balance > 0, \"must be the owner of the token\");\n        _;\n    }\n\n    /**\n     * @dev Checks that the token was created by the sender.\n     * @param _tokenId uint256 ID of the token.\n     */\n    modifier onlyTokenCreator(uint256 _tokenId) {\n        address creator = tokenInfo[_tokenId].creator;\n        require(creator == msg.sender, \"must be the creator of the token\");\n        _;\n    }\n\n    /**\n     * @dev restore data from old contract, only call by owner\n     * @param _oldAddress address of old contract.\n     * @param _startIndex start index of array\n     * @param _endIndex end index of array\n     */\n    function restore(address _oldAddress, uint256 _startIndex, uint256 _endIndex) external onlyOwner {\n        Creat oldContract = Creat(_oldAddress);\n        uint256 length = oldContract.getTokenIdsLength();\n        require(_startIndex < length, \"wrong start index\");\n        require(_endIndex <= length, \"wrong end index\");\n\n        for (uint i = _startIndex; i < _endIndex; i++) {\n            uint256 tokenId = oldContract.getTokenId(i);\n            tokenIds.push(tokenId);\n            //create seperate functions otherwise it will give stack too deep error\n            tokenInfo[tokenId] = TokenInfo(\n                tokenId,\n                oldContract.creatorOfToken(tokenId),\n                oldContract.getTokenAmount(tokenId),\n                oldContract.getOwners(tokenId),\n                oldContract.getServiceFee(tokenId),\n                oldContract.getCreationTime(tokenId)\n            );\n\n            address[] memory owners = tokenInfo[tokenId].owners;\n            for (uint j = 0; j < owners.length; j++) {\n                address owner = owners[j];\n                tokenOwnerInfo[tokenId][owner] = TokenOwnerInfo(\n                    oldContract.getIsForSale(tokenId, owner),\n                    oldContract.getPriceType(tokenId, owner),\n                    oldContract.getPrices(tokenId, owner),\n                    oldContract.getBids(tokenId, owner),\n                    oldContract.getBidders(tokenId, owner)\n                );\n\n                uint256 ownerBalance = oldContract.balanceOf(owner, tokenId);\n                if (ownerBalance > 0) {\n                    _mint(owner, tokenId, ownerBalance, '');\n                }\n            }\n            tokenIdsAvailable[tokenId] = true;\n        }\n        maxId = oldContract.maxId();\n    }\n\n    /**\n     * @dev update or mint token Amount only from token creator.\n     * @param _tokenAmount token Amount\n     * @param _tokenId uint256 id of the token.\n     */\n    function setTokenAmount(uint256 _tokenAmount, uint256 _tokenId) external onlyTokenCreator(_tokenId) {\n        tokenInfo[_tokenId].tokenAmount = tokenInfo[_tokenId].tokenAmount + _tokenAmount;\n        _mint(msg.sender, _tokenId, _tokenAmount, '');\n    }\n\n    /**\n     * @dev update is for sale only from token Owner.\n     * @param _isForSale is For Sale\n     * @param _tokenId uint256 id of the token.\n     */\n    function setIsForSale(bool _isForSale, uint256 _tokenId) public onlyTokenOwner(_tokenId) {\n        tokenOwnerInfo[_tokenId][msg.sender].isForSale = _isForSale;\n    }\n\n    /**\n     * @dev update is for sale only from token Owner.\n     * @param _priceType set the price type\n     * @param _price price of the token\n     * @param _startTime start time of bid, pass 0 of _priceType is not 1\n     * @param _endTime end time of bid, pass 0 of _priceType is not 1\n     * @param _tokenId uint256 id of the token.\n     * @param _owner owner of the token\n     */\n    function putOnSale(uint8 _priceType, uint256 _price, uint256 _startTime, uint256 _endTime, uint256 _tokenId, address _owner) public onlyTokenOwner(_tokenId) {\n        if (_priceType == 0) {\n            marketAuction.setSalePrice(_tokenId, _price, _owner);\n        }\n        if (_priceType == 1 || _priceType == 2) {\n            marketAuction.setInitialBidPriceWithRange(_price, _startTime, _endTime, _owner, _tokenId);\n        }\n        tokenOwnerInfo[_tokenId][_owner].isForSale = true;\n        tokenOwnerInfo[_tokenId][_owner].priceType = _priceType;\n    }\n\n    /**\n     * @dev remove token from sale\n     * @param _tokenId uint256 id of the token.\n     * @param _owner owner of the token\n     */\n    function removeFromSale(uint256 _tokenId, address _owner) external override {\n        uint256 balance = balanceOf(msg.sender, _tokenId);\n        require(balance > 0 || msg.sender == address(marketAuction), \"must be the owner of the token or sender is market auction\");\n\n        tokenOwnerInfo[_tokenId][_owner].isForSale = false;\n    }\n\n    /**\n     * @dev update price type from token Owner.\n     * @param _priceType price type\n     * @param _tokenId uint256 id of the token.\n     */\n    function setPriceType(uint8 _priceType, uint256 _tokenId) external onlyTokenOwner(_tokenId) {\n        tokenOwnerInfo[_tokenId][msg.sender].priceType = _priceType;\n    }\n\n    /**\n     * @dev set marketAuction address to set the sale price\n     * @param _marketAuction address of market auction.\n     * @param _marketplaceSettings address of market auction.\n     */\n    function setMarketAddresses(address _marketAuction, address _marketplaceSettings, address _tokenCreatorRigistry, address _royaltyRegistry) external onlyOwner {\n        marketAuction = ICreatMarketAuction(_marketAuction);\n        marketplaceSettings = IMarketplaceSettings(_marketplaceSettings);\n        tokenCreatorRigistry = ICreatTokenCreatorRegistry(_tokenCreatorRigistry);\n        royaltyRegistry = ICreatRoyaltyRegistry(_royaltyRegistry);\n    }\n\n    /**\n     * @dev update price only from auction.\n     * @param _price price of the token\n     * @param _tokenId uint256 id of the token.\n     * @param _owner address of the token owner\n     */\n    function setPrice(uint256 _price, uint256 _tokenId, address _owner) external override {\n        require(msg.sender == address(marketAuction), \"only market auction can set the price\");\n        TokenOwnerInfo storage info = tokenOwnerInfo[_tokenId][_owner];\n        info.prices.push(_price);\n    }\n\n    /**\n     * @dev update bids only from auction.\n     * @param _bid bid Amount\n     * @param _bidder bidder address\n     * @param _tokenId uint256 id of the token.\n     * @param _owner address of the token owner\n     */\n    function setBid(uint256 _bid, address _bidder, uint256 _tokenId, address _owner) external override {\n        require(msg.sender == address(marketAuction), \"only market auction can set the price\");\n        TokenOwnerInfo storage info = tokenOwnerInfo[_tokenId][_owner];\n        info.bids.push(_bid);\n        info.bidders.push(_bidder);\n    }\n\n    /**\n     * @dev Adds a new unique token to the supply.\n     * @param _tokenAmount total token amount available\n     * @param _isForSale if is for sale\n     * @param _priceType 0 is for fixed, 1 is for Auction Time bound, 2 is for Auction Infiniite\n     * @param _royaltyPercentage royality percentage of creator\n     */\n    function addNewToken(uint256 _tokenAmount, bool _isForSale, uint8 _priceType, uint8 _royaltyPercentage) public {\n        uint256 tokenId = _createToken(msg.sender, _tokenAmount, _isForSale, 0, _priceType, _royaltyPercentage);\n\n        emit AddNewToken(msg.sender, tokenId);\n    }\n\n    /**\n     * @dev Adds a new unique token to the supply.\n     * @param _tokenAmount total token amount available\n     * @param _isForSale if is for sale\n     * @param _priceType 0 is for fixed, 1 is for Auction Time bound, 2 is for Auction Infiniite\n     * @param _royaltyPercentage royality percentage of creator\n     * @param _tokenId uint256 ID of the token.\n     */\n    function addNewTokenWithId(uint256 _tokenAmount, bool _isForSale, uint8 _priceType, uint8 _royaltyPercentage, uint256 _tokenId) public {\n        uint256 tokenId = _createTokenWithId(msg.sender, _tokenAmount, _isForSale, 0, _priceType, _royaltyPercentage, _tokenId);\n\n        emit AddNewToken(msg.sender, tokenId);\n    }\n\n    /**\n     * @dev add token and set the price.\n     * @param _price price of the item.\n     * @param _tokenAmount total token amount available\n     * @param _isForSale if is for sale\n     * @param _priceType 0 is for fixed, 1 is for Auction Time bound, 2 is for Auction Infiniite\n     * @param _royaltyPercentage royality percentage of creator\n     * @param _startTime start time of bid, pass 0 of _priceType is not 1\n     * @param _endTime end time of bid, pass 0 of _priceType is not 1\n     */\n    function addNewTokenAndSetThePrice(uint256 _tokenAmount, bool _isForSale, uint256 _price, uint8 _priceType, uint8 _royaltyPercentage, uint256 _startTime, uint256 _endTime) public {\n        uint256 tokenId = getTokenIdAvailable();\n        addNewTokenAndSetThePriceWithId(_tokenAmount, _isForSale, _price, _priceType, _royaltyPercentage, _startTime, _endTime, tokenId);\n    }\n\n    /**\n     * @dev add token and set the price.\n     * @param _price price of the item.\n     * @param _tokenAmount total token amount available\n     * @param _isForSale if is for sale\n     * @param _priceType 0 is for fixed, 1 is for Auction Time bound, 2 is for Auction Infiniite\n     * @param _royaltyPercentage royality percentage of creator\n     * @param _startTime start time of bid, pass 0 of _priceType is not 1\n     * @param _endTime end time of bid, pass 0 of _priceType is not 1\n     * @param _tokenId uint256 ID of the token.\n     */\n    function addNewTokenAndSetThePriceWithId(uint256 _tokenAmount, bool _isForSale, uint256 _price, uint8 _priceType, uint8 _royaltyPercentage, uint256 _startTime, uint256 _endTime, uint256 _tokenId) public {\n        uint256 tokenId = _createTokenWithId(msg.sender, _tokenAmount, _isForSale, _price, _priceType, _royaltyPercentage, _tokenId);\n        putOnSale(_priceType, _price, _startTime, _endTime, tokenId, msg.sender);\n\n        emit AddNewToken(msg.sender, tokenId);\n    }\n\n    /**\n     * @dev Deletes the token with the provided ID.\n     * @param _tokenId uint256 ID of the token.\n     * @param _amount amount of the token to delete\n     */\n    function deleteToken(uint256 _tokenId, uint256 _amount) public onlyTokenOwner(_tokenId) {\n        bool activeBid = marketAuction.hasTokenActiveBid(_tokenId, msg.sender);\n        uint256 balance = balanceOf(msg.sender, _tokenId);\n        //2\n        if (activeBid == true)\n            require(balance.sub(_amount) > 0, \"you have the active bid\");\n        _burn(msg.sender, _tokenId, _amount);\n        DeleteTokens(msg.sender, _tokenId, _amount);\n    }\n\n    /**\n     * @dev Sets uri of tokens.\n     *\n     * Requirements:\n     *\n     * @param _uri new uri .\n     */\n    function setURI(string memory _uri) external onlyOwner {\n        _setURI(_uri);\n        emit SetURI(_uri);\n    }\n\n    function safeTransferFrom(\n        address from,\n        address to,\n        uint256 id,\n        uint256 amount,\n        bytes memory data\n    )\n    public\n    virtual\n    override\n    {\n        //transfer case\n        if (msg.sender != address(marketAuction)) {\n            bool activeBid = marketAuction.hasTokenActiveBid(id, from);\n            uint256 balance = balanceOf(from, id);\n            if (activeBid == true)\n                require(balance.sub(amount) > 0, \"you have the active bid\");\n        }\n        super.safeTransferFrom(from, to, id, amount, data);\n        _setTokenOwner(id, to);\n    }\n\n    /**\n     * @dev Internal function for setting the token's creator.\n     * @param _tokenId uint256 id of the token.\n     * @param _owner address of the owner of the token.\n     */\n    function _setTokenOwner(uint256 _tokenId, address _owner) internal {\n        address[] storage owners = tokenInfo[_tokenId].owners;\n        for (uint i = 0; i < owners.length; i++) {\n            if (owners[i] == _owner) //incase owner already exists\n                return;\n        }\n        owners.push(_owner);\n    }\n\n    /**\n     * @dev Internal function creating a new token.\n     * @param _creator address of the creator of the token.\n     * @param _tokenAmount total token amount available\n     * @param _isForSale if is for sale\n     * @param _price price of the token, 0 is for not set the price.\n     * @param _priceType 0 is for fixed, 1 is for Auction Time bound, 2 is for Auction Infiniite\n     * @param _royaltyPercentage royality percentage of creator\n     */\n    function _createToken(address _creator, uint256 _tokenAmount, bool _isForSale, uint256 _price, uint8 _priceType, uint8 _royaltyPercentage) internal returns (uint256) {\n        uint256 newId = getTokenIdAvailable();\n        return _createTokenWithId(_creator, _tokenAmount, _isForSale, _price, _priceType, _royaltyPercentage, newId);\n    }\n\n    /**\n     * @dev Internal function creating a new token.\n     * @param _creator address of the creator of the token.\n     * @param _tokenAmount total token amount available\n     * @param _isForSale if is for sale\n     * @param _price price of the token, 0 is for not set the price.\n     * @param _priceType 0 is for fixed, 1 is for Auction Time bound, 2 is for Auction Infiniite\n     * @param _royaltyPercentage royality percentage of creator\n     * @param _tokenId uint256 token id\n     */\n    function _createTokenWithId(address _creator, uint256 _tokenAmount, bool _isForSale, uint256 _price, uint8 _priceType, uint8 _royaltyPercentage, uint256 _tokenId) internal returns (uint256) {\n        require(tokenIdsAvailable[_tokenId] == false, \"token id is already exist\");\n\n        tokenIdsAvailable[_tokenId] = true;\n        tokenIds.push(_tokenId);\n\n        maxId = maxId > _tokenId ? maxId : _tokenId;\n\n        _mint(_creator, _tokenId, _tokenAmount, '');\n        uint8 serviceFee = marketplaceSettings.getMarketplaceFeePercentage();\n\n        tokenInfo[_tokenId] = TokenInfo(\n            _tokenId,\n            _creator,\n            _tokenAmount,\n            new address[](0),\n            serviceFee,\n            block.timestamp);\n\n        tokenInfo[_tokenId].owners.push(_creator);\n\n        tokenOwnerInfo[_tokenId][_creator] = TokenOwnerInfo(\n            _isForSale,\n            _priceType,\n            new uint256[](0),\n            new uint256[](0),\n            new address[](0));\n        tokenOwnerInfo[_tokenId][_creator].prices.push(_price);\n\n        royaltyRegistry.setPercentageForTokenRoyalty(_tokenId, _royaltyPercentage);\n        tokenCreatorRigistry.setTokenCreator(_tokenId, msg.sender);\n\n        return _tokenId;\n    }\n\n    /**\n     * @dev get last token id\n     */\n    function getLastTokenId() external view returns (uint256){\n        return tokenIds[tokenIds.length - 1];\n    }\n\n    /**\n     * @dev get the token id available\n     */\n    function getTokenIdAvailable() public view returns (uint256){\n\n        for (uint256 i = 0; i < maxId; i++) {\n            if (tokenIdsAvailable[i] == false)\n                return i;\n        }\n        return tokenIds.length;\n    }\n}",
  "sourcePath": "/home/Projects/Nafter/contracts/Creat.sol",
  "compiler": {
    "name": "solc",
    "version": "0.6.12+commit.27d51765.Emscripten.clang"
  },
  "schemaVersion": "3.3.4",
  "updatedAt": "2021-09-30T21:07:22.431Z",
  "devdoc": {
    "kind": "dev",
    "methods": {
      "addNewToken(uint256,bool,uint8,uint8)": {
        "details": "Adds a new unique token to the supply.",
        "params": {
          "_isForSale": "if is for sale",
          "_priceType": "0 is for fixed, 1 is for Auction Time bound, 2 is for Auction Infiniite",
          "_royaltyPercentage": "royality percentage of creator",
          "_tokenAmount": "total token amount available"
        }
      },
      "addNewTokenAndSetThePrice(uint256,bool,uint256,uint8,uint8,uint256,uint256)": {
        "details": "add token and set the price.",
        "params": {
          "_endTime": "end time of bid, pass 0 of _priceType is not 1",
          "_isForSale": "if is for sale",
          "_price": "price of the item.",
          "_priceType": "0 is for fixed, 1 is for Auction Time bound, 2 is for Auction Infiniite",
          "_royaltyPercentage": "royality percentage of creator",
          "_startTime": "start time of bid, pass 0 of _priceType is not 1",
          "_tokenAmount": "total token amount available"
        }
      },
      "addNewTokenAndSetThePriceWithId(uint256,bool,uint256,uint8,uint8,uint256,uint256,uint256)": {
        "details": "add token and set the price.",
        "params": {
          "_endTime": "end time of bid, pass 0 of _priceType is not 1",
          "_isForSale": "if is for sale",
          "_price": "price of the item.",
          "_priceType": "0 is for fixed, 1 is for Auction Time bound, 2 is for Auction Infiniite",
          "_royaltyPercentage": "royality percentage of creator",
          "_startTime": "start time of bid, pass 0 of _priceType is not 1",
          "_tokenAmount": "total token amount available",
          "_tokenId": "uint256 ID of the token."
        }
      },
      "addNewTokenWithId(uint256,bool,uint8,uint8,uint256)": {
        "details": "Adds a new unique token to the supply.",
        "params": {
          "_isForSale": "if is for sale",
          "_priceType": "0 is for fixed, 1 is for Auction Time bound, 2 is for Auction Infiniite",
          "_royaltyPercentage": "royality percentage of creator",
          "_tokenAmount": "total token amount available",
          "_tokenId": "uint256 ID of the token."
        }
      },
      "balanceOf(address,uint256)": {
        "details": "See {IERC1155-balanceOf}. Requirements: - `account` cannot be the zero address."
      },
      "balanceOfBatch(address[],uint256[])": {
        "details": "See {IERC1155-balanceOfBatch}. Requirements: - `accounts` and `ids` must have the same length."
      },
      "creatorOfToken(uint256)": {
        "details": "Gets the creator of the token",
        "params": {
          "_tokenId": "uint256 ID of the token"
        },
        "returns": {
          "_0": "address of the creator"
        }
      },
      "deleteToken(uint256,uint256)": {
        "details": "Deletes the token with the provided ID.",
        "params": {
          "_amount": "amount of the token to delete",
          "_tokenId": "uint256 ID of the token."
        }
      },
      "getBidders(uint256,address)": {
        "details": "Gets the bidders",
        "params": {
          "_owner": "address of the token owner",
          "_tokenId": "uint256 ID of the token"
        }
      },
      "getBids(uint256,address)": {
        "details": "Gets the bids",
        "params": {
          "_owner": "address of the token owner",
          "_tokenId": "uint256 ID of the token"
        }
      },
      "getCreationTime(uint256)": {
        "details": "Gets the creation time",
        "params": {
          "_tokenId": "uint256 ID of the token"
        }
      },
      "getIsForSale(uint256,address)": {
        "details": "Gets the is for sale",
        "params": {
          "_owner": "address of the token owner",
          "_tokenId": "uint256 ID of the token"
        }
      },
      "getLastTokenId()": {
        "details": "get last token id"
      },
      "getOwnerTokens(address)": {
        "details": "get owner tokens",
        "params": {
          "_owner": "address of owner."
        }
      },
      "getOwners(uint256)": {
        "details": "Gets the owners",
        "params": {
          "_tokenId": "uint256 ID of the token"
        }
      },
      "getPriceType(uint256,address)": {
        "details": "Gets the price type",
        "params": {
          "_owner": "address of the token owner",
          "_tokenId": "uint256 ID of the token"
        },
        "returns": {
          "_0": "get the price type"
        }
      },
      "getPrices(uint256,address)": {
        "details": "Gets the prices",
        "params": {
          "_owner": "address of the token owner",
          "_tokenId": "uint256 ID of the token"
        }
      },
      "getServiceFee(uint256)": {
        "details": "Gets the Service Fee",
        "params": {
          "_tokenId": "uint256 ID of the token"
        },
        "returns": {
          "_0": "get the service fee"
        }
      },
      "getTokenAmount(uint256)": {
        "details": "Gets the token amount",
        "params": {
          "_tokenId": "uint256 ID of the token"
        }
      },
      "getTokenId(uint256)": {
        "details": "get token Id",
        "params": {
          "_index": "uint256 index"
        }
      },
      "getTokenIdAvailable()": {
        "details": "get the token id available"
      },
      "getTokenIdsLength()": {
        "details": "get tokenIds length"
      },
      "getTokensPaging(uint256,uint256)": {
        "details": "get token paging",
        "params": {
          "_limit": "limits of the records.",
          "_offset": "offset of the records."
        }
      },
      "isApprovedForAll(address,address)": {
        "details": "See {IERC1155-isApprovedForAll}."
      },
      "owner()": {
        "details": "Returns the address of the current owner."
      },
      "putOnSale(uint8,uint256,uint256,uint256,uint256,address)": {
        "details": "update is for sale only from token Owner.",
        "params": {
          "_endTime": "end time of bid, pass 0 of _priceType is not 1",
          "_owner": "owner of the token",
          "_price": "price of the token",
          "_priceType": "set the price type",
          "_startTime": "start time of bid, pass 0 of _priceType is not 1",
          "_tokenId": "uint256 id of the token."
        }
      },
      "removeFromSale(uint256,address)": {
        "details": "remove token from sale",
        "params": {
          "_owner": "owner of the token",
          "_tokenId": "uint256 id of the token."
        }
      },
      "renounceOwnership()": {
        "details": "Leaves the contract without owner. It will not be possible to call `onlyOwner` functions anymore. Can only be called by the current owner. NOTE: Renouncing ownership will leave the contract without an owner, thereby removing any functionality that is only available to the owner."
      },
      "restore(address,uint256,uint256)": {
        "details": "restore data from old contract, only call by owner",
        "params": {
          "_endIndex": "end index of array",
          "_oldAddress": "address of old contract.",
          "_startIndex": "start index of array"
        }
      },
      "safeBatchTransferFrom(address,address,uint256[],uint256[],bytes)": {
        "details": "See {IERC1155-safeBatchTransferFrom}."
      },
      "safeTransferFrom(address,address,uint256,uint256,bytes)": {
        "details": "See {IERC1155-safeTransferFrom}."
      },
      "setApprovalForAll(address,bool)": {
        "details": "See {IERC1155-setApprovalForAll}."
      },
      "setBid(uint256,address,uint256,address)": {
        "details": "update bids only from auction.",
        "params": {
          "_bid": "bid Amount",
          "_bidder": "bidder address",
          "_owner": "address of the token owner",
          "_tokenId": "uint256 id of the token."
        }
      },
      "setIsForSale(bool,uint256)": {
        "details": "update is for sale only from token Owner.",
        "params": {
          "_isForSale": "is For Sale",
          "_tokenId": "uint256 id of the token."
        }
      },
      "setMarketAddresses(address,address,address,address)": {
        "details": "set marketAuction address to set the sale price",
        "params": {
          "_marketAuction": "address of market auction.",
          "_marketplaceSettings": "address of market auction."
        }
      },
      "setPrice(uint256,uint256,address)": {
        "details": "update price only from auction.",
        "params": {
          "_owner": "address of the token owner",
          "_price": "price of the token",
          "_tokenId": "uint256 id of the token."
        }
      },
      "setPriceType(uint8,uint256)": {
        "details": "update price type from token Owner.",
        "params": {
          "_priceType": "price type",
          "_tokenId": "uint256 id of the token."
        }
      },
      "setTokenAmount(uint256,uint256)": {
        "details": "update or mint token Amount only from token creator.",
        "params": {
          "_tokenAmount": "token Amount",
          "_tokenId": "uint256 id of the token."
        }
      },
      "setURI(string)": {
        "details": "Sets uri of tokens. Requirements:",
        "params": {
          "_uri": "new uri ."
        }
      },
      "supportsInterface(bytes4)": {
        "details": "See {IERC165-supportsInterface}. Time complexity O(1), guaranteed to always use less than 30 000 gas."
      },
      "transferOwnership(address)": {
        "details": "Transfers ownership of the contract to a new account (`newOwner`). Can only be called by the current owner."
      },
      "uri(uint256)": {
        "details": "See {IERC1155MetadataURI-uri}. This implementation returns the same URI for *all* token types. It relies on the token type ID substitution mechanism https://eips.ethereum.org/EIPS/eip-1155#metadata[defined in the EIP]. Clients calling this function must replace the `\\{id\\}` substring with the actual token type ID."
      }
    },
    "version": 1
  },
  "userdoc": {
    "kind": "user",
    "methods": {},
    "notice": "Creat core contract.",
    "version": 1
  }
}