{
  "contractName": "Nafter",
  "abi": [
    {
      "inputs": [
        {
          "internalType": "string",
          "name": "_uri",
          "type": "string"
        }
      ],
      "stateMutability": "nonpayable",
      "type": "constructor"
    },
    {
      "anonymous": false,
      "inputs": [
        {
          "indexed": false,
          "internalType": "address",
          "name": "user",
          "type": "address"
        },
        {
          "indexed": false,
          "internalType": "uint256",
          "name": "tokenId",
          "type": "uint256"
        }
      ],
      "name": "AddNewToken",
      "type": "event"
    },
    {
      "anonymous": false,
      "inputs": [
        {
          "indexed": true,
          "internalType": "address",
          "name": "account",
          "type": "address"
        },
        {
          "indexed": true,
          "internalType": "address",
          "name": "operator",
          "type": "address"
        },
        {
          "indexed": false,
          "internalType": "bool",
          "name": "approved",
          "type": "bool"
        }
      ],
      "name": "ApprovalForAll",
      "type": "event"
    },
    {
      "anonymous": false,
      "inputs": [
        {
          "indexed": false,
          "internalType": "address",
          "name": "user",
          "type": "address"
        },
        {
          "indexed": false,
          "internalType": "uint256",
          "name": "tokenId",
          "type": "uint256"
        },
        {
          "indexed": false,
          "internalType": "uint256",
          "name": "amount",
          "type": "uint256"
        }
      ],
      "name": "DeleteTokens",
      "type": "event"
    },
    {
      "anonymous": false,
      "inputs": [
        {
          "indexed": true,
          "internalType": "address",
          "name": "previousOwner",
          "type": "address"
        },
        {
          "indexed": true,
          "internalType": "address",
          "name": "newOwner",
          "type": "address"
        }
      ],
      "name": "OwnershipTransferred",
      "type": "event"
    },
    {
      "anonymous": false,
      "inputs": [
        {
          "indexed": false,
          "internalType": "string",
          "name": "uri",
          "type": "string"
        }
      ],
      "name": "SetURI",
      "type": "event"
    },
    {
      "anonymous": false,
      "inputs": [
        {
          "indexed": true,
          "internalType": "address",
          "name": "operator",
          "type": "address"
        },
        {
          "indexed": true,
          "internalType": "address",
          "name": "from",
          "type": "address"
        },
        {
          "indexed": true,
          "internalType": "address",
          "name": "to",
          "type": "address"
        },
        {
          "indexed": false,
          "internalType": "uint256[]",
          "name": "ids",
          "type": "uint256[]"
        },
        {
          "indexed": false,
          "internalType": "uint256[]",
          "name": "values",
          "type": "uint256[]"
        }
      ],
      "name": "TransferBatch",
      "type": "event"
    },
    {
      "anonymous": false,
      "inputs": [
        {
          "indexed": true,
          "internalType": "address",
          "name": "operator",
          "type": "address"
        },
        {
          "indexed": true,
          "internalType": "address",
          "name": "from",
          "type": "address"
        },
        {
          "indexed": true,
          "internalType": "address",
          "name": "to",
          "type": "address"
        },
        {
          "indexed": false,
          "internalType": "uint256",
          "name": "id",
          "type": "uint256"
        },
        {
          "indexed": false,
          "internalType": "uint256",
          "name": "value",
          "type": "uint256"
        }
      ],
      "name": "TransferSingle",
      "type": "event"
    },
    {
      "anonymous": false,
      "inputs": [
        {
          "indexed": false,
          "internalType": "string",
          "name": "value",
          "type": "string"
        },
        {
          "indexed": true,
          "internalType": "uint256",
          "name": "id",
          "type": "uint256"
        }
      ],
      "name": "URI",
      "type": "event"
    },
    {
      "inputs": [
        {
          "internalType": "address",
          "name": "account",
          "type": "address"
        },
        {
          "internalType": "uint256",
          "name": "id",
          "type": "uint256"
        }
      ],
      "name": "balanceOf",
      "outputs": [
        {
          "internalType": "uint256",
          "name": "",
          "type": "uint256"
        }
      ],
      "stateMutability": "view",
      "type": "function"
    },
    {
      "inputs": [
        {
          "internalType": "address[]",
          "name": "accounts",
          "type": "address[]"
        },
        {
          "internalType": "uint256[]",
          "name": "ids",
          "type": "uint256[]"
        }
      ],
      "name": "balanceOfBatch",
      "outputs": [
        {
          "internalType": "uint256[]",
          "name": "",
          "type": "uint256[]"
        }
      ],
      "stateMutability": "view",
      "type": "function"
    },
    {
      "inputs": [
        {
          "internalType": "address",
          "name": "account",
          "type": "address"
        },
        {
          "internalType": "address",
          "name": "operator",
          "type": "address"
        }
      ],
      "name": "isApprovedForAll",
      "outputs": [
        {
          "internalType": "bool",
          "name": "",
          "type": "bool"
        }
      ],
      "stateMutability": "view",
      "type": "function"
    },
    {
      "inputs": [],
      "name": "maxId",
      "outputs": [
        {
          "internalType": "uint256",
          "name": "",
          "type": "uint256"
        }
      ],
      "stateMutability": "view",
      "type": "function"
    },
    {
      "inputs": [],
      "name": "owner",
      "outputs": [
        {
          "internalType": "address",
          "name": "",
          "type": "address"
        }
      ],
      "stateMutability": "view",
      "type": "function"
    },
    {
      "inputs": [],
      "name": "renounceOwnership",
      "outputs": [],
      "stateMutability": "nonpayable",
      "type": "function"
    },
    {
      "inputs": [
        {
          "internalType": "address",
          "name": "from",
          "type": "address"
        },
        {
          "internalType": "address",
          "name": "to",
          "type": "address"
        },
        {
          "internalType": "uint256[]",
          "name": "ids",
          "type": "uint256[]"
        },
        {
          "internalType": "uint256[]",
          "name": "amounts",
          "type": "uint256[]"
        },
        {
          "internalType": "bytes",
          "name": "data",
          "type": "bytes"
        }
      ],
      "name": "safeBatchTransferFrom",
      "outputs": [],
      "stateMutability": "nonpayable",
      "type": "function"
    },
    {
      "inputs": [
        {
          "internalType": "address",
          "name": "operator",
          "type": "address"
        },
        {
          "internalType": "bool",
          "name": "approved",
          "type": "bool"
        }
      ],
      "name": "setApprovalForAll",
      "outputs": [],
      "stateMutability": "nonpayable",
      "type": "function"
    },
    {
      "inputs": [
        {
          "internalType": "bytes4",
          "name": "interfaceId",
          "type": "bytes4"
        }
      ],
      "name": "supportsInterface",
      "outputs": [
        {
          "internalType": "bool",
          "name": "",
          "type": "bool"
        }
      ],
      "stateMutability": "view",
      "type": "function"
    },
    {
      "inputs": [
        {
          "internalType": "uint256",
          "name": "",
          "type": "uint256"
        }
      ],
      "name": "tokenIds",
      "outputs": [
        {
          "internalType": "uint256",
          "name": "",
          "type": "uint256"
        }
      ],
      "stateMutability": "view",
      "type": "function"
    },
    {
      "inputs": [
        {
          "internalType": "uint256",
          "name": "",
          "type": "uint256"
        }
      ],
      "name": "tokenIdsAvailable",
      "outputs": [
        {
          "internalType": "bool",
          "name": "",
          "type": "bool"
        }
      ],
      "stateMutability": "view",
      "type": "function"
    },
    {
      "inputs": [
        {
          "internalType": "uint256",
          "name": "",
          "type": "uint256"
        }
      ],
      "name": "tokenInfo",
      "outputs": [
        {
          "internalType": "uint256",
          "name": "tokenId",
          "type": "uint256"
        },
        {
          "internalType": "address",
          "name": "creator",
          "type": "address"
        },
        {
          "internalType": "uint256",
          "name": "tokenAmount",
          "type": "uint256"
        },
        {
          "internalType": "uint8",
          "name": "serviceFee",
          "type": "uint8"
        },
        {
          "internalType": "uint256",
          "name": "creationTime",
          "type": "uint256"
        }
      ],
      "stateMutability": "view",
      "type": "function"
    },
    {
      "inputs": [
        {
          "internalType": "uint256",
          "name": "",
          "type": "uint256"
        },
        {
          "internalType": "address",
          "name": "",
          "type": "address"
        }
      ],
      "name": "tokenOwnerInfo",
      "outputs": [
        {
          "internalType": "bool",
          "name": "isForSale",
          "type": "bool"
        },
        {
          "internalType": "uint8",
          "name": "priceType",
          "type": "uint8"
        }
      ],
      "stateMutability": "view",
      "type": "function"
    },
    {
      "inputs": [
        {
          "internalType": "address",
          "name": "newOwner",
          "type": "address"
        }
      ],
      "name": "transferOwnership",
      "outputs": [],
      "stateMutability": "nonpayable",
      "type": "function"
    },
    {
      "inputs": [
        {
          "internalType": "uint256",
          "name": "",
          "type": "uint256"
        }
      ],
      "name": "uri",
      "outputs": [
        {
          "internalType": "string",
          "name": "",
          "type": "string"
        }
      ],
      "stateMutability": "view",
      "type": "function"
    },
    {
      "inputs": [
        {
          "internalType": "uint256",
          "name": "_tokenId",
          "type": "uint256"
        }
      ],
      "name": "creatorOfToken",
      "outputs": [
        {
          "internalType": "address payable",
          "name": "",
          "type": "address"
        }
      ],
      "stateMutability": "view",
      "type": "function"
    },
    {
      "inputs": [
        {
          "internalType": "uint256",
          "name": "_tokenId",
          "type": "uint256"
        }
      ],
      "name": "getServiceFee",
      "outputs": [
        {
          "internalType": "uint8",
          "name": "",
          "type": "uint8"
        }
      ],
      "stateMutability": "view",
      "type": "function"
    },
    {
      "inputs": [
        {
          "internalType": "uint256",
          "name": "_tokenId",
          "type": "uint256"
        },
        {
          "internalType": "address",
          "name": "_owner",
          "type": "address"
        }
      ],
      "name": "getPriceType",
      "outputs": [
        {
          "internalType": "uint8",
          "name": "",
          "type": "uint8"
        }
      ],
      "stateMutability": "view",
      "type": "function"
    },
    {
      "inputs": [
        {
          "internalType": "uint256",
          "name": "_tokenId",
          "type": "uint256"
        }
      ],
      "name": "getTokenAmount",
      "outputs": [
        {
          "internalType": "uint256",
          "name": "",
          "type": "uint256"
        }
      ],
      "stateMutability": "view",
      "type": "function"
    },
    {
      "inputs": [
        {
          "internalType": "uint256",
          "name": "_tokenId",
          "type": "uint256"
        },
        {
          "internalType": "address",
          "name": "_owner",
          "type": "address"
        }
      ],
      "name": "getIsForSale",
      "outputs": [
        {
          "internalType": "bool",
          "name": "",
          "type": "bool"
        }
      ],
      "stateMutability": "view",
      "type": "function"
    },
    {
      "inputs": [
        {
          "internalType": "uint256",
          "name": "_tokenId",
          "type": "uint256"
        }
      ],
      "name": "getOwners",
      "outputs": [
        {
          "internalType": "address[]",
          "name": "owners",
          "type": "address[]"
        }
      ],
      "stateMutability": "view",
      "type": "function"
    },
    {
      "inputs": [
        {
          "internalType": "uint256",
          "name": "_tokenId",
          "type": "uint256"
        },
        {
          "internalType": "address",
          "name": "_owner",
          "type": "address"
        }
      ],
      "name": "getPrices",
      "outputs": [
        {
          "internalType": "uint256[]",
          "name": "prices",
          "type": "uint256[]"
        }
      ],
      "stateMutability": "view",
      "type": "function"
    },
    {
      "inputs": [
        {
          "internalType": "uint256",
          "name": "_tokenId",
          "type": "uint256"
        },
        {
          "internalType": "address",
          "name": "_owner",
          "type": "address"
        }
      ],
      "name": "getBids",
      "outputs": [
        {
          "internalType": "uint256[]",
          "name": "bids",
          "type": "uint256[]"
        }
      ],
      "stateMutability": "view",
      "type": "function"
    },
    {
      "inputs": [
        {
          "internalType": "uint256",
          "name": "_tokenId",
          "type": "uint256"
        },
        {
          "internalType": "address",
          "name": "_owner",
          "type": "address"
        }
      ],
      "name": "getBidders",
      "outputs": [
        {
          "internalType": "address[]",
          "name": "bidders",
          "type": "address[]"
        }
      ],
      "stateMutability": "view",
      "type": "function"
    },
    {
      "inputs": [
        {
          "internalType": "uint256",
          "name": "_tokenId",
          "type": "uint256"
        }
      ],
      "name": "getCreationTime",
      "outputs": [
        {
          "internalType": "uint256",
          "name": "",
          "type": "uint256"
        }
      ],
      "stateMutability": "view",
      "type": "function"
    },
    {
      "inputs": [],
      "name": "getTokenIdsLength",
      "outputs": [
        {
          "internalType": "uint256",
          "name": "",
          "type": "uint256"
        }
      ],
      "stateMutability": "view",
      "type": "function"
    },
    {
      "inputs": [
        {
          "internalType": "uint256",
          "name": "_index",
          "type": "uint256"
        }
      ],
      "name": "getTokenId",
      "outputs": [
        {
          "internalType": "uint256",
          "name": "",
          "type": "uint256"
        }
      ],
      "stateMutability": "view",
      "type": "function"
    },
    {
      "inputs": [
        {
          "internalType": "address",
          "name": "_owner",
          "type": "address"
        }
      ],
      "name": "getOwnerTokens",
      "outputs": [
        {
          "components": [
            {
              "internalType": "uint256",
              "name": "tokenId",
              "type": "uint256"
            },
            {
              "internalType": "address",
              "name": "creator",
              "type": "address"
            },
            {
              "internalType": "uint256",
              "name": "tokenAmount",
              "type": "uint256"
            },
            {
              "internalType": "address[]",
              "name": "owners",
              "type": "address[]"
            },
            {
              "internalType": "uint8",
              "name": "serviceFee",
              "type": "uint8"
            },
            {
              "internalType": "uint256",
              "name": "creationTime",
              "type": "uint256"
            }
          ],
          "internalType": "struct Nafter.TokenInfo[]",
          "name": "tokens",
          "type": "tuple[]"
        },
        {
          "components": [
            {
              "internalType": "bool",
              "name": "isForSale",
              "type": "bool"
            },
            {
              "internalType": "uint8",
              "name": "priceType",
              "type": "uint8"
            },
            {
              "internalType": "uint256[]",
              "name": "prices",
              "type": "uint256[]"
            },
            {
              "internalType": "uint256[]",
              "name": "bids",
              "type": "uint256[]"
            },
            {
              "internalType": "address[]",
              "name": "bidders",
              "type": "address[]"
            }
          ],
          "internalType": "struct Nafter.TokenOwnerInfo[]",
          "name": "ownerInfo",
          "type": "tuple[]"
        }
      ],
      "stateMutability": "view",
      "type": "function"
    },
    {
      "inputs": [
        {
          "internalType": "uint256",
          "name": "_offset",
          "type": "uint256"
        },
        {
          "internalType": "uint256",
          "name": "_limit",
          "type": "uint256"
        }
      ],
      "name": "getTokensPaging",
      "outputs": [
        {
          "components": [
            {
              "internalType": "uint256",
              "name": "tokenId",
              "type": "uint256"
            },
            {
              "internalType": "address",
              "name": "creator",
              "type": "address"
            },
            {
              "internalType": "uint256",
              "name": "tokenAmount",
              "type": "uint256"
            },
            {
              "internalType": "address[]",
              "name": "owners",
              "type": "address[]"
            },
            {
              "internalType": "uint8",
              "name": "serviceFee",
              "type": "uint8"
            },
            {
              "internalType": "uint256",
              "name": "creationTime",
              "type": "uint256"
            }
          ],
          "internalType": "struct Nafter.TokenInfo[]",
          "name": "tokens",
          "type": "tuple[]"
        },
        {
          "internalType": "uint256",
          "name": "nextOffset",
          "type": "uint256"
        },
        {
          "internalType": "uint256",
          "name": "total",
          "type": "uint256"
        }
      ],
      "stateMutability": "view",
      "type": "function"
    },
    {
      "inputs": [
        {
          "internalType": "address",
          "name": "_oldAddress",
          "type": "address"
        },
        {
          "internalType": "uint256",
          "name": "_startIndex",
          "type": "uint256"
        },
        {
          "internalType": "uint256",
          "name": "_endIndex",
          "type": "uint256"
        }
      ],
      "name": "restore",
      "outputs": [],
      "stateMutability": "nonpayable",
      "type": "function"
    },
    {
      "inputs": [
        {
          "internalType": "uint256",
          "name": "_tokenAmount",
          "type": "uint256"
        },
        {
          "internalType": "uint256",
          "name": "_tokenId",
          "type": "uint256"
        }
      ],
      "name": "setTokenAmount",
      "outputs": [],
      "stateMutability": "nonpayable",
      "type": "function"
    },
    {
      "inputs": [
        {
          "internalType": "bool",
          "name": "_isForSale",
          "type": "bool"
        },
        {
          "internalType": "uint256",
          "name": "_tokenId",
          "type": "uint256"
        }
      ],
      "name": "setIsForSale",
      "outputs": [],
      "stateMutability": "nonpayable",
      "type": "function"
    },
    {
      "inputs": [
        {
          "internalType": "uint8",
          "name": "_priceType",
          "type": "uint8"
        },
        {
          "internalType": "uint256",
          "name": "_price",
          "type": "uint256"
        },
        {
          "internalType": "uint256",
          "name": "_startTime",
          "type": "uint256"
        },
        {
          "internalType": "uint256",
          "name": "_endTime",
          "type": "uint256"
        },
        {
          "internalType": "uint256",
          "name": "_tokenId",
          "type": "uint256"
        },
        {
          "internalType": "address",
          "name": "_owner",
          "type": "address"
        }
      ],
      "name": "putOnSale",
      "outputs": [],
      "stateMutability": "nonpayable",
      "type": "function"
    },
    {
      "inputs": [
        {
          "internalType": "uint256",
          "name": "_tokenId",
          "type": "uint256"
        },
        {
          "internalType": "address",
          "name": "_owner",
          "type": "address"
        }
      ],
      "name": "removeFromSale",
      "outputs": [],
      "stateMutability": "nonpayable",
      "type": "function"
    },
    {
      "inputs": [
        {
          "internalType": "uint8",
          "name": "_priceType",
          "type": "uint8"
        },
        {
          "internalType": "uint256",
          "name": "_tokenId",
          "type": "uint256"
        }
      ],
      "name": "setPriceType",
      "outputs": [],
      "stateMutability": "nonpayable",
      "type": "function"
    },
    {
      "inputs": [
        {
          "internalType": "address",
          "name": "_marketAuction",
          "type": "address"
        },
        {
          "internalType": "address",
          "name": "_marketplaceSettings",
          "type": "address"
        },
        {
          "internalType": "address",
          "name": "_tokenCreatorRigistry",
          "type": "address"
        },
        {
          "internalType": "address",
          "name": "_royaltyRegistry",
          "type": "address"
        }
      ],
      "name": "setMarketAddresses",
      "outputs": [],
      "stateMutability": "nonpayable",
      "type": "function"
    },
    {
      "inputs": [
        {
          "internalType": "uint256",
          "name": "_price",
          "type": "uint256"
        },
        {
          "internalType": "uint256",
          "name": "_tokenId",
          "type": "uint256"
        },
        {
          "internalType": "address",
          "name": "_owner",
          "type": "address"
        }
      ],
      "name": "setPrice",
      "outputs": [],
      "stateMutability": "nonpayable",
      "type": "function"
    },
    {
      "inputs": [
        {
          "internalType": "uint256",
          "name": "_bid",
          "type": "uint256"
        },
        {
          "internalType": "address",
          "name": "_bidder",
          "type": "address"
        },
        {
          "internalType": "uint256",
          "name": "_tokenId",
          "type": "uint256"
        },
        {
          "internalType": "address",
          "name": "_owner",
          "type": "address"
        }
      ],
      "name": "setBid",
      "outputs": [],
      "stateMutability": "nonpayable",
      "type": "function"
    },
    {
      "inputs": [
        {
          "internalType": "uint256",
          "name": "_tokenAmount",
          "type": "uint256"
        },
        {
          "internalType": "bool",
          "name": "_isForSale",
          "type": "bool"
        },
        {
          "internalType": "uint8",
          "name": "_priceType",
          "type": "uint8"
        },
        {
          "internalType": "uint8",
          "name": "_royaltyPercentage",
          "type": "uint8"
        }
      ],
      "name": "addNewToken",
      "outputs": [],
      "stateMutability": "nonpayable",
      "type": "function"
    },
    {
      "inputs": [
        {
          "internalType": "uint256",
          "name": "_tokenAmount",
          "type": "uint256"
        },
        {
          "internalType": "bool",
          "name": "_isForSale",
          "type": "bool"
        },
        {
          "internalType": "uint8",
          "name": "_priceType",
          "type": "uint8"
        },
        {
          "internalType": "uint8",
          "name": "_royaltyPercentage",
          "type": "uint8"
        },
        {
          "internalType": "uint256",
          "name": "_tokenId",
          "type": "uint256"
        }
      ],
      "name": "addNewTokenWithId",
      "outputs": [],
      "stateMutability": "nonpayable",
      "type": "function"
    },
    {
      "inputs": [
        {
          "internalType": "uint256",
          "name": "_tokenAmount",
          "type": "uint256"
        },
        {
          "internalType": "bool",
          "name": "_isForSale",
          "type": "bool"
        },
        {
          "internalType": "uint256",
          "name": "_price",
          "type": "uint256"
        },
        {
          "internalType": "uint8",
          "name": "_priceType",
          "type": "uint8"
        },
        {
          "internalType": "uint8",
          "name": "_royaltyPercentage",
          "type": "uint8"
        },
        {
          "internalType": "uint256",
          "name": "_startTime",
          "type": "uint256"
        },
        {
          "internalType": "uint256",
          "name": "_endTime",
          "type": "uint256"
        }
      ],
      "name": "addNewTokenAndSetThePrice",
      "outputs": [],
      "stateMutability": "nonpayable",
      "type": "function"
    },
    {
      "inputs": [
        {
          "internalType": "uint256",
          "name": "_tokenAmount",
          "type": "uint256"
        },
        {
          "internalType": "bool",
          "name": "_isForSale",
          "type": "bool"
        },
        {
          "internalType": "uint256",
          "name": "_price",
          "type": "uint256"
        },
        {
          "internalType": "uint8",
          "name": "_priceType",
          "type": "uint8"
        },
        {
          "internalType": "uint8",
          "name": "_royaltyPercentage",
          "type": "uint8"
        },
        {
          "internalType": "uint256",
          "name": "_startTime",
          "type": "uint256"
        },
        {
          "internalType": "uint256",
          "name": "_endTime",
          "type": "uint256"
        },
        {
          "internalType": "uint256",
          "name": "_tokenId",
          "type": "uint256"
        }
      ],
      "name": "addNewTokenAndSetThePriceWithId",
      "outputs": [],
      "stateMutability": "nonpayable",
      "type": "function"
    },
    {
      "inputs": [
        {
          "internalType": "uint256",
          "name": "_tokenId",
          "type": "uint256"
        },
        {
          "internalType": "uint256",
          "name": "_amount",
          "type": "uint256"
        }
      ],
      "name": "deleteToken",
      "outputs": [],
      "stateMutability": "nonpayable",
      "type": "function"
    },
    {
      "inputs": [
        {
          "internalType": "string",
          "name": "_uri",
          "type": "string"
        }
      ],
      "name": "setURI",
      "outputs": [],
      "stateMutability": "nonpayable",
      "type": "function"
    },
    {
      "inputs": [
        {
          "internalType": "address",
          "name": "from",
          "type": "address"
        },
        {
          "internalType": "address",
          "name": "to",
          "type": "address"
        },
        {
          "internalType": "uint256",
          "name": "id",
          "type": "uint256"
        },
        {
          "internalType": "uint256",
          "name": "amount",
          "type": "uint256"
        },
        {
          "internalType": "bytes",
          "name": "data",
          "type": "bytes"
        }
      ],
      "name": "safeTransferFrom",
      "outputs": [],
      "stateMutability": "nonpayable",
      "type": "function"
    },
    {
      "inputs": [],
      "name": "getLastTokenId",
      "outputs": [
        {
          "internalType": "uint256",
          "name": "",
          "type": "uint256"
        }
      ],
      "stateMutability": "view",
      "type": "function"
    },
    {
      "inputs": [],
      "name": "getTokenIdAvailable",
      "outputs": [
        {
          "internalType": "uint256",
          "name": "",
          "type": "uint256"
        }
      ],
      "stateMutability": "view",
      "type": "function"
    }
  ],
  "bytecode": "0x60806040523480156200001157600080fd5b50604051620082c2380380620082c2833981810160405281019062000037919062000348565b80620000506301ffc9a760e01b6200014a60201b60201c565b62000061816200022260201b60201c565b6200007963d9b67a2660e01b6200014a60201b60201c565b62000091630e89341c60e01b6200014a60201b60201c565b506000620000a46200023e60201b60201c565b905080600460006101000a81548173ffffffffffffffffffffffffffffffffffffffff021916908373ffffffffffffffffffffffffffffffffffffffff1602179055508073ffffffffffffffffffffffffffffffffffffffff16600073ffffffffffffffffffffffffffffffffffffffff167f8be0079c531659141344cd1fd0a4f28419497f9722a3daafe3b4186f6b6457e060405160405180910390a3505062000493565b63ffffffff60e01b817bffffffffffffffffffffffffffffffffffffffffffffffffffffffff19161415620001b6576040517f08c379a0000000000000000000000000000000000000000000000000000000008152600401620001ad90620003cf565b60405180910390fd5b6001600080837bffffffffffffffffffffffffffffffffffffffffffffffffffffffff19167bffffffffffffffffffffffffffffffffffffffffffffffffffffffff1916815260200190815260200160002060006101000a81548160ff02191690831515021790555050565b80600390805190602001906200023a92919062000246565b5050565b600033905090565b828054600181600116156101000203166002900490600052602060002090601f016020900481019282601f106200028957805160ff1916838001178555620002ba565b82800160010185558215620002ba579182015b82811115620002b95782518255916020019190600101906200029c565b5b509050620002c99190620002cd565b5090565b5b80821115620002e8576000816000905550600101620002ce565b5090565b600082601f830112620002fe57600080fd5b8151620003156200030f826200041f565b620003f1565b915080825260208301602083018583830111156200033257600080fd5b6200033f8382846200045d565b50505092915050565b6000602082840312156200035b57600080fd5b600082015167ffffffffffffffff8111156200037657600080fd5b6200038484828501620002ec565b91505092915050565b60006200039c601c836200044c565b91507f4552433136353a20696e76616c696420696e74657266616365206964000000006000830152602082019050919050565b60006020820190508181036000830152620003ea816200038d565b9050919050565b6000604051905081810181811067ffffffffffffffff821117156200041557600080fd5b8060405250919050565b600067ffffffffffffffff8211156200043757600080fd5b601f19601f8301169050602081019050919050565b600082825260208201905092915050565b60005b838110156200047d57808201518184015260208101905062000460565b838111156200048d576000848401525b50505050565b617e1f80620004a36000396000f3fe608060405234801561001057600080fd5b50600436106102945760003560e01c80639b2b0a3d11610167578063cd89c0e2116100ce578063ee4525d511610087578063ee4525d5146108a5578063f242432a146108d5578063f2fde38b146108f1578063f30824f31461090d578063f60e597114610929578063f83fcdea1461095957610294565b8063cd89c0e214610798578063d58778d6146107b4578063d5da8d44146107e4578063d63d4af014610814578063d6e1f4b214610845578063e985e9c51461087557610294565b8063b357ae5111610120578063b357ae51146106ac578063b8ae4e27146106dc578063c2507ac1146106f8578063c5ea3c6514610728578063cc33c87514610746578063cc8c3c451461077a57610294565b80639b2b0a3d146105d95780639fc968de1461060a578063a12c907e1461063a578063a22cb46514610656578063adb4f2c014610672578063ae2f9ead1461068e57610294565b80632eb2c2d61161020b57806384ec6db6116101c457806384ec6db6146104f157806387430bf11461050d5780638da5cb5b1461053f57806396457ba91461055d578063974e8d381461058d57806397ec23cb146105a957610294565b80632eb2c2d6146104455780633e8171d9146104615780634e1273f41461047d578063715018a6146104ad5780637cefb7e4146104b757806383c4c00d146104d357610294565b80631857aca01161025d5780631857aca0146103755780631b65e4e2146103a55780631d4ce500146103c157806320918bb1146103f15780632175394d1461040d5780632223146d1461042957610294565b8062fdd58e1461029957806301ffc9a7146102c957806302fe5305146102f95780630e89341c1461031557806314ff5ea314610345575b600080fd5b6102b360048036038101906102ae9190615dba565b610975565b6040516102c0919061773f565b60405180910390f35b6102e360048036038101906102de9190615f98565b610a3f565b6040516102f091906173f9565b60405180910390f35b610313600480360381019061030e9190615fea565b610aa6565b005b61032f600480360381019061032a919061602b565b610b80565b60405161033c919061743d565b60405180910390f35b61035f600480360381019061035a919061602b565b610c24565b60405161036c919061773f565b60405180910390f35b61038f600480360381019061038a919061607d565b610c45565b60405161039c91906173a0565b60405180910390f35b6103bf60048036038101906103ba919061607d565b610cf1565b005b6103db60048036038101906103d6919061602b565b610e0b565b6040516103e89190617904565b60405180910390f35b61040b600480360381019061040691906162cf565b610e38565b005b61042760048036038101906104229190616346565b610e8d565b005b610443600480360381019061043e91906163fa565b610f8b565b005b61045f600480360381019061045a9190615c30565b61104f565b005b61047b60048036038101906104769190615f5c565b611410565b005b61049760048036038101906104929190615e86565b6114d3565b6040516104a491906173a0565b60405180910390f35b6104b5611699565b005b6104d160048036038101906104cc91906161ba565b6117f1565b005b6104db611856565b6040516104e8919061773f565b60405180910390f35b61050b6004803603810190610506919061611c565b61187d565b005b61052760048036038101906105229190616346565b6118a3565b60405161053693929190617362565b60405180910390f35b610547611ac6565b6040516105549190617188565b60405180910390f35b6105776004803603810190610572919061607d565b611af0565b60405161058491906173f9565b60405180910390f35b6105a760048036038101906105a29190616346565b611b5b565b005b6105c360048036038101906105be919061602b565b611d1d565b6040516105d0919061773f565b60405180910390f35b6105f360048036038101906105ee919061607d565b611d3d565b604051610601929190617414565b60405180910390f35b610624600480360381019061061f919061607d565b611d88565b6040516106319190617309565b60405180910390f35b610654600480360381019061064f9190615bcd565b611e6a565b005b610670600480360381019061066b9190615d7e565b61200b565b005b61068c6004803603810190610687919061626c565b61218c565b005b6106966121df565b6040516106a3919061773f565b60405180910390f35b6106c660048036038101906106c1919061602b565b612241565b6040516106d391906173f9565b60405180910390f35b6106f660048036038101906106f19190615df6565b612261565b005b610712600480360381019061070d919061602b565b612e99565b60405161071f919061773f565b60405180910390f35b610730612eb9565b60405161073d919061773f565b60405180910390f35b610760600480360381019061075b919061602b565b612ebf565b6040516107719594939291906177d5565b60405180910390f35b610782612f22565b60405161078f919061773f565b60405180910390f35b6107b260048036038101906107ad91906160b9565b612f2f565b005b6107ce60048036038101906107c9919061602b565b6130aa565b6040516107db919061773f565b60405180910390f35b6107fe60048036038101906107f9919061602b565b6130cb565b60405161080b91906171a3565b60405180910390f35b61082e60048036038101906108299190615b3f565b61310b565b60405161083c92919061732b565b60405180910390f35b61085f600480360381019061085a919061607d565b61377d565b60405161086c9190617904565b60405180910390f35b61088f600480360381019061088a9190615b91565b6137e8565b60405161089c91906173f9565b60405180910390f35b6108bf60048036038101906108ba919061602b565b61387c565b6040516108cc9190617309565b60405180910390f35b6108ef60048036038101906108ea9190615cef565b613920565b005b61090b60048036038101906109069190615b3f565b613ab8565b005b61092760048036038101906109229190616436565b613c7f565b005b610943600480360381019061093e919061607d565b613f01565b60405161095091906173a0565b60405180910390f35b610973600480360381019061096e9190616382565b613fad565b005b60008073ffffffffffffffffffffffffffffffffffffffff168373ffffffffffffffffffffffffffffffffffffffff1614156109e6576040517f08c379a00000000000000000000000000000000000000000000000000000000081526004016109dd9061749f565b60405180910390fd5b6001600083815260200190815260200160002060008473ffffffffffffffffffffffffffffffffffffffff1673ffffffffffffffffffffffffffffffffffffffff16815260200190815260200160002054905092915050565b6000806000837bffffffffffffffffffffffffffffffffffffffffffffffffffffffff19167bffffffffffffffffffffffffffffffffffffffffffffffffffffffff1916815260200190815260200160002060009054906101000a900460ff169050919050565b610aae6140c2565b73ffffffffffffffffffffffffffffffffffffffff16600460009054906101000a900473ffffffffffffffffffffffffffffffffffffffff1673ffffffffffffffffffffffffffffffffffffffff1614610b3d576040517f08c379a0000000000000000000000000000000000000000000000000000000008152600401610b349061761f565b60405180910390fd5b610b46816140ca565b7f562bf0237fa5139edc73ec903039c3a552e19ae62cc8292da62afeea43024b0a81604051610b75919061743d565b60405180910390a150565b606060038054600181600116156101000203166002900480601f016020809104026020016040519081016040528092919081815260200182805460018160011615610100020316600290048015610c185780601f10610bed57610100808354040283529160200191610c18565b820191906000526020600020905b815481529060010190602001808311610bfb57829003601f168201915b50505050509050919050565b6000600c8281548110610c3357fe5b90600052602060002001549050919050565b6060600a600084815260200190815260200160002060008373ffffffffffffffffffffffffffffffffffffffff1673ffffffffffffffffffffffffffffffffffffffff168152602001908152602001600020600101805480602002602001604051908101604052809291908181526020018280548015610ce457602002820191906000526020600020905b815481526020019060010190808311610cd0575b5050505050905092915050565b6000610cfd3384610975565b90506000811180610d5b5750600560009054906101000a900473ffffffffffffffffffffffffffffffffffffffff1673ffffffffffffffffffffffffffffffffffffffff163373ffffffffffffffffffffffffffffffffffffffff16145b610d9a576040517f08c379a0000000000000000000000000000000000000000000000000000000008152600401610d919061763f565b60405180910390fd5b6000600a600085815260200190815260200160002060008473ffffffffffffffffffffffffffffffffffffffff1673ffffffffffffffffffffffffffffffffffffffff16815260200190815260200160002060000160006101000a81548160ff021916908315150217905550505050565b60006009600083815260200190815260200160002060040160009054906101000a900460ff169050919050565b6000610e4a33878760008888886140e4565b90507ffd699276e7e1c4880488b6dd7700bff6486187ff3990c14c27c658ed87d3a9dd3382604051610e7d9291906171be565b60405180910390a1505050505050565b8060006009600083815260200190815260200160002060010160009054906101000a900473ffffffffffffffffffffffffffffffffffffffff1690503373ffffffffffffffffffffffffffffffffffffffff168173ffffffffffffffffffffffffffffffffffffffff1614610f37576040517f08c379a0000000000000000000000000000000000000000000000000000000008152600401610f2e9061765f565b60405180910390fd5b836009600085815260200190815260200160002060020154016009600085815260200190815260200160002060020181905550610f85338486604051806020016040528060008152506147ea565b50505050565b806000610f983383610975565b905060008111610fdd576040517f08c379a0000000000000000000000000000000000000000000000000000000008152600401610fd49061751f565b60405180910390fd5b83600a600085815260200190815260200160002060003373ffffffffffffffffffffffffffffffffffffffff1673ffffffffffffffffffffffffffffffffffffffff16815260200190815260200160002060000160016101000a81548160ff021916908360ff16021790555050505050565b8151835114611093576040517f08c379a000000000000000000000000000000000000000000000000000000000815260040161108a906176ff565b60405180910390fd5b600073ffffffffffffffffffffffffffffffffffffffff168473ffffffffffffffffffffffffffffffffffffffff161415611103576040517f08c379a00000000000000000000000000000000000000000000000000000000081526004016110fa906175bf565b60405180910390fd5b61110b6140c2565b73ffffffffffffffffffffffffffffffffffffffff168573ffffffffffffffffffffffffffffffffffffffff16148061115157506111508561114b6140c2565b6137e8565b5b611190576040517f08c379a0000000000000000000000000000000000000000000000000000000008152600401611187906175df565b60405180910390fd5b600061119a6140c2565b90506111aa8187878787876149d1565b60005b845181101561137b5760008582815181106111c457fe5b6020026020010151905060008583815181106111dc57fe5b60200260200101519050611263816040518060600160405280602a8152602001617dc0602a91396001600086815260200190815260200160002060008d73ffffffffffffffffffffffffffffffffffffffff1673ffffffffffffffffffffffffffffffffffffffff168152602001908152602001600020546149d99092919063ffffffff16565b6001600084815260200190815260200160002060008b73ffffffffffffffffffffffffffffffffffffffff1673ffffffffffffffffffffffffffffffffffffffff1681526020019081526020016000208190555061131a816001600085815260200190815260200160002060008b73ffffffffffffffffffffffffffffffffffffffff1673ffffffffffffffffffffffffffffffffffffffff16815260200190815260200160002054614a3490919063ffffffff16565b6001600084815260200190815260200160002060008a73ffffffffffffffffffffffffffffffffffffffff1673ffffffffffffffffffffffffffffffffffffffff1681526020019081526020016000208190555050508060010190506111ad565b508473ffffffffffffffffffffffffffffffffffffffff168673ffffffffffffffffffffffffffffffffffffffff168273ffffffffffffffffffffffffffffffffffffffff167f4a39dc06d4c0dbc64b70af90fd698a233a518aa5d07e595d983b8c0526c8f7fb87876040516113f29291906173c2565b60405180910390a4611408818787878787614a89565b505050505050565b80600061141d3383610975565b905060008111611462576040517f08c379a00000000000000000000000000000000000000000000000000000000081526004016114599061751f565b60405180910390fd5b83600a600085815260200190815260200160002060003373ffffffffffffffffffffffffffffffffffffffff1673ffffffffffffffffffffffffffffffffffffffff16815260200190815260200160002060000160006101000a81548160ff02191690831515021790555050505050565b60608151835114611519576040517f08c379a0000000000000000000000000000000000000000000000000000000008152600401611510906176df565b60405180910390fd5b6060835167ffffffffffffffff8111801561153357600080fd5b506040519080825280602002602001820160405280156115625781602001602082028036833780820191505090505b50905060005b845181101561168e57600073ffffffffffffffffffffffffffffffffffffffff1685828151811061159557fe5b602002602001015173ffffffffffffffffffffffffffffffffffffffff1614156115f4576040517f08c379a00000000000000000000000000000000000000000000000000000000081526004016115eb906174bf565b60405180910390fd5b6001600085838151811061160457fe5b60200260200101518152602001908152602001600020600086838151811061162857fe5b602002602001015173ffffffffffffffffffffffffffffffffffffffff1673ffffffffffffffffffffffffffffffffffffffff1681526020019081526020016000205482828151811061167757fe5b602002602001018181525050806001019050611568565b508091505092915050565b6116a16140c2565b73ffffffffffffffffffffffffffffffffffffffff16600460009054906101000a900473ffffffffffffffffffffffffffffffffffffffff1673ffffffffffffffffffffffffffffffffffffffff1614611730576040517f08c379a00000000000000000000000000000000000000000000000000000000081526004016117279061761f565b60405180910390fd5b600073ffffffffffffffffffffffffffffffffffffffff16600460009054906101000a900473ffffffffffffffffffffffffffffffffffffffff1673ffffffffffffffffffffffffffffffffffffffff167f8be0079c531659141344cd1fd0a4f28419497f9722a3daafe3b4186f6b6457e060405160405180910390a36000600460006101000a81548173ffffffffffffffffffffffffffffffffffffffff021916908373ffffffffffffffffffffffffffffffffffffffff160217905550565b6000611802338a8a8a8a8a886140e4565b9050611812868886868533613c7f565b7ffd699276e7e1c4880488b6dd7700bff6486187ff3990c14c27c658ed87d3a9dd33826040516118439291906171be565b60405180910390a1505050505050505050565b6000600c6001600c80549050038154811061186d57fe5b9060005260206000200154905090565b60006118876121df565b905061189988888888888888886117f1565b5050505050505050565b60606000806000600c80549050905060008514156118c057600194505b8581038511156118d05785810394505b60608567ffffffffffffffff811180156118e957600080fd5b5060405190808252806020026020018201604052801561192357816020015b611910615572565b8152602001906001900390816119085790505b50905060005b86811015611ab1576000600c828a018154811061194257fe5b90600052602060002001549050600960008281526020019081526020016000206040518060c0016040529081600082015481526020016001820160009054906101000a900473ffffffffffffffffffffffffffffffffffffffff1673ffffffffffffffffffffffffffffffffffffffff1673ffffffffffffffffffffffffffffffffffffffff1681526020016002820154815260200160038201805480602002602001604051908101604052809291908181526020018280548015611a5c57602002820191906000526020600020905b8160009054906101000a900473ffffffffffffffffffffffffffffffffffffffff1673ffffffffffffffffffffffffffffffffffffffff1681526020019060010190808311611a12575b505050505081526020016004820160009054906101000a900460ff1660ff1660ff168152602001600582015481525050838381518110611a9857fe5b6020026020010181905250508080600101915050611929565b50808688018394509450945050509250925092565b6000600460009054906101000a900473ffffffffffffffffffffffffffffffffffffffff16905090565b6000600a600084815260200190815260200160002060008373ffffffffffffffffffffffffffffffffffffffff1673ffffffffffffffffffffffffffffffffffffffff16815260200190815260200160002060000160009054906101000a900460ff16905092915050565b816000611b683383610975565b905060008111611bad576040517f08c379a0000000000000000000000000000000000000000000000000000000008152600401611ba49061751f565b60405180910390fd5b6000600560009054906101000a900473ffffffffffffffffffffffffffffffffffffffff1673ffffffffffffffffffffffffffffffffffffffff16634637c4ed86336040518363ffffffff1660e01b8152600401611c0c929190617783565b60206040518083038186803b158015611c2457600080fd5b505afa158015611c38573d6000803e3d6000fd5b505050506040513d601f19601f82011682018060405250810190611c5c9190615f33565b90506000611c6a3387610975565b9050600115158215151415611ccf576000611c8e8683614c5990919063ffffffff16565b11611cce576040517f08c379a0000000000000000000000000000000000000000000000000000000008152600401611cc59061759f565b60405180910390fd5b5b611cda338787614ca3565b7f3c4b1dbc0ea6d3fb1181d2239a7ff737415541752716c27bdfb3c402b607b209338787604051611d0d939291906171e7565b60405180910390a1505050505050565b600060096000838152602001908152602001600020600501549050919050565b600a602052816000526040600020602052806000526040600020600091509150508060000160009054906101000a900460ff16908060000160019054906101000a900460ff16905082565b6060600a600084815260200190815260200160002060008373ffffffffffffffffffffffffffffffffffffffff1673ffffffffffffffffffffffffffffffffffffffff168152602001908152602001600020600301805480602002602001604051908101604052809291908181526020018280548015611e5d57602002820191906000526020600020905b8160009054906101000a900473ffffffffffffffffffffffffffffffffffffffff1673ffffffffffffffffffffffffffffffffffffffff1681526020019060010190808311611e13575b5050505050905092915050565b611e726140c2565b73ffffffffffffffffffffffffffffffffffffffff16600460009054906101000a900473ffffffffffffffffffffffffffffffffffffffff1673ffffffffffffffffffffffffffffffffffffffff1614611f01576040517f08c379a0000000000000000000000000000000000000000000000000000000008152600401611ef89061761f565b60405180910390fd5b83600560006101000a81548173ffffffffffffffffffffffffffffffffffffffff021916908373ffffffffffffffffffffffffffffffffffffffff16021790555082600660006101000a81548173ffffffffffffffffffffffffffffffffffffffff021916908373ffffffffffffffffffffffffffffffffffffffff16021790555081600860006101000a81548173ffffffffffffffffffffffffffffffffffffffff021916908373ffffffffffffffffffffffffffffffffffffffff16021790555080600760006101000a81548173ffffffffffffffffffffffffffffffffffffffff021916908373ffffffffffffffffffffffffffffffffffffffff16021790555050505050565b8173ffffffffffffffffffffffffffffffffffffffff1661202a6140c2565b73ffffffffffffffffffffffffffffffffffffffff161415612081576040517f08c379a0000000000000000000000000000000000000000000000000000000008152600401612078906176bf565b60405180910390fd5b806002600061208e6140c2565b73ffffffffffffffffffffffffffffffffffffffff1673ffffffffffffffffffffffffffffffffffffffff16815260200190815260200160002060008473ffffffffffffffffffffffffffffffffffffffff1673ffffffffffffffffffffffffffffffffffffffff16815260200190815260200160002060006101000a81548160ff0219169083151502179055508173ffffffffffffffffffffffffffffffffffffffff1661213b6140c2565b73ffffffffffffffffffffffffffffffffffffffff167f17307eab39ab6107e8899845ad3d59bd9653f200f220920489ca2b5937696c318360405161218091906173f9565b60405180910390a35050565b600061219d33868660008787614ea3565b90507ffd699276e7e1c4880488b6dd7700bff6486187ff3990c14c27c658ed87d3a9dd33826040516121d09291906171be565b60405180910390a15050505050565b600080600090505b600d548110156122345760001515600b600083815260200190815260200160002060009054906101000a900460ff1615151415612227578091505061223e565b80806001019150506121e7565b50600c8054905090505b90565b600b6020528060005260406000206000915054906101000a900460ff1681565b6122696140c2565b73ffffffffffffffffffffffffffffffffffffffff16600460009054906101000a900473ffffffffffffffffffffffffffffffffffffffff1673ffffffffffffffffffffffffffffffffffffffff16146122f8576040517f08c379a00000000000000000000000000000000000000000000000000000000081526004016122ef9061761f565b60405180910390fd5b600083905060008173ffffffffffffffffffffffffffffffffffffffff1663cc8c3c456040518163ffffffff1660e01b815260040160206040518083038186803b15801561234557600080fd5b505afa158015612359573d6000803e3d6000fd5b505050506040513d601f19601f8201168201806040525081019061237d9190616054565b90508084106123c1576040517f08c379a00000000000000000000000000000000000000000000000000000000081526004016123b89061757f565b60405180910390fd5b80831115612404576040517f08c379a00000000000000000000000000000000000000000000000000000000081526004016123fb9061755f565b60405180910390fd5b60008490505b83811015612e0d5760008373ffffffffffffffffffffffffffffffffffffffff166314ff5ea3836040518263ffffffff1660e01b815260040161244d919061773f565b60206040518083038186803b15801561246557600080fd5b505afa158015612479573d6000803e3d6000fd5b505050506040513d601f19601f8201168201806040525081019061249d9190616054565b9050600c8190806001815401808255809150506001900390600052602060002001600090919091909150556040518060c001604052808281526020018573ffffffffffffffffffffffffffffffffffffffff1663d5da8d44846040518263ffffffff1660e01b8152600401612512919061773f565b60206040518083038186803b15801561252a57600080fd5b505afa15801561253e573d6000803e3d6000fd5b505050506040513d601f19601f820116820180604052508101906125629190615b68565b73ffffffffffffffffffffffffffffffffffffffff1681526020018573ffffffffffffffffffffffffffffffffffffffff1663c2507ac1846040518263ffffffff1660e01b81526004016125b6919061773f565b60206040518083038186803b1580156125ce57600080fd5b505afa1580156125e2573d6000803e3d6000fd5b505050506040513d601f19601f820116820180604052508101906126069190616054565b81526020018573ffffffffffffffffffffffffffffffffffffffff1663ee4525d5846040518263ffffffff1660e01b8152600401612644919061773f565b60006040518083038186803b15801561265c57600080fd5b505afa158015612670573d6000803e3d6000fd5b505050506040513d6000823e3d601f19601f820116820180604052508101906126999190615e45565b81526020018573ffffffffffffffffffffffffffffffffffffffff16631d4ce500846040518263ffffffff1660e01b81526004016126d7919061773f565b60206040518083038186803b1580156126ef57600080fd5b505afa158015612703573d6000803e3d6000fd5b505050506040513d601f19601f8201168201806040525081019061272791906163d1565b60ff1681526020018573ffffffffffffffffffffffffffffffffffffffff166397ec23cb846040518263ffffffff1660e01b8152600401612768919061773f565b60206040518083038186803b15801561278057600080fd5b505afa158015612794573d6000803e3d6000fd5b505050506040513d601f19601f820116820180604052508101906127b89190616054565b815250600960008381526020019081526020016000206000820151816000015560208201518160010160006101000a81548173ffffffffffffffffffffffffffffffffffffffff021916908373ffffffffffffffffffffffffffffffffffffffff1602179055506040820151816002015560608201518160030190805190602001906128459291906155c1565b5060808201518160040160006101000a81548160ff021916908360ff16021790555060a0820151816005015590505060606009600083815260200190815260200160002060030180548060200260200160405190810160405280929190818152602001828054801561290c57602002820191906000526020600020905b8160009054906101000a900473ffffffffffffffffffffffffffffffffffffffff1673ffffffffffffffffffffffffffffffffffffffff16815260200190600101908083116128c2575b5050505050905060005b8151811015612dd157600082828151811061292d57fe5b602002602001015190506040518060a001604052808873ffffffffffffffffffffffffffffffffffffffff166396457ba987856040518363ffffffff1660e01b815260040161297d92919061775a565b60206040518083038186803b15801561299557600080fd5b505afa1580156129a9573d6000803e3d6000fd5b505050506040513d601f19601f820116820180604052508101906129cd9190615f33565b151581526020018873ffffffffffffffffffffffffffffffffffffffff1663d6e1f4b287856040518363ffffffff1660e01b8152600401612a0f92919061775a565b60206040518083038186803b158015612a2757600080fd5b505afa158015612a3b573d6000803e3d6000fd5b505050506040513d601f19601f82011682018060405250810190612a5f91906163d1565b60ff1681526020018873ffffffffffffffffffffffffffffffffffffffff16631857aca087856040518363ffffffff1660e01b8152600401612aa292919061775a565b60006040518083038186803b158015612aba57600080fd5b505afa158015612ace573d6000803e3d6000fd5b505050506040513d6000823e3d601f19601f82011682018060405250810190612af79190615ef2565b81526020018873ffffffffffffffffffffffffffffffffffffffff1663f60e597187856040518363ffffffff1660e01b8152600401612b3792919061775a565b60006040518083038186803b158015612b4f57600080fd5b505afa158015612b63573d6000803e3d6000fd5b505050506040513d6000823e3d601f19601f82011682018060405250810190612b8c9190615ef2565b81526020018873ffffffffffffffffffffffffffffffffffffffff16639fc968de87856040518363ffffffff1660e01b8152600401612bcc92919061775a565b60006040518083038186803b158015612be457600080fd5b505afa158015612bf8573d6000803e3d6000fd5b505050506040513d6000823e3d601f19601f82011682018060405250810190612c219190615e45565b815250600a600086815260200190815260200160002060008373ffffffffffffffffffffffffffffffffffffffff1673ffffffffffffffffffffffffffffffffffffffff16815260200190815260200160002060008201518160000160006101000a81548160ff02191690831515021790555060208201518160000160016101000a81548160ff021916908360ff1602179055506040820151816001019080519060200190612cd192919061564b565b506060820151816002019080519060200190612cee92919061564b565b506080820151816003019080519060200190612d0b9291906155c1565b5090505060008773ffffffffffffffffffffffffffffffffffffffff1662fdd58e83876040518363ffffffff1660e01b8152600401612d4b9291906172e0565b60206040518083038186803b158015612d6357600080fd5b505afa158015612d77573d6000803e3d6000fd5b505050506040513d601f19601f82011682018060405250810190612d9b9190616054565b90506000811115612dc257612dc1828683604051806020016040528060008152506147ea565b5b50508080600101915050612916565b506001600b600084815260200190815260200160002060006101000a81548160ff0219169083151502179055505050808060010191505061240a565b508173ffffffffffffffffffffffffffffffffffffffff1663c5ea3c656040518163ffffffff1660e01b815260040160206040518083038186803b158015612e5457600080fd5b505afa158015612e68573d6000803e3d6000fd5b505050506040513d601f19601f82011682018060405250810190612e8c9190616054565b600d819055505050505050565b600060096000838152602001908152602001600020600201549050919050565b600d5481565b60096020528060005260406000206000915090508060000154908060010160009054906101000a900473ffffffffffffffffffffffffffffffffffffffff16908060020154908060040160009054906101000a900460ff16908060050154905085565b6000600c80549050905090565b600560009054906101000a900473ffffffffffffffffffffffffffffffffffffffff1673ffffffffffffffffffffffffffffffffffffffff163373ffffffffffffffffffffffffffffffffffffffff1614612fbf576040517f08c379a0000000000000000000000000000000000000000000000000000000008152600401612fb69061767f565b60405180910390fd5b6000600a600084815260200190815260200160002060008373ffffffffffffffffffffffffffffffffffffffff1673ffffffffffffffffffffffffffffffffffffffff16815260200190815260200160002090508060020185908060018154018082558091505060019003906000526020600020016000909190919091505580600301849080600181540180825580915050600190039060005260206000200160009091909190916101000a81548173ffffffffffffffffffffffffffffffffffffffff021916908373ffffffffffffffffffffffffffffffffffffffff1602179055505050505050565b600c81815481106130b757fe5b906000526020600020016000915090505481565b60006009600083815260200190815260200160002060010160009054906101000a900473ffffffffffffffffffffffffffffffffffffffff169050919050565b606080600080600090505b600c805490508110156132eb5761312b615572565b60096000600c848154811061313c57fe5b906000526020600020015481526020019081526020016000206040518060c0016040529081600082015481526020016001820160009054906101000a900473ffffffffffffffffffffffffffffffffffffffff1673ffffffffffffffffffffffffffffffffffffffff1673ffffffffffffffffffffffffffffffffffffffff168152602001600282015481526020016003820180548060200260200160405190810160405280929190818152602001828054801561324f57602002820191906000526020600020905b8160009054906101000a900473ffffffffffffffffffffffffffffffffffffffff1673ffffffffffffffffffffffffffffffffffffffff1681526020019060010190808311613205575b505050505081526020016004820160009054906101000a900460ff1660ff1660ff16815260200160058201548152505090508573ffffffffffffffffffffffffffffffffffffffff168160600151600183606001515103815181106132b057fe5b602002602001015173ffffffffffffffffffffffffffffffffffffffff1614156132dd5782806001019350505b508080600101915050613116565b5060608167ffffffffffffffff8111801561330557600080fd5b5060405190808252806020026020018201604052801561333f57816020015b61332c615572565b8152602001906001900390816133245790505b50905060608267ffffffffffffffff8111801561335b57600080fd5b5060405190808252806020026020018201604052801561339557816020015b613382615698565b81526020019060019003908161337a5790505b50905060005b600c8054905081101561376e576000600c82815481106133b757fe5b906000526020600020015490506133cc615572565b600960008381526020019081526020016000206040518060c0016040529081600082015481526020016001820160009054906101000a900473ffffffffffffffffffffffffffffffffffffffff1673ffffffffffffffffffffffffffffffffffffffff1673ffffffffffffffffffffffffffffffffffffffff16815260200160028201548152602001600382018054806020026020016040519081016040528092919081815260200182805480156134d957602002820191906000526020600020905b8160009054906101000a900473ffffffffffffffffffffffffffffffffffffffff1673ffffffffffffffffffffffffffffffffffffffff168152602001906001019080831161348f575b505050505081526020016004820160009054906101000a900460ff1660ff1660ff16815260200160058201548152505090508873ffffffffffffffffffffffffffffffffffffffff1681606001516001836060015151038151811061353a57fe5b602002602001015173ffffffffffffffffffffffffffffffffffffffff16141561375f578085848151811061356b57fe5b6020026020010181905250600a600083815260200190815260200160002060008a73ffffffffffffffffffffffffffffffffffffffff1673ffffffffffffffffffffffffffffffffffffffff1681526020019081526020016000206040518060a00160405290816000820160009054906101000a900460ff161515151581526020016000820160019054906101000a900460ff1660ff1660ff1681526020016001820180548060200260200160405190810160405280929190818152602001828054801561365857602002820191906000526020600020905b815481526020019060010190808311613644575b50505050508152602001600282018054806020026020016040519081016040528092919081815260200182805480156136b057602002820191906000526020600020905b81548152602001906001019080831161369c575b505050505081526020016003820180548060200260200160405190810160405280929190818152602001828054801561373e57602002820191906000526020600020905b8160009054906101000a900473ffffffffffffffffffffffffffffffffffffffff1673ffffffffffffffffffffffffffffffffffffffff16815260200190600101908083116136f4575b50505050508152505084848151811061375357fe5b60200260200101819052505b5050808060010191505061339b565b50818194509450505050915091565b6000600a600084815260200190815260200160002060008373ffffffffffffffffffffffffffffffffffffffff1673ffffffffffffffffffffffffffffffffffffffff16815260200190815260200160002060000160019054906101000a900460ff16905092915050565b6000600260008473ffffffffffffffffffffffffffffffffffffffff1673ffffffffffffffffffffffffffffffffffffffff16815260200190815260200160002060008373ffffffffffffffffffffffffffffffffffffffff1673ffffffffffffffffffffffffffffffffffffffff16815260200190815260200160002060009054906101000a900460ff16905092915050565b60606009600083815260200190815260200160002060030180548060200260200160405190810160405280929190818152602001828054801561391457602002820191906000526020600020905b8160009054906101000a900473ffffffffffffffffffffffffffffffffffffffff1673ffffffffffffffffffffffffffffffffffffffff16815260200190600101908083116138ca575b50505050509050919050565b600560009054906101000a900473ffffffffffffffffffffffffffffffffffffffff1673ffffffffffffffffffffffffffffffffffffffff163373ffffffffffffffffffffffffffffffffffffffff1614613a9a576000600560009054906101000a900473ffffffffffffffffffffffffffffffffffffffff1673ffffffffffffffffffffffffffffffffffffffff16634637c4ed85886040518363ffffffff1660e01b81526004016139d492919061775a565b60206040518083038186803b1580156139ec57600080fd5b505afa158015613a00573d6000803e3d6000fd5b505050506040513d601f19601f82011682018060405250810190613a249190615f33565b90506000613a328786610975565b9050600115158215151415613a97576000613a568583614c5990919063ffffffff16565b11613a96576040517f08c379a0000000000000000000000000000000000000000000000000000000008152600401613a8d9061759f565b60405180910390fd5b5b50505b613aa78585858585614ecc565b613ab1838561520f565b5050505050565b613ac06140c2565b73ffffffffffffffffffffffffffffffffffffffff16600460009054906101000a900473ffffffffffffffffffffffffffffffffffffffff1673ffffffffffffffffffffffffffffffffffffffff1614613b4f576040517f08c379a0000000000000000000000000000000000000000000000000000000008152600401613b469061761f565b60405180910390fd5b600073ffffffffffffffffffffffffffffffffffffffff168173ffffffffffffffffffffffffffffffffffffffff161415613bbf576040517f08c379a0000000000000000000000000000000000000000000000000000000008152600401613bb6906174df565b60405180910390fd5b8073ffffffffffffffffffffffffffffffffffffffff16600460009054906101000a900473ffffffffffffffffffffffffffffffffffffffff1673ffffffffffffffffffffffffffffffffffffffff167f8be0079c531659141344cd1fd0a4f28419497f9722a3daafe3b4186f6b6457e060405160405180910390a380600460006101000a81548173ffffffffffffffffffffffffffffffffffffffff021916908373ffffffffffffffffffffffffffffffffffffffff16021790555050565b816000613c8c3383610975565b905060008111613cd1576040517f08c379a0000000000000000000000000000000000000000000000000000000008152600401613cc89061751f565b60405180910390fd5b60008860ff161415613d6f57600560009054906101000a900473ffffffffffffffffffffffffffffffffffffffff1673ffffffffffffffffffffffffffffffffffffffff1663f14a5cc38589866040518463ffffffff1660e01b8152600401613d3c93929190617851565b600060405180830381600087803b158015613d5657600080fd5b505af1158015613d6a573d6000803e3d6000fd5b505050505b60018860ff161480613d84575060028860ff16145b15613e1f57600560009054906101000a900473ffffffffffffffffffffffffffffffffffffffff1673ffffffffffffffffffffffffffffffffffffffff166367404cde88888887896040518663ffffffff1660e01b8152600401613dec959493929190617888565b600060405180830381600087803b158015613e0657600080fd5b505af1158015613e1a573d6000803e3d6000fd5b505050505b6001600a600086815260200190815260200160002060008573ffffffffffffffffffffffffffffffffffffffff1673ffffffffffffffffffffffffffffffffffffffff16815260200190815260200160002060000160006101000a81548160ff02191690831515021790555087600a600086815260200190815260200160002060008573ffffffffffffffffffffffffffffffffffffffff1673ffffffffffffffffffffffffffffffffffffffff16815260200190815260200160002060000160016101000a81548160ff021916908360ff1602179055505050505050505050565b6060600a600084815260200190815260200160002060008373ffffffffffffffffffffffffffffffffffffffff1673ffffffffffffffffffffffffffffffffffffffff168152602001908152602001600020600201805480602002602001604051908101604052809291908181526020018280548015613fa057602002820191906000526020600020905b815481526020019060010190808311613f8c575b5050505050905092915050565b600560009054906101000a900473ffffffffffffffffffffffffffffffffffffffff1673ffffffffffffffffffffffffffffffffffffffff163373ffffffffffffffffffffffffffffffffffffffff161461403d576040517f08c379a00000000000000000000000000000000000000000000000000000000081526004016140349061767f565b60405180910390fd5b6000600a600084815260200190815260200160002060008373ffffffffffffffffffffffffffffffffffffffff1673ffffffffffffffffffffffffffffffffffffffff16815260200190815260200160002090508060010184908060018154018082558091505060019003906000526020600020016000909190919091505550505050565b600033905090565b80600390805190602001906140e09291906156cc565b5050565b6000801515600b600084815260200190815260200160002060009054906101000a900460ff1615151461414c576040517f08c379a00000000000000000000000000000000000000000000000000000000081526004016141439061769f565b60405180910390fd5b6001600b600084815260200190815260200160002060006101000a81548160ff021916908315150217905550600c82908060018154018082558091505060019003906000526020600020016000909190919091505581600d54116141b057816141b4565b600d545b600d819055506141d5888389604051806020016040528060008152506147ea565b6000600660009054906101000a900473ffffffffffffffffffffffffffffffffffffffff1673ffffffffffffffffffffffffffffffffffffffff1663834759216040518163ffffffff1660e01b815260040160206040518083038186803b15801561423f57600080fd5b505afa158015614253573d6000803e3d6000fd5b505050506040513d601f19601f8201168201806040525081019061427791906163d1565b90506040518060c001604052808481526020018a73ffffffffffffffffffffffffffffffffffffffff168152602001898152602001600067ffffffffffffffff811180156142c457600080fd5b506040519080825280602002602001820160405280156142f35781602001602082028036833780820191505090505b5081526020018260ff16815260200142815250600960008581526020019081526020016000206000820151816000015560208201518160010160006101000a81548173ffffffffffffffffffffffffffffffffffffffff021916908373ffffffffffffffffffffffffffffffffffffffff1602179055506040820151816002015560608201518160030190805190602001906143909291906155c1565b5060808201518160040160006101000a81548160ff021916908360ff16021790555060a0820151816005015590505060096000848152602001908152602001600020600301899080600181540180825580915050600190039060005260206000200160009091909190916101000a81548173ffffffffffffffffffffffffffffffffffffffff021916908373ffffffffffffffffffffffffffffffffffffffff1602179055506040518060a0016040528088151581526020018660ff168152602001600067ffffffffffffffff8111801561446a57600080fd5b506040519080825280602002602001820160405280156144995781602001602082028036833780820191505090505b508152602001600067ffffffffffffffff811180156144b757600080fd5b506040519080825280602002602001820160405280156144e65781602001602082028036833780820191505090505b508152602001600067ffffffffffffffff8111801561450457600080fd5b506040519080825280602002602001820160405280156145335781602001602082028036833780820191505090505b50815250600a600085815260200190815260200160002060008b73ffffffffffffffffffffffffffffffffffffffff1673ffffffffffffffffffffffffffffffffffffffff16815260200190815260200160002060008201518160000160006101000a81548160ff02191690831515021790555060208201518160000160016101000a81548160ff021916908360ff16021790555060408201518160010190805190602001906145e492919061564b565b50606082015181600201908051906020019061460192919061564b565b50608082015181600301908051906020019061461e9291906155c1565b50905050600a600084815260200190815260200160002060008a73ffffffffffffffffffffffffffffffffffffffff1673ffffffffffffffffffffffffffffffffffffffff168152602001908152602001600020600101869080600181540180825580915050600190039060005260206000200160009091909190915055600760009054906101000a900473ffffffffffffffffffffffffffffffffffffffff1673ffffffffffffffffffffffffffffffffffffffff1663318856f284866040518363ffffffff1660e01b81526004016146f99291906178db565b602060405180830381600087803b15801561471357600080fd5b505af1158015614727573d6000803e3d6000fd5b505050506040513d601f19601f8201168201806040525081019061474b91906163d1565b50600860009054906101000a900473ffffffffffffffffffffffffffffffffffffffff1673ffffffffffffffffffffffffffffffffffffffff1663f0b614ae84336040518363ffffffff1660e01b81526004016147a99291906177ac565b600060405180830381600087803b1580156147c357600080fd5b505af11580156147d7573d6000803e3d6000fd5b5050505082915050979650505050505050565b600073ffffffffffffffffffffffffffffffffffffffff168473ffffffffffffffffffffffffffffffffffffffff16141561485a576040517f08c379a00000000000000000000000000000000000000000000000000000000081526004016148519061771f565b60405180910390fd5b60006148646140c2565b9050614885816000876148768861531f565b61487f8861531f565b876149d1565b6148e8836001600087815260200190815260200160002060008873ffffffffffffffffffffffffffffffffffffffff1673ffffffffffffffffffffffffffffffffffffffff16815260200190815260200160002054614a3490919063ffffffff16565b6001600086815260200190815260200160002060008773ffffffffffffffffffffffffffffffffffffffff1673ffffffffffffffffffffffffffffffffffffffff168152602001908152602001600020819055508473ffffffffffffffffffffffffffffffffffffffff16600073ffffffffffffffffffffffffffffffffffffffff168273ffffffffffffffffffffffffffffffffffffffff167fc3d58168c5ae7397731d063d5bbf3d657854427343f4c083240f7aacaa2d0f6287876040516149b3929190617828565b60405180910390a46149ca8160008787878761538f565b5050505050565b505050505050565b6000838311158290614a21576040517f08c379a0000000000000000000000000000000000000000000000000000000008152600401614a18919061743d565b60405180910390fd5b5060008385039050809150509392505050565b600080828401905083811015614a7f576040517f08c379a0000000000000000000000000000000000000000000000000000000008152600401614a76906174ff565b60405180910390fd5b8091505092915050565b614aa88473ffffffffffffffffffffffffffffffffffffffff1661555f565b15614c51578373ffffffffffffffffffffffffffffffffffffffff1663bc197c8187878686866040518663ffffffff1660e01b8152600401614aee95949392919061721e565b602060405180830381600087803b158015614b0857600080fd5b505af1925050508015614b3957506040513d601f19601f82011682018060405250810190614b369190615fc1565b60015b614bc857614b45617c5b565b80614b505750614b8d565b806040517f08c379a0000000000000000000000000000000000000000000000000000000008152600401614b84919061743d565b60405180910390fd5b6040517f08c379a0000000000000000000000000000000000000000000000000000000008152600401614bbf9061745f565b60405180910390fd5b63bc197c8160e01b7bffffffffffffffffffffffffffffffffffffffffffffffffffffffff1916817bffffffffffffffffffffffffffffffffffffffffffffffffffffffff191614614c4f576040517f08c379a0000000000000000000000000000000000000000000000000000000008152600401614c469061747f565b60405180910390fd5b505b505050505050565b6000614c9b83836040518060400160405280601e81526020017f536166654d6174683a207375627472616374696f6e206f766572666c6f7700008152506149d9565b905092915050565b600073ffffffffffffffffffffffffffffffffffffffff168373ffffffffffffffffffffffffffffffffffffffff161415614d13576040517f08c379a0000000000000000000000000000000000000000000000000000000008152600401614d0a906175ff565b60405180910390fd5b6000614d1d6140c2565b9050614d4d81856000614d2f8761531f565b614d388761531f565b604051806020016040528060008152506149d1565b614dca82604051806060016040528060248152602001617d9c602491396001600087815260200190815260200160002060008873ffffffffffffffffffffffffffffffffffffffff1673ffffffffffffffffffffffffffffffffffffffff168152602001908152602001600020546149d99092919063ffffffff16565b6001600085815260200190815260200160002060008673ffffffffffffffffffffffffffffffffffffffff1673ffffffffffffffffffffffffffffffffffffffff16815260200190815260200160002081905550600073ffffffffffffffffffffffffffffffffffffffff168473ffffffffffffffffffffffffffffffffffffffff168273ffffffffffffffffffffffffffffffffffffffff167fc3d58168c5ae7397731d063d5bbf3d657854427343f4c083240f7aacaa2d0f628686604051614e95929190617828565b60405180910390a450505050565b600080614eae6121df565b9050614ebf888888888888876140e4565b9150509695505050505050565b600073ffffffffffffffffffffffffffffffffffffffff168473ffffffffffffffffffffffffffffffffffffffff161415614f3c576040517f08c379a0000000000000000000000000000000000000000000000000000000008152600401614f33906175bf565b60405180910390fd5b614f446140c2565b73ffffffffffffffffffffffffffffffffffffffff168573ffffffffffffffffffffffffffffffffffffffff161480614f8a5750614f8985614f846140c2565b6137e8565b5b614fc9576040517f08c379a0000000000000000000000000000000000000000000000000000000008152600401614fc09061753f565b60405180910390fd5b6000614fd36140c2565b9050614ff3818787614fe48861531f565b614fed8861531f565b876149d1565b615070836040518060600160405280602a8152602001617dc0602a91396001600088815260200190815260200160002060008a73ffffffffffffffffffffffffffffffffffffffff1673ffffffffffffffffffffffffffffffffffffffff168152602001908152602001600020546149d99092919063ffffffff16565b6001600086815260200190815260200160002060008873ffffffffffffffffffffffffffffffffffffffff1673ffffffffffffffffffffffffffffffffffffffff16815260200190815260200160002081905550615127836001600087815260200190815260200160002060008873ffffffffffffffffffffffffffffffffffffffff1673ffffffffffffffffffffffffffffffffffffffff16815260200190815260200160002054614a3490919063ffffffff16565b6001600086815260200190815260200160002060008773ffffffffffffffffffffffffffffffffffffffff1673ffffffffffffffffffffffffffffffffffffffff168152602001908152602001600020819055508473ffffffffffffffffffffffffffffffffffffffff168673ffffffffffffffffffffffffffffffffffffffff168273ffffffffffffffffffffffffffffffffffffffff167fc3d58168c5ae7397731d063d5bbf3d657854427343f4c083240f7aacaa2d0f6287876040516151f1929190617828565b60405180910390a461520781878787878761538f565b505050505050565b600060096000848152602001908152602001600020600301905060005b81805490508110156152b6578273ffffffffffffffffffffffffffffffffffffffff1682828154811061525b57fe5b9060005260206000200160009054906101000a900473ffffffffffffffffffffffffffffffffffffffff1673ffffffffffffffffffffffffffffffffffffffff1614156152a957505061531b565b808060010191505061522c565b5080829080600181540180825580915050600190039060005260206000200160009091909190916101000a81548173ffffffffffffffffffffffffffffffffffffffff021916908373ffffffffffffffffffffffffffffffffffffffff160217905550505b5050565b606080600167ffffffffffffffff8111801561533a57600080fd5b506040519080825280602002602001820160405280156153695781602001602082028036833780820191505090505b509050828160008151811061537a57fe5b60200260200101818152505080915050919050565b6153ae8473ffffffffffffffffffffffffffffffffffffffff1661555f565b15615557578373ffffffffffffffffffffffffffffffffffffffff1663f23a6e6187878686866040518663ffffffff1660e01b81526004016153f4959493929190617286565b602060405180830381600087803b15801561540e57600080fd5b505af192505050801561543f57506040513d601f19601f8201168201806040525081019061543c9190615fc1565b60015b6154ce5761544b617c5b565b806154565750615493565b806040517f08c379a000000000000000000000000000000000000000000000000000000000815260040161548a919061743d565b60405180910390fd5b6040517f08c379a00000000000000000000000000000000000000000000000000000000081526004016154c59061745f565b60405180910390fd5b63f23a6e6160e01b7bffffffffffffffffffffffffffffffffffffffffffffffffffffffff1916817bffffffffffffffffffffffffffffffffffffffffffffffffffffffff191614615555576040517f08c379a000000000000000000000000000000000000000000000000000000000815260040161554c9061747f565b60405180910390fd5b505b505050505050565b600080823b905060008111915050919050565b6040518060c0016040528060008152602001600073ffffffffffffffffffffffffffffffffffffffff1681526020016000815260200160608152602001600060ff168152602001600081525090565b82805482825590600052602060002090810192821561563a579160200282015b828111156156395782518260006101000a81548173ffffffffffffffffffffffffffffffffffffffff021916908373ffffffffffffffffffffffffffffffffffffffff160217905550916020019190600101906155e1565b5b509050615647919061574c565b5090565b828054828255906000526020600020908101928215615687579160200282015b8281111561568657825182559160200191906001019061566b565b5b5090506156949190615787565b5090565b6040518060a00160405280600015158152602001600060ff1681526020016060815260200160608152602001606081525090565b828054600181600116156101000203166002900490600052602060002090601f016020900481019282601f1061570d57805160ff191683800117855561573b565b8280016001018555821561573b579182015b8281111561573a57825182559160200191906001019061571f565b5b5090506157489190615787565b5090565b5b8082111561578357600081816101000a81549073ffffffffffffffffffffffffffffffffffffffff02191690555060010161574d565b5090565b5b808211156157a0576000816000905550600101615788565b5090565b6000813590506157b381617d11565b92915050565b6000815190506157c881617d11565b92915050565b6000815190506157dd81617d28565b92915050565b600082601f8301126157f457600080fd5b81356158076158028261794c565b61791f565b9150818183526020840193506020810190508385602084028201111561582c57600080fd5b60005b8381101561585c578161584288826157a4565b84526020840193506020830192505060018101905061582f565b5050505092915050565b600082601f83011261587757600080fd5b815161588a6158858261794c565b61791f565b915081818352602084019350602081019050838560208402820111156158af57600080fd5b60005b838110156158df57816158c588826157b9565b8452602084019350602083019250506001810190506158b2565b5050505092915050565b600082601f8301126158fa57600080fd5b813561590d61590882617974565b61791f565b9150818183526020840193506020810190508385602084028201111561593257600080fd5b60005b8381101561596257816159488882615aeb565b845260208401935060208301925050600181019050615935565b5050505092915050565b600082601f83011261597d57600080fd5b815161599061598b82617974565b61791f565b915081818352602084019350602081019050838560208402820111156159b557600080fd5b60005b838110156159e557816159cb8882615b00565b8452602084019350602083019250506001810190506159b8565b5050505092915050565b6000813590506159fe81617d3f565b92915050565b600081519050615a1381617d3f565b92915050565b600081359050615a2881617d56565b92915050565b600081519050615a3d81617d56565b92915050565b600082601f830112615a5457600080fd5b8135615a67615a628261799c565b61791f565b91508082526020830160208301858383011115615a8357600080fd5b615a8e838284617bfb565b50505092915050565b600082601f830112615aa857600080fd5b8135615abb615ab6826179c8565b61791f565b91508082526020830160208301858383011115615ad757600080fd5b615ae2838284617bfb565b50505092915050565b600081359050615afa81617d6d565b92915050565b600081519050615b0f81617d6d565b92915050565b600081359050615b2481617d84565b92915050565b600081519050615b3981617d84565b92915050565b600060208284031215615b5157600080fd5b6000615b5f848285016157a4565b91505092915050565b600060208284031215615b7a57600080fd5b6000615b88848285016157ce565b91505092915050565b60008060408385031215615ba457600080fd5b6000615bb2858286016157a4565b9250506020615bc3858286016157a4565b9150509250929050565b60008060008060808587031215615be357600080fd5b6000615bf1878288016157a4565b9450506020615c02878288016157a4565b9350506040615c13878288016157a4565b9250506060615c24878288016157a4565b91505092959194509250565b600080600080600060a08688031215615c4857600080fd5b6000615c56888289016157a4565b9550506020615c67888289016157a4565b945050604086013567ffffffffffffffff811115615c8457600080fd5b615c90888289016158e9565b935050606086013567ffffffffffffffff811115615cad57600080fd5b615cb9888289016158e9565b925050608086013567ffffffffffffffff811115615cd657600080fd5b615ce288828901615a43565b9150509295509295909350565b600080600080600060a08688031215615d0757600080fd5b6000615d15888289016157a4565b9550506020615d26888289016157a4565b9450506040615d3788828901615aeb565b9350506060615d4888828901615aeb565b925050608086013567ffffffffffffffff811115615d6557600080fd5b615d7188828901615a43565b9150509295509295909350565b60008060408385031215615d9157600080fd5b6000615d9f858286016157a4565b9250506020615db0858286016159ef565b9150509250929050565b60008060408385031215615dcd57600080fd5b6000615ddb858286016157a4565b9250506020615dec85828601615aeb565b9150509250929050565b600080600060608486031215615e0b57600080fd5b6000615e19868287016157a4565b9350506020615e2a86828701615aeb565b9250506040615e3b86828701615aeb565b9150509250925092565b600060208284031215615e5757600080fd5b600082015167ffffffffffffffff811115615e7157600080fd5b615e7d84828501615866565b91505092915050565b60008060408385031215615e9957600080fd5b600083013567ffffffffffffffff811115615eb357600080fd5b615ebf858286016157e3565b925050602083013567ffffffffffffffff811115615edc57600080fd5b615ee8858286016158e9565b9150509250929050565b600060208284031215615f0457600080fd5b600082015167ffffffffffffffff811115615f1e57600080fd5b615f2a8482850161596c565b91505092915050565b600060208284031215615f4557600080fd5b6000615f5384828501615a04565b91505092915050565b60008060408385031215615f6f57600080fd5b6000615f7d858286016159ef565b9250506020615f8e85828601615aeb565b9150509250929050565b600060208284031215615faa57600080fd5b6000615fb884828501615a19565b91505092915050565b600060208284031215615fd357600080fd5b6000615fe184828501615a2e565b91505092915050565b600060208284031215615ffc57600080fd5b600082013567ffffffffffffffff81111561601657600080fd5b61602284828501615a97565b91505092915050565b60006020828403121561603d57600080fd5b600061604b84828501615aeb565b91505092915050565b60006020828403121561606657600080fd5b600061607484828501615b00565b91505092915050565b6000806040838503121561609057600080fd5b600061609e85828601615aeb565b92505060206160af858286016157a4565b9150509250929050565b600080600080608085870312156160cf57600080fd5b60006160dd87828801615aeb565b94505060206160ee878288016157a4565b93505060406160ff87828801615aeb565b9250506060616110878288016157a4565b91505092959194509250565b600080600080600080600060e0888a03121561613757600080fd5b60006161458a828b01615aeb565b97505060206161568a828b016159ef565b96505060406161678a828b01615aeb565b95505060606161788a828b01615b15565b94505060806161898a828b01615b15565b93505060a061619a8a828b01615aeb565b92505060c06161ab8a828b01615aeb565b91505092959891949750929550565b600080600080600080600080610100898b0312156161d757600080fd5b60006161e58b828c01615aeb565b98505060206161f68b828c016159ef565b97505060406162078b828c01615aeb565b96505060606162188b828c01615b15565b95505060806162298b828c01615b15565b94505060a061623a8b828c01615aeb565b93505060c061624b8b828c01615aeb565b92505060e061625c8b828c01615aeb565b9150509295985092959890939650565b6000806000806080858703121561628257600080fd5b600061629087828801615aeb565b94505060206162a1878288016159ef565b93505060406162b287828801615b15565b92505060606162c387828801615b15565b91505092959194509250565b600080600080600060a086880312156162e757600080fd5b60006162f588828901615aeb565b9550506020616306888289016159ef565b945050604061631788828901615b15565b935050606061632888828901615b15565b925050608061633988828901615aeb565b9150509295509295909350565b6000806040838503121561635957600080fd5b600061636785828601615aeb565b925050602061637885828601615aeb565b9150509250929050565b60008060006060848603121561639757600080fd5b60006163a586828701615aeb565b93505060206163b686828701615aeb565b92505060406163c7868287016157a4565b9150509250925092565b6000602082840312156163e357600080fd5b60006163f184828501615b2a565b91505092915050565b6000806040838503121561640d57600080fd5b600061641b85828601615b15565b925050602061642c85828601615aeb565b9150509250929050565b60008060008060008060c0878903121561644f57600080fd5b600061645d89828a01615b15565b965050602061646e89828a01615aeb565b955050604061647f89828a01615aeb565b945050606061649089828a01615aeb565b93505060806164a189828a01615aeb565b92505060a06164b289828a016157a4565b9150509295509295509295565b60006164cb8383616535565b60208301905092915050565b60006164e3838361703f565b905092915050565b60006164f783836170c8565b905092915050565b600061650b838361714c565b60208301905092915050565b61652081617bc5565b82525050565b61652f81617b44565b82525050565b61653e81617b32565b82525050565b61654d81617b32565b82525050565b600061655e82617a34565b6165688185617aaa565b9350616573836179f4565b8060005b838110156165a457815161658b88826164bf565b975061659683617a76565b925050600181019050616577565b5085935050505092915050565b60006165bc82617a34565b6165c68185617abb565b93506165d1836179f4565b8060005b838110156166025781516165e988826164bf565b97506165f483617a76565b9250506001810190506165d5565b5085935050505092915050565b600061661a82617a3f565b6166248185617acc565b93508360208202850161663685617a04565b8060005b85811015616672578484038952815161665385826164d7565b945061665e83617a83565b925060208a0199505060018101905061663a565b50829750879550505050505092915050565b600061668f82617a4a565b6166998185617add565b9350836020820285016166ab85617a14565b8060005b858110156166e757848403895281516166c885826164eb565b94506166d383617a90565b925060208a019950506001810190506166af565b50829750879550505050505092915050565b600061670482617a55565b61670e8185617aee565b935061671983617a24565b8060005b8381101561674a57815161673188826164ff565b975061673c83617a9d565b92505060018101905061671d565b5085935050505092915050565b600061676282617a55565b61676c8185617aff565b935061677783617a24565b8060005b838110156167a857815161678f88826164ff565b975061679a83617a9d565b92505060018101905061677b565b5085935050505092915050565b6167be81617b56565b82525050565b6167cd81617b56565b82525050565b60006167de82617a60565b6167e88185617b10565b93506167f8818560208601617c0a565b61680181617c3d565b840191505092915050565b600061681782617a6b565b6168218185617b21565b9350616831818560208601617c0a565b61683a81617c3d565b840191505092915050565b6000616852603483617b21565b91507f455243313135353a207472616e7366657220746f206e6f6e204552433131353560008301527f526563656976657220696d706c656d656e7465720000000000000000000000006020830152604082019050919050565b60006168b8602883617b21565b91507f455243313135353a204552433131353552656365697665722072656a6563746560008301527f6420746f6b656e730000000000000000000000000000000000000000000000006020830152604082019050919050565b600061691e602b83617b21565b91507f455243313135353a2062616c616e636520717565727920666f7220746865207a60008301527f65726f20616464726573730000000000000000000000000000000000000000006020830152604082019050919050565b6000616984603183617b21565b91507f455243313135353a2062617463682062616c616e636520717565727920666f7260008301527f20746865207a65726f20616464726573730000000000000000000000000000006020830152604082019050919050565b60006169ea602683617b21565b91507f4f776e61626c653a206e6577206f776e657220697320746865207a65726f206160008301527f64647265737300000000000000000000000000000000000000000000000000006020830152604082019050919050565b6000616a50601b83617b21565b91507f536166654d6174683a206164646974696f6e206f766572666c6f7700000000006000830152602082019050919050565b6000616a90601e83617b21565b91507f6d75737420626520746865206f776e6572206f662074686520746f6b656e00006000830152602082019050919050565b6000616ad0602983617b21565b91507f455243313135353a2063616c6c6572206973206e6f74206f776e6572206e6f7260008301527f20617070726f76656400000000000000000000000000000000000000000000006020830152604082019050919050565b6000616b36600f83617b21565b91507f77726f6e6720656e6420696e64657800000000000000000000000000000000006000830152602082019050919050565b6000616b76601183617b21565b91507f77726f6e6720737461727420696e6465780000000000000000000000000000006000830152602082019050919050565b6000616bb6601783617b21565b91507f796f7520686176652074686520616374697665206269640000000000000000006000830152602082019050919050565b6000616bf6602583617b21565b91507f455243313135353a207472616e7366657220746f20746865207a65726f20616460008301527f64726573730000000000000000000000000000000000000000000000000000006020830152604082019050919050565b6000616c5c603283617b21565b91507f455243313135353a207472616e736665722063616c6c6572206973206e6f742060008301527f6f776e6572206e6f7220617070726f76656400000000000000000000000000006020830152604082019050919050565b6000616cc2602383617b21565b91507f455243313135353a206275726e2066726f6d20746865207a65726f206164647260008301527f65737300000000000000000000000000000000000000000000000000000000006020830152604082019050919050565b6000616d28602083617b21565b91507f4f776e61626c653a2063616c6c6572206973206e6f7420746865206f776e65726000830152602082019050919050565b6000616d68603a83617b21565b91507f6d75737420626520746865206f776e6572206f662074686520746f6b656e206f60008301527f722073656e646572206973206d61726b65742061756374696f6e0000000000006020830152604082019050919050565b6000616dce602083617b21565b91507f6d757374206265207468652063726561746f72206f662074686520746f6b656e6000830152602082019050919050565b6000616e0e602583617b21565b91507f6f6e6c79206d61726b65742061756374696f6e2063616e20736574207468652060008301527f70726963650000000000000000000000000000000000000000000000000000006020830152604082019050919050565b6000616e74601983617b21565b91507f746f6b656e20696420697320616c7265616479206578697374000000000000006000830152602082019050919050565b6000616eb4602983617b21565b91507f455243313135353a2073657474696e6720617070726f76616c2073746174757360008301527f20666f722073656c6600000000000000000000000000000000000000000000006020830152604082019050919050565b6000616f1a602983617b21565b91507f455243313135353a206163636f756e747320616e6420696473206c656e67746860008301527f206d69736d6174636800000000000000000000000000000000000000000000006020830152604082019050919050565b6000616f80602883617b21565b91507f455243313135353a2069647320616e6420616d6f756e7473206c656e6774682060008301527f6d69736d617463680000000000000000000000000000000000000000000000006020830152604082019050919050565b6000616fe6602183617b21565b91507f455243313135353a206d696e7420746f20746865207a65726f2061646472657360008301527f73000000000000000000000000000000000000000000000000000000000000006020830152604082019050919050565b600060c083016000830151617057600086018261714c565b50602083015161706a6020860182616535565b50604083015161707d604086018261714c565b50606083015184820360608601526170958282616553565b91505060808301516170aa608086018261716a565b5060a08301516170bd60a086018261714c565b508091505092915050565b600060a0830160008301516170e060008601826167b5565b5060208301516170f3602086018261716a565b506040830151848203604086015261710b82826166f9565b9150506060830151848203606086015261712582826166f9565b9150506080830151848203608086015261713f8282616553565b9150508091505092915050565b61715581617bae565b82525050565b61716481617bae565b82525050565b61717381617bb8565b82525050565b61718281617bb8565b82525050565b600060208201905061719d6000830184616544565b92915050565b60006020820190506171b86000830184616526565b92915050565b60006040820190506171d36000830185616517565b6171e0602083018461715b565b9392505050565b60006060820190506171fc6000830186616517565b617209602083018561715b565b617216604083018461715b565b949350505050565b600060a0820190506172336000830188616544565b6172406020830187616544565b81810360408301526172528186616757565b905081810360608301526172668185616757565b9050818103608083015261727a81846167d3565b90509695505050505050565b600060a08201905061729b6000830188616544565b6172a86020830187616544565b6172b5604083018661715b565b6172c2606083018561715b565b81810360808301526172d481846167d3565b90509695505050505050565b60006040820190506172f56000830185616544565b617302602083018461715b565b9392505050565b6000602082019050818103600083015261732381846165b1565b905092915050565b60006040820190508181036000830152617345818561660f565b905081810360208301526173598184616684565b90509392505050565b6000606082019050818103600083015261737c818661660f565b905061738b602083018561715b565b617398604083018461715b565b949350505050565b600060208201905081810360008301526173ba8184616757565b905092915050565b600060408201905081810360008301526173dc8185616757565b905081810360208301526173f08184616757565b90509392505050565b600060208201905061740e60008301846167c4565b92915050565b600060408201905061742960008301856167c4565b6174366020830184617179565b9392505050565b60006020820190508181036000830152617457818461680c565b905092915050565b6000602082019050818103600083015261747881616845565b9050919050565b60006020820190508181036000830152617498816168ab565b9050919050565b600060208201905081810360008301526174b881616911565b9050919050565b600060208201905081810360008301526174d881616977565b9050919050565b600060208201905081810360008301526174f8816169dd565b9050919050565b6000602082019050818103600083015261751881616a43565b9050919050565b6000602082019050818103600083015261753881616a83565b9050919050565b6000602082019050818103600083015261755881616ac3565b9050919050565b6000602082019050818103600083015261757881616b29565b9050919050565b6000602082019050818103600083015261759881616b69565b9050919050565b600060208201905081810360008301526175b881616ba9565b9050919050565b600060208201905081810360008301526175d881616be9565b9050919050565b600060208201905081810360008301526175f881616c4f565b9050919050565b6000602082019050818103600083015261761881616cb5565b9050919050565b6000602082019050818103600083015261763881616d1b565b9050919050565b6000602082019050818103600083015261765881616d5b565b9050919050565b6000602082019050818103600083015261767881616dc1565b9050919050565b6000602082019050818103600083015261769881616e01565b9050919050565b600060208201905081810360008301526176b881616e67565b9050919050565b600060208201905081810360008301526176d881616ea7565b9050919050565b600060208201905081810360008301526176f881616f0d565b9050919050565b6000602082019050818103600083015261771881616f73565b9050919050565b6000602082019050818103600083015261773881616fd9565b9050919050565b6000602082019050617754600083018461715b565b92915050565b600060408201905061776f600083018561715b565b61777c6020830184616544565b9392505050565b6000604082019050617798600083018561715b565b6177a56020830184616517565b9392505050565b60006040820190506177c1600083018561715b565b6177ce6020830184616526565b9392505050565b600060a0820190506177ea600083018861715b565b6177f76020830187616544565b617804604083018661715b565b6178116060830185617179565b61781e608083018461715b565b9695505050505050565b600060408201905061783d600083018561715b565b61784a602083018461715b565b9392505050565b6000606082019050617866600083018661715b565b617873602083018561715b565b6178806040830184616544565b949350505050565b600060a08201905061789d600083018861715b565b6178aa602083018761715b565b6178b7604083018661715b565b6178c46060830185616544565b6178d1608083018461715b565b9695505050505050565b60006040820190506178f0600083018561715b565b6178fd6020830184617179565b9392505050565b60006020820190506179196000830184617179565b92915050565b6000604051905081810181811067ffffffffffffffff8211171561794257600080fd5b8060405250919050565b600067ffffffffffffffff82111561796357600080fd5b602082029050602081019050919050565b600067ffffffffffffffff82111561798b57600080fd5b602082029050602081019050919050565b600067ffffffffffffffff8211156179b357600080fd5b601f19601f8301169050602081019050919050565b600067ffffffffffffffff8211156179df57600080fd5b601f19601f8301169050602081019050919050565b6000819050602082019050919050565b6000819050602082019050919050565b6000819050602082019050919050565b6000819050602082019050919050565b600081519050919050565b600081519050919050565b600081519050919050565b600081519050919050565b600081519050919050565b600081519050919050565b6000602082019050919050565b6000602082019050919050565b6000602082019050919050565b6000602082019050919050565b600082825260208201905092915050565b600082825260208201905092915050565b600082825260208201905092915050565b600082825260208201905092915050565b600082825260208201905092915050565b600082825260208201905092915050565b600082825260208201905092915050565b600082825260208201905092915050565b6000617b3d82617b8e565b9050919050565b6000617b4f82617b8e565b9050919050565b60008115159050919050565b60007fffffffff0000000000000000000000000000000000000000000000000000000082169050919050565b600073ffffffffffffffffffffffffffffffffffffffff82169050919050565b6000819050919050565b600060ff82169050919050565b6000617bd082617bd7565b9050919050565b6000617be282617be9565b9050919050565b6000617bf482617b8e565b9050919050565b82818337600083830152505050565b60005b83811015617c28578082015181840152602081019050617c0d565b83811115617c37576000848401525b50505050565b6000601f19601f8301169050919050565b60008160e01c9050919050565b600060443d1015617c6b57617d0e565b60046000803e617c7c600051617c4e565b6308c379a08114617c8d5750617d0e565b60405160043d036004823e80513d602482011167ffffffffffffffff82111715617cb957505050617d0e565b808201805167ffffffffffffffff811115617cd8575050505050617d0e565b8060208301013d8501811115617cf357505050505050617d0e565b617cfc82617c3d565b60208401016040528296505050505050505b90565b617d1a81617b32565b8114617d2557600080fd5b50565b617d3181617b44565b8114617d3c57600080fd5b50565b617d4881617b56565b8114617d5357600080fd5b50565b617d5f81617b62565b8114617d6a57600080fd5b50565b617d7681617bae565b8114617d8157600080fd5b50565b617d8d81617bb8565b8114617d9857600080fd5b5056fe455243313135353a206275726e20616d6f756e7420657863656564732062616c616e6365455243313135353a20696e73756666696369656e742062616c616e636520666f72207472616e73666572a264697066735822122080b737990b7c9da65d156499446ec580dc90a00b091a74da3cf8cffefe5abd0e64736f6c634300060c0033",
  "immutableReferences": {},
  "source": "// SPDX-License-Identifier: MIT\npragma solidity 0.6.12;\n\npragma experimental ABIEncoderV2;\n\nimport \"@openzeppelin/contracts/access/Ownable.sol\";\nimport \"@openzeppelin/contracts/token/ERC1155/ERC1155.sol\";\nimport \"@openzeppelin/contracts/math/SafeMath.sol\";\nimport \"./INafter.sol\";\nimport \"./INafterMarketAuction.sol\";\nimport \"./IMarketplaceSettings.sol\";\nimport \"./INafterRoyaltyRegistry.sol\";\nimport \"./INafterTokenCreatorRegistry.sol\";\n/**\n * Nafter core contract.\n*/\n\ncontract Nafter is ERC1155, Ownable, INafter {\n    // Library to overcome overflow\n    using SafeMath for uint256;\n    struct TokenInfo {\n        uint256 tokenId;\n        address creator;\n        uint256 tokenAmount;\n        address[] owners;\n        uint8 serviceFee;\n        uint256 creationTime;\n    }\n\n    struct TokenOwnerInfo {\n        bool isForSale;\n        uint8 priceType; // 0 for fixed, 1 for Auction dates range, 2 for Auction Infinity\n        uint256[] prices;\n        uint256[] bids;\n        address[] bidders;\n    }\n\n    // market auction to set the price\n    INafterMarketAuction marketAuction;\n    IMarketplaceSettings marketplaceSettings;\n    INafterRoyaltyRegistry royaltyRegistry;\n    INafterTokenCreatorRegistry tokenCreatorRigistry;\n\n    // mapping of token info\n    mapping(uint256 => TokenInfo) public tokenInfo;\n    mapping(uint256 => mapping(address => TokenOwnerInfo)) public tokenOwnerInfo;\n\n    mapping(uint256 => bool) public tokenIdsAvailable;\n\n    uint256[] public tokenIds;\n    uint256 public maxId;\n\n    // Event indicating metadata was updated.\n    event AddNewToken(address user, uint256 tokenId);\n    event DeleteTokens(address user, uint256 tokenId, uint256 amount);\n    event SetURI(string uri);\n\n    constructor(\n        string memory _uri\n    ) public\n    ERC1155(_uri)\n    {\n\n    }\n\n    /**\n     * @dev Gets the creator of the token\n     * @param _tokenId uint256 ID of the token\n     * @return address of the creator\n     */\n    function creatorOfToken(uint256 _tokenId)\n    external\n    view override\n    returns (address payable) {\n        return payable(tokenInfo[_tokenId].creator);\n    }\n\n    /**\n     * @dev Gets the Service Fee\n     * @param _tokenId uint256 ID of the token\n     * @return get the service fee\n     */\n    function getServiceFee(uint256 _tokenId)\n    external\n    view override\n    returns (uint8){\n        return tokenInfo[_tokenId].serviceFee;\n    }\n\n    /**\n     * @dev Gets the price type\n     * @param _tokenId uint256 ID of the token\n     * @param _owner address of the token owner\n     * @return get the price type\n     */\n    function getPriceType(uint256 _tokenId, address _owner)\n    external\n    view override\n    returns (uint8){\n        return tokenOwnerInfo[_tokenId][_owner].priceType;\n    }\n\n    /**\n     * @dev Gets the token amount\n     * @param _tokenId uint256 ID of the token\n     */\n    function getTokenAmount(uint256 _tokenId)\n    external\n    view\n    returns (uint256){\n        return tokenInfo[_tokenId].tokenAmount;\n    }\n\n    /**\n     * @dev Gets the is for sale\n     * @param _tokenId uint256 ID of the token\n     * @param _owner address of the token owner\n     */\n    function getIsForSale(uint256 _tokenId, address _owner)\n    external\n    override\n    view\n    returns (bool){\n        return tokenOwnerInfo[_tokenId][_owner].isForSale;\n    }\n\n    /**\n     * @dev Gets the owners\n     * @param _tokenId uint256 ID of the token\n     */\n    function getOwners(uint256 _tokenId)\n    external\n    override\n    view\n    returns (address[] memory owners){\n        return tokenInfo[_tokenId].owners;\n    }\n\n    /**\n     * @dev Gets the prices\n     * @param _tokenId uint256 ID of the token\n     * @param _owner address of the token owner\n     */\n    function getPrices(uint256 _tokenId, address _owner)\n    external\n    view\n    returns (uint256[] memory prices){\n        return tokenOwnerInfo[_tokenId][_owner].prices;\n    }\n\n    /**\n     * @dev Gets the bids\n     * @param _tokenId uint256 ID of the token\n     * @param _owner address of the token owner\n     */\n    function getBids(uint256 _tokenId, address _owner)\n    external\n    view\n    returns (uint256[] memory bids){\n        return tokenOwnerInfo[_tokenId][_owner].bids;\n    }\n\n    /**\n     * @dev Gets the bidders\n     * @param _tokenId uint256 ID of the token\n     * @param _owner address of the token owner\n     */\n    function getBidders(uint256 _tokenId, address _owner)\n    external\n    view\n    returns (address[] memory bidders){\n        return tokenOwnerInfo[_tokenId][_owner].bidders;\n    }\n\n    /**\n     * @dev Gets the creation time\n     * @param _tokenId uint256 ID of the token\n     */\n    function getCreationTime(uint256 _tokenId)\n    external\n    view\n    returns (uint256){\n        return tokenInfo[_tokenId].creationTime;\n    }\n\n    /**\n     * @dev get tokenIds length\n     */\n    function getTokenIdsLength() external override view returns (uint256){\n        return tokenIds.length;\n    }\n\n    /**\n     * @dev get token Id\n     * @param _index uint256 index\n     */\n\n    function getTokenId(uint256 _index) external override view returns (uint256){\n        return tokenIds[_index];\n    }\n    /**\n     * @dev get owner tokens\n     * @param _owner address of owner.\n     */\n\n    function getOwnerTokens(address _owner) public view returns (TokenInfo[] memory tokens, TokenOwnerInfo[] memory ownerInfo) {\n\n        uint totalValues;\n        //calculate totalValues\n        for (uint i = 0; i < tokenIds.length; i++) {\n            TokenInfo memory info = tokenInfo[tokenIds[i]];\n            if (info.owners[info.owners.length - 1] == _owner) {\n                totalValues++;\n            }\n        }\n\n        TokenInfo[] memory values = new TokenInfo[](totalValues);\n        TokenOwnerInfo[] memory valuesOwner = new TokenOwnerInfo[](totalValues);\n        for (uint i = 0; i < tokenIds.length; i++) {\n            uint256 tokenId = tokenIds[i];\n            TokenInfo memory info = tokenInfo[tokenId];\n            if (info.owners[info.owners.length - 1] == _owner) {\n                values[i] = info;\n                valuesOwner[i] = tokenOwnerInfo[tokenId][_owner];\n            }\n        }\n\n        return (values, valuesOwner);\n    }\n\n    /**\n     * @dev get token paging\n     * @param _offset offset of the records.\n     * @param _limit limits of the records.\n     */\n    function getTokensPaging(uint _offset, uint _limit) public view returns (TokenInfo[] memory tokens, uint nextOffset, uint total) {\n        uint256 tokenInfoLength = tokenIds.length;\n        if (_limit == 0) {\n            _limit = 1;\n        }\n\n        if (_limit > tokenInfoLength - _offset) {\n            _limit = tokenInfoLength - _offset;\n        }\n\n        TokenInfo[] memory values = new TokenInfo[] (_limit);\n        for (uint i = 0; i < _limit; i++) {\n            uint256 tokenId = tokenIds[_offset + i];\n            values[i] = tokenInfo[tokenId];\n        }\n\n        return (values, _offset + _limit, tokenInfoLength);\n    }\n\n    /**\n     * @dev Checks that the token was owned by the sender.\n     * @param _tokenId uint256 ID of the token.\n     */\n    modifier onlyTokenOwner(uint256 _tokenId) {\n        uint256 balance = balanceOf(msg.sender, _tokenId);\n        require(balance > 0, \"must be the owner of the token\");\n        _;\n    }\n\n    /**\n     * @dev Checks that the token was created by the sender.\n     * @param _tokenId uint256 ID of the token.\n     */\n    modifier onlyTokenCreator(uint256 _tokenId) {\n        address creator = tokenInfo[_tokenId].creator;\n        require(creator == msg.sender, \"must be the creator of the token\");\n        _;\n    }\n\n    /**\n     * @dev restore data from old contract, only call by owner\n     * @param _oldAddress address of old contract.\n     * @param _startIndex start index of array\n     * @param _endIndex end index of array\n     */\n    function restore(address _oldAddress, uint256 _startIndex, uint256 _endIndex) external onlyOwner {\n        Nafter oldContract = Nafter(_oldAddress);\n        uint256 length = oldContract.getTokenIdsLength();\n        require(_startIndex < length, \"wrong start index\");\n        require(_endIndex <= length, \"wrong end index\");\n\n        for (uint i = _startIndex; i < _endIndex; i++) {\n            uint256 tokenId = oldContract.getTokenId(i);\n            tokenIds.push(tokenId);\n            //create seperate functions otherwise it will give stack too deep error\n            tokenInfo[tokenId] = TokenInfo(\n                tokenId,\n                oldContract.creatorOfToken(tokenId),\n                oldContract.getTokenAmount(tokenId),\n                oldContract.getOwners(tokenId),\n                oldContract.getServiceFee(tokenId),\n                oldContract.getCreationTime(tokenId)\n            );\n\n            address[] memory owners = tokenInfo[tokenId].owners;\n            for (uint j = 0; j < owners.length; j++) {\n                address owner = owners[j];\n                tokenOwnerInfo[tokenId][owner] = TokenOwnerInfo(\n                    oldContract.getIsForSale(tokenId, owner),\n                    oldContract.getPriceType(tokenId, owner),\n                    oldContract.getPrices(tokenId, owner),\n                    oldContract.getBids(tokenId, owner),\n                    oldContract.getBidders(tokenId, owner)\n                );\n\n                uint256 ownerBalance = oldContract.balanceOf(owner, tokenId);\n                if (ownerBalance > 0) {\n                    _mint(owner, tokenId, ownerBalance, '');\n                }\n            }\n            tokenIdsAvailable[tokenId] = true;\n        }\n        maxId = oldContract.maxId();\n    }\n\n    /**\n     * @dev update or mint token Amount only from token creator.\n     * @param _tokenAmount token Amount\n     * @param _tokenId uint256 id of the token.\n     */\n    function setTokenAmount(uint256 _tokenAmount, uint256 _tokenId) external onlyTokenCreator(_tokenId) {\n        tokenInfo[_tokenId].tokenAmount = tokenInfo[_tokenId].tokenAmount + _tokenAmount;\n        _mint(msg.sender, _tokenId, _tokenAmount, '');\n    }\n\n    /**\n     * @dev update is for sale only from token Owner.\n     * @param _isForSale is For Sale\n     * @param _tokenId uint256 id of the token.\n     */\n    function setIsForSale(bool _isForSale, uint256 _tokenId) public onlyTokenOwner(_tokenId) {\n        tokenOwnerInfo[_tokenId][msg.sender].isForSale = _isForSale;\n    }\n\n    /**\n     * @dev update is for sale only from token Owner.\n     * @param _priceType set the price type\n     * @param _price price of the token\n     * @param _startTime start time of bid, pass 0 of _priceType is not 1\n     * @param _endTime end time of bid, pass 0 of _priceType is not 1\n     * @param _tokenId uint256 id of the token.\n     * @param _owner owner of the token\n     */\n    function putOnSale(uint8 _priceType, uint256 _price, uint256 _startTime, uint256 _endTime, uint256 _tokenId, address _owner) public onlyTokenOwner(_tokenId) {\n        if (_priceType == 0) {\n            marketAuction.setSalePrice(_tokenId, _price, _owner);\n        }\n        if (_priceType == 1 || _priceType == 2) {\n            marketAuction.setInitialBidPriceWithRange(_price, _startTime, _endTime, _owner, _tokenId);\n        }\n        tokenOwnerInfo[_tokenId][_owner].isForSale = true;\n        tokenOwnerInfo[_tokenId][_owner].priceType = _priceType;\n    }\n\n    /**\n     * @dev remove token from sale\n     * @param _tokenId uint256 id of the token.\n     * @param _owner owner of the token\n     */\n    function removeFromSale(uint256 _tokenId, address _owner) external override {\n        uint256 balance = balanceOf(msg.sender, _tokenId);\n        require(balance > 0 || msg.sender == address(marketAuction), \"must be the owner of the token or sender is market auction\");\n\n        tokenOwnerInfo[_tokenId][_owner].isForSale = false;\n    }\n\n    /**\n     * @dev update price type from token Owner.\n     * @param _priceType price type\n     * @param _tokenId uint256 id of the token.\n     */\n    function setPriceType(uint8 _priceType, uint256 _tokenId) external onlyTokenOwner(_tokenId) {\n        tokenOwnerInfo[_tokenId][msg.sender].priceType = _priceType;\n    }\n\n    /**\n     * @dev set marketAuction address to set the sale price\n     * @param _marketAuction address of market auction.\n     * @param _marketplaceSettings address of market auction.\n     */\n    function setMarketAddresses(address _marketAuction, address _marketplaceSettings, address _tokenCreatorRigistry, address _royaltyRegistry) external onlyOwner {\n        marketAuction = INafterMarketAuction(_marketAuction);\n        marketplaceSettings = IMarketplaceSettings(_marketplaceSettings);\n        tokenCreatorRigistry = INafterTokenCreatorRegistry(_tokenCreatorRigistry);\n        royaltyRegistry = INafterRoyaltyRegistry(_royaltyRegistry);\n    }\n\n    /**\n     * @dev update price only from auction.\n     * @param _price price of the token\n     * @param _tokenId uint256 id of the token.\n     * @param _owner address of the token owner\n     */\n    function setPrice(uint256 _price, uint256 _tokenId, address _owner) external override {\n        require(msg.sender == address(marketAuction), \"only market auction can set the price\");\n        TokenOwnerInfo storage info = tokenOwnerInfo[_tokenId][_owner];\n        info.prices.push(_price);\n    }\n\n    /**\n     * @dev update bids only from auction.\n     * @param _bid bid Amount\n     * @param _bidder bidder address\n     * @param _tokenId uint256 id of the token.\n     * @param _owner address of the token owner\n     */\n    function setBid(uint256 _bid, address _bidder, uint256 _tokenId, address _owner) external override {\n        require(msg.sender == address(marketAuction), \"only market auction can set the price\");\n        TokenOwnerInfo storage info = tokenOwnerInfo[_tokenId][_owner];\n        info.bids.push(_bid);\n        info.bidders.push(_bidder);\n    }\n\n    /**\n     * @dev Adds a new unique token to the supply.\n     * @param _tokenAmount total token amount available\n     * @param _isForSale if is for sale\n     * @param _priceType 0 is for fixed, 1 is for Auction Time bound, 2 is for Auction Infiniite\n     * @param _royaltyPercentage royality percentage of creator\n     */\n    function addNewToken(uint256 _tokenAmount, bool _isForSale, uint8 _priceType, uint8 _royaltyPercentage) public {\n        uint256 tokenId = _createToken(msg.sender, _tokenAmount, _isForSale, 0, _priceType, _royaltyPercentage);\n\n        emit AddNewToken(msg.sender, tokenId);\n    }\n\n    /**\n     * @dev Adds a new unique token to the supply.\n     * @param _tokenAmount total token amount available\n     * @param _isForSale if is for sale\n     * @param _priceType 0 is for fixed, 1 is for Auction Time bound, 2 is for Auction Infiniite\n     * @param _royaltyPercentage royality percentage of creator\n     * @param _tokenId uint256 ID of the token.\n     */\n    function addNewTokenWithId(uint256 _tokenAmount, bool _isForSale, uint8 _priceType, uint8 _royaltyPercentage, uint256 _tokenId) public {\n        uint256 tokenId = _createTokenWithId(msg.sender, _tokenAmount, _isForSale, 0, _priceType, _royaltyPercentage, _tokenId);\n\n        emit AddNewToken(msg.sender, tokenId);\n    }\n\n    /**\n     * @dev add token and set the price.\n     * @param _price price of the item.\n     * @param _tokenAmount total token amount available\n     * @param _isForSale if is for sale\n     * @param _priceType 0 is for fixed, 1 is for Auction Time bound, 2 is for Auction Infiniite\n     * @param _royaltyPercentage royality percentage of creator\n     * @param _startTime start time of bid, pass 0 of _priceType is not 1\n     * @param _endTime end time of bid, pass 0 of _priceType is not 1\n     */\n    function addNewTokenAndSetThePrice(uint256 _tokenAmount, bool _isForSale, uint256 _price, uint8 _priceType, uint8 _royaltyPercentage, uint256 _startTime, uint256 _endTime) public {\n        uint256 tokenId = getTokenIdAvailable();\n        addNewTokenAndSetThePriceWithId(_tokenAmount, _isForSale, _price, _priceType, _royaltyPercentage, _startTime, _endTime, tokenId);\n    }\n\n    /**\n     * @dev add token and set the price.\n     * @param _price price of the item.\n     * @param _tokenAmount total token amount available\n     * @param _isForSale if is for sale\n     * @param _priceType 0 is for fixed, 1 is for Auction Time bound, 2 is for Auction Infiniite\n     * @param _royaltyPercentage royality percentage of creator\n     * @param _startTime start time of bid, pass 0 of _priceType is not 1\n     * @param _endTime end time of bid, pass 0 of _priceType is not 1\n     * @param _tokenId uint256 ID of the token.\n     */\n    function addNewTokenAndSetThePriceWithId(uint256 _tokenAmount, bool _isForSale, uint256 _price, uint8 _priceType, uint8 _royaltyPercentage, uint256 _startTime, uint256 _endTime, uint256 _tokenId) public {\n        uint256 tokenId = _createTokenWithId(msg.sender, _tokenAmount, _isForSale, _price, _priceType, _royaltyPercentage, _tokenId);\n        putOnSale(_priceType, _price, _startTime, _endTime, tokenId, msg.sender);\n\n        emit AddNewToken(msg.sender, tokenId);\n    }\n\n    /**\n     * @dev Deletes the token with the provided ID.\n     * @param _tokenId uint256 ID of the token.\n     * @param _amount amount of the token to delete\n     */\n    function deleteToken(uint256 _tokenId, uint256 _amount) public onlyTokenOwner(_tokenId) {\n        bool activeBid = marketAuction.hasTokenActiveBid(_tokenId, msg.sender);\n        uint256 balance = balanceOf(msg.sender, _tokenId);\n        //2\n        if (activeBid == true)\n            require(balance.sub(_amount) > 0, \"you have the active bid\");\n        _burn(msg.sender, _tokenId, _amount);\n        DeleteTokens(msg.sender, _tokenId, _amount);\n    }\n\n    /**\n     * @dev Sets uri of tokens.\n     *\n     * Requirements:\n     *\n     * @param _uri new uri .\n     */\n    function setURI(string memory _uri) external onlyOwner {\n        _setURI(_uri);\n        emit SetURI(_uri);\n    }\n\n    function safeTransferFrom(\n        address from,\n        address to,\n        uint256 id,\n        uint256 amount,\n        bytes memory data\n    )\n    public\n    virtual\n    override\n    {\n        //transfer case\n        if (msg.sender != address(marketAuction)) {\n            bool activeBid = marketAuction.hasTokenActiveBid(id, from);\n            uint256 balance = balanceOf(from, id);\n            if (activeBid == true)\n                require(balance.sub(amount) > 0, \"you have the active bid\");\n        }\n        super.safeTransferFrom(from, to, id, amount, data);\n        _setTokenOwner(id, to);\n    }\n\n    /**\n     * @dev Internal function for setting the token's creator.\n     * @param _tokenId uint256 id of the token.\n     * @param _owner address of the owner of the token.\n     */\n    function _setTokenOwner(uint256 _tokenId, address _owner) internal {\n        address[] storage owners = tokenInfo[_tokenId].owners;\n        for (uint i = 0; i < owners.length; i++) {\n            if (owners[i] == _owner) //incase owner already exists\n                return;\n        }\n        owners.push(_owner);\n    }\n\n    /**\n     * @dev Internal function creating a new token.\n     * @param _creator address of the creator of the token.\n     * @param _tokenAmount total token amount available\n     * @param _isForSale if is for sale\n     * @param _price price of the token, 0 is for not set the price.\n     * @param _priceType 0 is for fixed, 1 is for Auction Time bound, 2 is for Auction Infiniite\n     * @param _royaltyPercentage royality percentage of creator\n     */\n    function _createToken(address _creator, uint256 _tokenAmount, bool _isForSale, uint256 _price, uint8 _priceType, uint8 _royaltyPercentage) internal returns (uint256) {\n        uint256 newId = getTokenIdAvailable();\n        return _createTokenWithId(_creator, _tokenAmount, _isForSale, _price, _priceType, _royaltyPercentage, newId);\n    }\n\n    /**\n     * @dev Internal function creating a new token.\n     * @param _creator address of the creator of the token.\n     * @param _tokenAmount total token amount available\n     * @param _isForSale if is for sale\n     * @param _price price of the token, 0 is for not set the price.\n     * @param _priceType 0 is for fixed, 1 is for Auction Time bound, 2 is for Auction Infiniite\n     * @param _royaltyPercentage royality percentage of creator\n     * @param _tokenId uint256 token id\n     */\n    function _createTokenWithId(address _creator, uint256 _tokenAmount, bool _isForSale, uint256 _price, uint8 _priceType, uint8 _royaltyPercentage, uint256 _tokenId) internal returns (uint256) {\n        require(tokenIdsAvailable[_tokenId] == false, \"token id is already exist\");\n\n        tokenIdsAvailable[_tokenId] = true;\n        tokenIds.push(_tokenId);\n\n        maxId = maxId > _tokenId ? maxId : _tokenId;\n\n        _mint(_creator, _tokenId, _tokenAmount, '');\n        uint8 serviceFee = marketplaceSettings.getMarketplaceFeePercentage();\n\n        tokenInfo[_tokenId] = TokenInfo(\n            _tokenId,\n            _creator,\n            _tokenAmount,\n            new address[](0),\n            serviceFee,\n            block.timestamp);\n\n        tokenInfo[_tokenId].owners.push(_creator);\n\n        tokenOwnerInfo[_tokenId][_creator] = TokenOwnerInfo(\n            _isForSale,\n            _priceType,\n            new uint256[](0),\n            new uint256[](0),\n            new address[](0));\n        tokenOwnerInfo[_tokenId][_creator].prices.push(_price);\n\n        royaltyRegistry.setPercentageForTokenRoyalty(_tokenId, _royaltyPercentage);\n        tokenCreatorRigistry.setTokenCreator(_tokenId, msg.sender);\n\n        return _tokenId;\n    }\n\n    /**\n     * @dev get last token id\n     */\n    function getLastTokenId() external view returns (uint256){\n        return tokenIds[tokenIds.length - 1];\n    }\n\n    /**\n     * @dev get the token id available\n     */\n    function getTokenIdAvailable() public view returns (uint256){\n\n        for (uint256 i = 0; i < maxId; i++) {\n            if (tokenIdsAvailable[i] == false)\n                return i;\n        }\n        return tokenIds.length;\n    }\n}",
  "sourcePath": "/home/Projects/Nafter/contracts/Nafter.sol",
  "compiler": {
    "name": "solc",
    "version": "0.6.12+commit.27d51765.Emscripten.clang"
  },
  "schemaVersion": "3.3.4",
  "updatedAt": "2021-09-28T22:00:26.152Z",
  "devdoc": {
    "kind": "dev",
    "methods": {
      "addNewToken(uint256,bool,uint8,uint8)": {
        "details": "Adds a new unique token to the supply.",
        "params": {
          "_isForSale": "if is for sale",
          "_priceType": "0 is for fixed, 1 is for Auction Time bound, 2 is for Auction Infiniite",
          "_royaltyPercentage": "royality percentage of creator",
          "_tokenAmount": "total token amount available"
        }
      },
      "addNewTokenAndSetThePrice(uint256,bool,uint256,uint8,uint8,uint256,uint256)": {
        "details": "add token and set the price.",
        "params": {
          "_endTime": "end time of bid, pass 0 of _priceType is not 1",
          "_isForSale": "if is for sale",
          "_price": "price of the item.",
          "_priceType": "0 is for fixed, 1 is for Auction Time bound, 2 is for Auction Infiniite",
          "_royaltyPercentage": "royality percentage of creator",
          "_startTime": "start time of bid, pass 0 of _priceType is not 1",
          "_tokenAmount": "total token amount available"
        }
      },
      "addNewTokenAndSetThePriceWithId(uint256,bool,uint256,uint8,uint8,uint256,uint256,uint256)": {
        "details": "add token and set the price.",
        "params": {
          "_endTime": "end time of bid, pass 0 of _priceType is not 1",
          "_isForSale": "if is for sale",
          "_price": "price of the item.",
          "_priceType": "0 is for fixed, 1 is for Auction Time bound, 2 is for Auction Infiniite",
          "_royaltyPercentage": "royality percentage of creator",
          "_startTime": "start time of bid, pass 0 of _priceType is not 1",
          "_tokenAmount": "total token amount available",
          "_tokenId": "uint256 ID of the token."
        }
      },
      "addNewTokenWithId(uint256,bool,uint8,uint8,uint256)": {
        "details": "Adds a new unique token to the supply.",
        "params": {
          "_isForSale": "if is for sale",
          "_priceType": "0 is for fixed, 1 is for Auction Time bound, 2 is for Auction Infiniite",
          "_royaltyPercentage": "royality percentage of creator",
          "_tokenAmount": "total token amount available",
          "_tokenId": "uint256 ID of the token."
        }
      },
      "balanceOf(address,uint256)": {
        "details": "See {IERC1155-balanceOf}. Requirements: - `account` cannot be the zero address."
      },
      "balanceOfBatch(address[],uint256[])": {
        "details": "See {IERC1155-balanceOfBatch}. Requirements: - `accounts` and `ids` must have the same length."
      },
      "creatorOfToken(uint256)": {
        "details": "Gets the creator of the token",
        "params": {
          "_tokenId": "uint256 ID of the token"
        },
        "returns": {
          "_0": "address of the creator"
        }
      },
      "deleteToken(uint256,uint256)": {
        "details": "Deletes the token with the provided ID.",
        "params": {
          "_amount": "amount of the token to delete",
          "_tokenId": "uint256 ID of the token."
        }
      },
      "getBidders(uint256,address)": {
        "details": "Gets the bidders",
        "params": {
          "_owner": "address of the token owner",
          "_tokenId": "uint256 ID of the token"
        }
      },
      "getBids(uint256,address)": {
        "details": "Gets the bids",
        "params": {
          "_owner": "address of the token owner",
          "_tokenId": "uint256 ID of the token"
        }
      },
      "getCreationTime(uint256)": {
        "details": "Gets the creation time",
        "params": {
          "_tokenId": "uint256 ID of the token"
        }
      },
      "getIsForSale(uint256,address)": {
        "details": "Gets the is for sale",
        "params": {
          "_owner": "address of the token owner",
          "_tokenId": "uint256 ID of the token"
        }
      },
      "getLastTokenId()": {
        "details": "get last token id"
      },
      "getOwnerTokens(address)": {
        "details": "get owner tokens",
        "params": {
          "_owner": "address of owner."
        }
      },
      "getOwners(uint256)": {
        "details": "Gets the owners",
        "params": {
          "_tokenId": "uint256 ID of the token"
        }
      },
      "getPriceType(uint256,address)": {
        "details": "Gets the price type",
        "params": {
          "_owner": "address of the token owner",
          "_tokenId": "uint256 ID of the token"
        },
        "returns": {
          "_0": "get the price type"
        }
      },
      "getPrices(uint256,address)": {
        "details": "Gets the prices",
        "params": {
          "_owner": "address of the token owner",
          "_tokenId": "uint256 ID of the token"
        }
      },
      "getServiceFee(uint256)": {
        "details": "Gets the Service Fee",
        "params": {
          "_tokenId": "uint256 ID of the token"
        },
        "returns": {
          "_0": "get the service fee"
        }
      },
      "getTokenAmount(uint256)": {
        "details": "Gets the token amount",
        "params": {
          "_tokenId": "uint256 ID of the token"
        }
      },
      "getTokenId(uint256)": {
        "details": "get token Id",
        "params": {
          "_index": "uint256 index"
        }
      },
      "getTokenIdAvailable()": {
        "details": "get the token id available"
      },
      "getTokenIdsLength()": {
        "details": "get tokenIds length"
      },
      "getTokensPaging(uint256,uint256)": {
        "details": "get token paging",
        "params": {
          "_limit": "limits of the records.",
          "_offset": "offset of the records."
        }
      },
      "isApprovedForAll(address,address)": {
        "details": "See {IERC1155-isApprovedForAll}."
      },
      "owner()": {
        "details": "Returns the address of the current owner."
      },
      "putOnSale(uint8,uint256,uint256,uint256,uint256,address)": {
        "details": "update is for sale only from token Owner.",
        "params": {
          "_endTime": "end time of bid, pass 0 of _priceType is not 1",
          "_owner": "owner of the token",
          "_price": "price of the token",
          "_priceType": "set the price type",
          "_startTime": "start time of bid, pass 0 of _priceType is not 1",
          "_tokenId": "uint256 id of the token."
        }
      },
      "removeFromSale(uint256,address)": {
        "details": "remove token from sale",
        "params": {
          "_owner": "owner of the token",
          "_tokenId": "uint256 id of the token."
        }
      },
      "renounceOwnership()": {
        "details": "Leaves the contract without owner. It will not be possible to call `onlyOwner` functions anymore. Can only be called by the current owner. NOTE: Renouncing ownership will leave the contract without an owner, thereby removing any functionality that is only available to the owner."
      },
      "restore(address,uint256,uint256)": {
        "details": "restore data from old contract, only call by owner",
        "params": {
          "_endIndex": "end index of array",
          "_oldAddress": "address of old contract.",
          "_startIndex": "start index of array"
        }
      },
      "safeBatchTransferFrom(address,address,uint256[],uint256[],bytes)": {
        "details": "See {IERC1155-safeBatchTransferFrom}."
      },
      "safeTransferFrom(address,address,uint256,uint256,bytes)": {
        "details": "See {IERC1155-safeTransferFrom}."
      },
      "setApprovalForAll(address,bool)": {
        "details": "See {IERC1155-setApprovalForAll}."
      },
      "setBid(uint256,address,uint256,address)": {
        "details": "update bids only from auction.",
        "params": {
          "_bid": "bid Amount",
          "_bidder": "bidder address",
          "_owner": "address of the token owner",
          "_tokenId": "uint256 id of the token."
        }
      },
      "setIsForSale(bool,uint256)": {
        "details": "update is for sale only from token Owner.",
        "params": {
          "_isForSale": "is For Sale",
          "_tokenId": "uint256 id of the token."
        }
      },
      "setMarketAddresses(address,address,address,address)": {
        "details": "set marketAuction address to set the sale price",
        "params": {
          "_marketAuction": "address of market auction.",
          "_marketplaceSettings": "address of market auction."
        }
      },
      "setPrice(uint256,uint256,address)": {
        "details": "update price only from auction.",
        "params": {
          "_owner": "address of the token owner",
          "_price": "price of the token",
          "_tokenId": "uint256 id of the token."
        }
      },
      "setPriceType(uint8,uint256)": {
        "details": "update price type from token Owner.",
        "params": {
          "_priceType": "price type",
          "_tokenId": "uint256 id of the token."
        }
      },
      "setTokenAmount(uint256,uint256)": {
        "details": "update or mint token Amount only from token creator.",
        "params": {
          "_tokenAmount": "token Amount",
          "_tokenId": "uint256 id of the token."
        }
      },
      "setURI(string)": {
        "details": "Sets uri of tokens. Requirements:",
        "params": {
          "_uri": "new uri ."
        }
      },
      "supportsInterface(bytes4)": {
        "details": "See {IERC165-supportsInterface}. Time complexity O(1), guaranteed to always use less than 30 000 gas."
      },
      "transferOwnership(address)": {
        "details": "Transfers ownership of the contract to a new account (`newOwner`). Can only be called by the current owner."
      },
      "uri(uint256)": {
        "details": "See {IERC1155MetadataURI-uri}. This implementation returns the same URI for *all* token types. It relies on the token type ID substitution mechanism https://eips.ethereum.org/EIPS/eip-1155#metadata[defined in the EIP]. Clients calling this function must replace the `\\{id\\}` substring with the actual token type ID."
      }
    },
    "version": 1
  },
  "userdoc": {
    "kind": "user",
    "methods": {},
    "notice": "Nafter core contract.",
    "version": 1
  }
}